{
  "_format": "hh-sol-artifact-1",
  "contractName": "TasksManager",
  "sourceName": "contracts/TasksManager.sol",
  "abi": [
    {
      "inputs": [
        {
          "internalType": "address",
          "name": "voter",
          "type": "address"
        }
      ],
      "name": "AlreadyVoted",
      "type": "error"
    },
    {
      "inputs": [
        {
          "internalType": "uint256",
          "name": "balance",
          "type": "uint256"
        },
        {
          "internalType": "uint256",
          "name": "withdrawAmount",
          "type": "uint256"
        }
      ],
      "name": "InsufficientBalance",
      "type": "error"
    },
    {
      "inputs": [
        {
          "internalType": "uint256",
          "name": "endDate",
          "type": "uint256"
        },
        {
          "internalType": "uint256",
          "name": "blockTimestamp",
          "type": "uint256"
        }
      ],
      "name": "InvalidEndDate",
      "type": "error"
    },
    {
      "inputs": [
        {
          "internalType": "uint256",
          "name": "roleId",
          "type": "uint256"
        }
      ],
      "name": "InvalidRoleId",
      "type": "error"
    },
    {
      "inputs": [
        {
          "internalType": "enum IWeb3Task.Status",
          "name": "status",
          "type": "uint8"
        }
      ],
      "name": "InvalidStatus",
      "type": "error"
    },
    {
      "inputs": [
        {
          "internalType": "uint256",
          "name": "taskId",
          "type": "uint256"
        }
      ],
      "name": "InvalidTaskId",
      "type": "error"
    },
    {
      "inputs": [
        {
          "internalType": "uint256",
          "name": "taskId",
          "type": "uint256"
        },
        {
          "internalType": "enum IWeb3Task.Status",
          "name": "status",
          "type": "uint8"
        }
      ],
      "name": "TaskCannotBeChanged",
      "type": "error"
    },
    {
      "inputs": [
        {
          "internalType": "address",
          "name": "operator",
          "type": "address"
        }
      ],
      "name": "Unauthorized",
      "type": "error"
    },
    {
      "anonymous": false,
      "inputs": [
        {
          "indexed": true,
          "internalType": "address",
          "name": "owner",
          "type": "address"
        },
        {
          "indexed": true,
          "internalType": "address",
          "name": "approved",
          "type": "address"
        },
        {
          "indexed": true,
          "internalType": "uint256",
          "name": "tokenId",
          "type": "uint256"
        }
      ],
      "name": "Approval",
      "type": "event"
    },
    {
      "anonymous": false,
      "inputs": [
        {
          "indexed": true,
          "internalType": "address",
          "name": "owner",
          "type": "address"
        },
        {
          "indexed": true,
          "internalType": "address",
          "name": "operator",
          "type": "address"
        },
        {
          "indexed": false,
          "internalType": "bool",
          "name": "approved",
          "type": "bool"
        }
      ],
      "name": "ApprovalForAll",
      "type": "event"
    },
    {
      "anonymous": false,
      "inputs": [
        {
          "indexed": true,
          "internalType": "bytes4",
          "name": "interfaceId",
          "type": "bytes4"
        },
        {
          "indexed": true,
          "internalType": "uint256",
          "name": "roleId",
          "type": "uint256"
        },
        {
          "indexed": false,
          "internalType": "bool",
          "name": "isAuthorized",
          "type": "bool"
        }
      ],
      "name": "AuthorizeOperator",
      "type": "event"
    },
    {
      "anonymous": false,
      "inputs": [
        {
          "indexed": true,
          "internalType": "uint256",
          "name": "roleId",
          "type": "uint256"
        },
        {
          "indexed": true,
          "internalType": "address",
          "name": "authorizedAddress",
          "type": "address"
        },
        {
          "indexed": false,
          "internalType": "bool",
          "name": "isAuthorized",
          "type": "bool"
        }
      ],
      "name": "AuthorizePersonnel",
      "type": "event"
    },
    {
      "anonymous": false,
      "inputs": [
        {
          "indexed": true,
          "internalType": "uint256",
          "name": "authorizationId",
          "type": "uint256"
        },
        {
          "indexed": true,
          "internalType": "address",
          "name": "depositor",
          "type": "address"
        },
        {
          "indexed": false,
          "internalType": "uint256",
          "name": "amount",
          "type": "uint256"
        }
      ],
      "name": "Deposit",
      "type": "event"
    },
    {
      "anonymous": false,
      "inputs": [
        {
          "indexed": true,
          "internalType": "uint256",
          "name": "taskId",
          "type": "uint256"
        },
        {
          "indexed": false,
          "internalType": "string",
          "name": "description",
          "type": "string"
        }
      ],
      "name": "DescriptionUpdated",
      "type": "event"
    },
    {
      "anonymous": false,
      "inputs": [
        {
          "indexed": true,
          "internalType": "uint256",
          "name": "taskId",
          "type": "uint256"
        },
        {
          "indexed": false,
          "internalType": "uint256",
          "name": "endDate",
          "type": "uint256"
        }
      ],
      "name": "EndDateUpdated",
      "type": "event"
    },
    {
      "anonymous": false,
      "inputs": [
        {
          "indexed": true,
          "internalType": "uint256",
          "name": "taskId",
          "type": "uint256"
        },
        {
          "indexed": false,
          "internalType": "string",
          "name": "metadata",
          "type": "string"
        }
      ],
      "name": "MetadataUpdated",
      "type": "event"
    },
    {
      "anonymous": false,
      "inputs": [
        {
          "indexed": false,
          "internalType": "uint256",
          "name": "value",
          "type": "uint256"
        }
      ],
      "name": "QuorumUpdated",
      "type": "event"
    },
    {
      "anonymous": false,
      "inputs": [
        {
          "indexed": true,
          "internalType": "uint256",
          "name": "taskId",
          "type": "uint256"
        },
        {
          "indexed": true,
          "internalType": "address",
          "name": "creator",
          "type": "address"
        },
        {
          "indexed": true,
          "internalType": "address",
          "name": "assignee",
          "type": "address"
        },
        {
          "indexed": false,
          "internalType": "uint256",
          "name": "reward",
          "type": "uint256"
        },
        {
          "indexed": false,
          "internalType": "uint256",
          "name": "endDate",
          "type": "uint256"
        }
      ],
      "name": "TaskCreated",
      "type": "event"
    },
    {
      "anonymous": false,
      "inputs": [
        {
          "indexed": true,
          "internalType": "uint256",
          "name": "taskId",
          "type": "uint256"
        },
        {
          "indexed": true,
          "internalType": "address",
          "name": "reviewer",
          "type": "address"
        },
        {
          "indexed": false,
          "internalType": "string",
          "name": "metadata",
          "type": "string"
        }
      ],
      "name": "TaskReviewed",
      "type": "event"
    },
    {
      "anonymous": false,
      "inputs": [
        {
          "indexed": true,
          "internalType": "uint256",
          "name": "taskId",
          "type": "uint256"
        },
        {
          "indexed": true,
          "internalType": "address",
          "name": "assignee",
          "type": "address"
        }
      ],
      "name": "TaskStarted",
      "type": "event"
    },
    {
      "anonymous": false,
      "inputs": [
        {
          "indexed": true,
          "internalType": "uint256",
          "name": "taskId",
          "type": "uint256"
        },
        {
          "indexed": false,
          "internalType": "enum IWeb3Task.Status",
          "name": "status",
          "type": "uint8"
        }
      ],
      "name": "TaskUpdated",
      "type": "event"
    },
    {
      "anonymous": false,
      "inputs": [
        {
          "indexed": true,
          "internalType": "uint256",
          "name": "taskId",
          "type": "uint256"
        },
        {
          "indexed": false,
          "internalType": "string",
          "name": "title",
          "type": "string"
        }
      ],
      "name": "TitleUpdated",
      "type": "event"
    },
    {
      "anonymous": false,
      "inputs": [
        {
          "indexed": true,
          "internalType": "address",
          "name": "from",
          "type": "address"
        },
        {
          "indexed": true,
          "internalType": "address",
          "name": "to",
          "type": "address"
        },
        {
          "indexed": true,
          "internalType": "uint256",
          "name": "tokenId",
          "type": "uint256"
        }
      ],
      "name": "Transfer",
      "type": "event"
    },
    {
      "anonymous": false,
      "inputs": [
        {
          "indexed": true,
          "internalType": "uint256",
          "name": "authorizationId",
          "type": "uint256"
        },
        {
          "indexed": true,
          "internalType": "address",
          "name": "withdrawer",
          "type": "address"
        },
        {
          "indexed": false,
          "internalType": "uint256",
          "name": "amount",
          "type": "uint256"
        }
      ],
      "name": "Withdraw",
      "type": "event"
    },
    {
      "inputs": [
        {
          "internalType": "address",
          "name": "to",
          "type": "address"
        },
        {
          "internalType": "uint256",
          "name": "tokenId",
          "type": "uint256"
        }
      ],
      "name": "approve",
      "outputs": [],
      "stateMutability": "nonpayable",
      "type": "function"
    },
    {
      "inputs": [
        {
          "internalType": "address",
          "name": "owner",
          "type": "address"
        }
      ],
      "name": "balanceOf",
      "outputs": [
        {
          "internalType": "uint256",
          "name": "",
          "type": "uint256"
        }
      ],
      "stateMutability": "view",
      "type": "function"
    },
    {
      "inputs": [
        {
          "internalType": "uint256",
          "name": "_taskId",
          "type": "uint256"
        },
        {
          "internalType": "uint256",
          "name": "_roleId",
          "type": "uint256"
        }
      ],
      "name": "cancelTask",
      "outputs": [
        {
          "internalType": "bool",
          "name": "",
          "type": "bool"
        }
      ],
      "stateMutability": "nonpayable",
      "type": "function"
    },
    {
      "inputs": [
        {
          "internalType": "uint256",
          "name": "_taskId",
          "type": "uint256"
        },
        {
          "internalType": "uint256",
          "name": "_roleId",
          "type": "uint256"
        }
      ],
      "name": "completeTask",
      "outputs": [
        {
          "internalType": "bool",
          "name": "",
          "type": "bool"
        }
      ],
      "stateMutability": "nonpayable",
      "type": "function"
    },
    {
      "inputs": [
        {
          "components": [
            {
              "internalType": "enum IWeb3Task.Status",
              "name": "status",
              "type": "uint8"
            },
            {
              "internalType": "string",
              "name": "title",
              "type": "string"
            },
            {
              "internalType": "string",
              "name": "description",
              "type": "string"
            },
            {
              "internalType": "uint256",
              "name": "reward",
              "type": "uint256"
            },
            {
              "internalType": "uint256",
              "name": "endDate",
              "type": "uint256"
            },
            {
              "internalType": "uint256[]",
              "name": "authorizedRoles",
              "type": "uint256[]"
            },
            {
              "internalType": "uint256",
              "name": "creatorRole",
              "type": "uint256"
            },
            {
              "internalType": "address",
              "name": "assignee",
              "type": "address"
            },
            {
              "internalType": "string",
              "name": "metadata",
              "type": "string"
            }
          ],
          "internalType": "struct IWeb3Task.Task",
          "name": "_task",
          "type": "tuple"
        }
      ],
      "name": "createTask",
      "outputs": [
        {
          "internalType": "uint256",
          "name": "",
          "type": "uint256"
        }
      ],
      "stateMutability": "nonpayable",
      "type": "function"
    },
    {
      "inputs": [
        {
          "internalType": "uint256",
          "name": "_roleId",
          "type": "uint256"
        }
      ],
      "name": "deposit",
      "outputs": [
        {
          "internalType": "bool",
          "name": "",
          "type": "bool"
        }
      ],
      "stateMutability": "payable",
      "type": "function"
    },
    {
      "inputs": [],
      "name": "emergengyWithdraw",
      "outputs": [],
      "stateMutability": "nonpayable",
      "type": "function"
    },
    {
      "inputs": [
        {
          "internalType": "uint256",
          "name": "tokenId",
          "type": "uint256"
        }
      ],
      "name": "getApproved",
      "outputs": [
        {
          "internalType": "address",
          "name": "",
          "type": "address"
        }
      ],
      "stateMutability": "view",
      "type": "function"
    },
    {
      "inputs": [
        {
          "internalType": "uint256",
          "name": "_roleId",
          "type": "uint256"
        }
      ],
      "name": "getBalance",
      "outputs": [
        {
          "internalType": "uint256",
          "name": "",
          "type": "uint256"
        }
      ],
      "stateMutability": "view",
      "type": "function"
    },
    {
      "inputs": [],
      "name": "getMinQuorum",
      "outputs": [
        {
          "internalType": "uint256",
          "name": "",
          "type": "uint256"
        }
      ],
      "stateMutability": "view",
      "type": "function"
    },
    {
      "inputs": [
        {
          "internalType": "address",
          "name": "_address",
          "type": "address"
        }
      ],
      "name": "getScore",
      "outputs": [
        {
          "internalType": "uint256",
          "name": "",
          "type": "uint256"
        }
      ],
      "stateMutability": "view",
      "type": "function"
    },
    {
      "inputs": [
        {
          "internalType": "uint256",
          "name": "_taskId",
          "type": "uint256"
        }
      ],
      "name": "getTask",
      "outputs": [
        {
          "components": [
            {
              "internalType": "enum IWeb3Task.Status",
              "name": "status",
              "type": "uint8"
            },
            {
              "internalType": "string",
              "name": "title",
              "type": "string"
            },
            {
              "internalType": "string",
              "name": "description",
              "type": "string"
            },
            {
              "internalType": "uint256",
              "name": "reward",
              "type": "uint256"
            },
            {
              "internalType": "uint256",
              "name": "endDate",
              "type": "uint256"
            },
            {
              "internalType": "uint256[]",
              "name": "authorizedRoles",
              "type": "uint256[]"
            },
            {
              "internalType": "uint256",
              "name": "creatorRole",
              "type": "uint256"
            },
            {
              "internalType": "address",
              "name": "assignee",
              "type": "address"
            },
            {
              "internalType": "string",
              "name": "metadata",
              "type": "string"
            }
          ],
          "internalType": "struct IWeb3Task.Task",
          "name": "",
          "type": "tuple"
        }
      ],
      "stateMutability": "view",
      "type": "function"
    },
    {
      "inputs": [],
      "name": "getTaskId",
      "outputs": [
        {
          "internalType": "uint256",
          "name": "",
          "type": "uint256"
        }
      ],
      "stateMutability": "view",
      "type": "function"
    },
    {
      "inputs": [
        {
          "internalType": "address",
          "name": "_address",
          "type": "address"
        }
      ],
      "name": "getUserTasks",
      "outputs": [
        {
          "internalType": "uint256[]",
          "name": "",
          "type": "uint256[]"
        }
      ],
      "stateMutability": "view",
      "type": "function"
    },
    {
      "inputs": [
        {
          "internalType": "uint256",
          "name": "_roleId",
          "type": "uint256"
        },
        {
          "internalType": "address",
          "name": "_address",
          "type": "address"
        }
      ],
      "name": "hasRole",
      "outputs": [
        {
          "internalType": "bool",
          "name": "",
          "type": "bool"
        }
      ],
      "stateMutability": "view",
      "type": "function"
    },
    {
      "inputs": [
        {
          "internalType": "address",
          "name": "owner",
          "type": "address"
        },
        {
          "internalType": "address",
          "name": "operator",
          "type": "address"
        }
      ],
      "name": "isApprovedForAll",
      "outputs": [
        {
          "internalType": "bool",
          "name": "",
          "type": "bool"
        }
      ],
      "stateMutability": "view",
      "type": "function"
    },
    {
      "inputs": [
        {
          "internalType": "bytes4",
          "name": "_interfaceId",
          "type": "bytes4"
        },
        {
          "internalType": "uint256",
          "name": "_roleId",
          "type": "uint256"
        }
      ],
      "name": "isOperator",
      "outputs": [
        {
          "internalType": "bool",
          "name": "",
          "type": "bool"
        }
      ],
      "stateMutability": "view",
      "type": "function"
    },
    {
      "inputs": [
        {
          "internalType": "bytes[]",
          "name": "data",
          "type": "bytes[]"
        }
      ],
      "name": "multicall",
      "outputs": [
        {
          "internalType": "bytes[]",
          "name": "results",
          "type": "bytes[]"
        }
      ],
      "stateMutability": "nonpayable",
      "type": "function"
    },
    {
      "inputs": [
        {
          "internalType": "bytes[]",
          "name": "data",
          "type": "bytes[]"
        }
      ],
      "name": "multicallRead",
      "outputs": [
        {
          "internalType": "bytes[]",
          "name": "results",
          "type": "bytes[]"
        }
      ],
      "stateMutability": "view",
      "type": "function"
    },
    {
      "inputs": [],
      "name": "name",
      "outputs": [
        {
          "internalType": "string",
          "name": "",
          "type": "string"
        }
      ],
      "stateMutability": "view",
      "type": "function"
    },
    {
      "inputs": [],
      "name": "owner",
      "outputs": [
        {
          "internalType": "address",
          "name": "",
          "type": "address"
        }
      ],
      "stateMutability": "view",
      "type": "function"
    },
    {
      "inputs": [
        {
          "internalType": "uint256",
          "name": "tokenId",
          "type": "uint256"
        }
      ],
      "name": "ownerOf",
      "outputs": [
        {
          "internalType": "address",
          "name": "",
          "type": "address"
        }
      ],
      "stateMutability": "view",
      "type": "function"
    },
    {
      "inputs": [
        {
          "internalType": "uint256",
          "name": "_taskId",
          "type": "uint256"
        },
        {
          "internalType": "uint256",
          "name": "_roleId",
          "type": "uint256"
        },
        {
          "internalType": "string",
          "name": "_metadata",
          "type": "string"
        }
      ],
      "name": "reviewTask",
      "outputs": [
        {
          "internalType": "bool",
          "name": "",
          "type": "bool"
        }
      ],
      "stateMutability": "nonpayable",
      "type": "function"
    },
    {
      "inputs": [
        {
          "internalType": "address",
          "name": "from",
          "type": "address"
        },
        {
          "internalType": "address",
          "name": "to",
          "type": "address"
        },
        {
          "internalType": "uint256",
          "name": "tokenId",
          "type": "uint256"
        }
      ],
      "name": "safeTransferFrom",
      "outputs": [],
      "stateMutability": "nonpayable",
      "type": "function"
    },
    {
      "inputs": [
        {
          "internalType": "address",
          "name": "from",
          "type": "address"
        },
        {
          "internalType": "address",
          "name": "to",
          "type": "address"
        },
        {
          "internalType": "uint256",
          "name": "tokenId",
          "type": "uint256"
        },
        {
          "internalType": "bytes",
          "name": "data",
          "type": "bytes"
        }
      ],
      "name": "safeTransferFrom",
      "outputs": [],
      "stateMutability": "nonpayable",
      "type": "function"
    },
    {
      "inputs": [
        {
          "internalType": "address",
          "name": "operator",
          "type": "address"
        },
        {
          "internalType": "bool",
          "name": "approved",
          "type": "bool"
        }
      ],
      "name": "setApprovalForAll",
      "outputs": [],
      "stateMutability": "nonpayable",
      "type": "function"
    },
    {
      "inputs": [
        {
          "internalType": "uint256",
          "name": "_taskId",
          "type": "uint256"
        },
        {
          "internalType": "string",
          "name": "_description",
          "type": "string"
        }
      ],
      "name": "setDescription",
      "outputs": [],
      "stateMutability": "nonpayable",
      "type": "function"
    },
    {
      "inputs": [
        {
          "internalType": "uint256",
          "name": "_taskId",
          "type": "uint256"
        },
        {
          "internalType": "uint256",
          "name": "_endDate",
          "type": "uint256"
        }
      ],
      "name": "setEndDate",
      "outputs": [],
      "stateMutability": "nonpayable",
      "type": "function"
    },
    {
      "inputs": [
        {
          "internalType": "uint256",
          "name": "_taskId",
          "type": "uint256"
        },
        {
          "internalType": "string",
          "name": "_metadata",
          "type": "string"
        }
      ],
      "name": "setMetadata",
      "outputs": [],
      "stateMutability": "nonpayable",
      "type": "function"
    },
    {
      "inputs": [
        {
          "internalType": "uint256",
          "name": "_value",
          "type": "uint256"
        }
      ],
      "name": "setMinQuorum",
      "outputs": [],
      "stateMutability": "nonpayable",
      "type": "function"
    },
    {
      "inputs": [
        {
          "internalType": "bytes4",
          "name": "_interfaceId",
          "type": "bytes4"
        },
        {
          "internalType": "uint256",
          "name": "_roleId",
          "type": "uint256"
        },
        {
          "internalType": "bool",
          "name": "_isAuthorized",
          "type": "bool"
        }
      ],
      "name": "setOperator",
      "outputs": [],
      "stateMutability": "nonpayable",
      "type": "function"
    },
    {
      "inputs": [
        {
          "internalType": "uint256",
          "name": "_roleId",
          "type": "uint256"
        },
        {
          "internalType": "address",
          "name": "_authorizedAddress",
          "type": "address"
        },
        {
          "internalType": "bool",
          "name": "_isAuthorized",
          "type": "bool"
        }
      ],
      "name": "setRole",
      "outputs": [],
      "stateMutability": "nonpayable",
      "type": "function"
    },
    {
      "inputs": [
        {
          "internalType": "uint256",
          "name": "_taskId",
          "type": "uint256"
        },
        {
          "internalType": "string",
          "name": "_title",
          "type": "string"
        }
      ],
      "name": "setTitle",
      "outputs": [],
      "stateMutability": "nonpayable",
      "type": "function"
    },
    {
      "inputs": [
        {
          "internalType": "uint256",
          "name": "_taskId",
          "type": "uint256"
        },
        {
          "internalType": "uint256",
          "name": "_roleId",
          "type": "uint256"
        }
      ],
      "name": "startTask",
      "outputs": [
        {
          "internalType": "bool",
          "name": "",
          "type": "bool"
        }
      ],
      "stateMutability": "nonpayable",
      "type": "function"
    },
    {
      "inputs": [
        {
          "internalType": "bytes4",
          "name": "interfaceId",
          "type": "bytes4"
        }
      ],
      "name": "supportsInterface",
      "outputs": [
        {
          "internalType": "bool",
          "name": "",
          "type": "bool"
        }
      ],
      "stateMutability": "view",
      "type": "function"
    },
    {
      "inputs": [],
      "name": "symbol",
      "outputs": [
        {
          "internalType": "string",
          "name": "",
          "type": "string"
        }
      ],
      "stateMutability": "view",
      "type": "function"
    },
    {
      "inputs": [
        {
          "internalType": "uint256",
          "name": "tokenId",
          "type": "uint256"
        }
      ],
      "name": "tokenURI",
      "outputs": [
        {
          "internalType": "string",
          "name": "",
          "type": "string"
        }
      ],
      "stateMutability": "view",
      "type": "function"
    },
    {
      "inputs": [
        {
          "internalType": "address",
          "name": "from",
          "type": "address"
        },
        {
          "internalType": "address",
          "name": "to",
          "type": "address"
        },
        {
          "internalType": "uint256",
          "name": "tokenId",
          "type": "uint256"
        }
      ],
      "name": "transferFrom",
      "outputs": [],
      "stateMutability": "nonpayable",
      "type": "function"
    },
    {
      "inputs": [
        {
          "internalType": "uint256",
          "name": "_roleId",
          "type": "uint256"
        },
        {
          "internalType": "uint256",
          "name": "_amount",
          "type": "uint256"
        }
      ],
      "name": "withdraw",
      "outputs": [
        {
          "internalType": "bool",
          "name": "",
          "type": "bool"
        }
      ],
      "stateMutability": "nonpayable",
      "type": "function"
    }
  ],
  "bytecode": "0x60806040526002600a553480156200001657600080fd5b5060405180604001604052806008815260200167576562335461736b60c01b815250604051806040016040528060048152602001630ae66a8960e31b815250816000908162000066919062000135565b50600162000075828262000135565b5050600680546001600160a01b031916331790555062000201565b634e487b7160e01b600052604160045260246000fd5b600181811c90821680620000bb57607f821691505b602082108103620000dc57634e487b7160e01b600052602260045260246000fd5b50919050565b601f8211156200013057600081815260208120601f850160051c810160208610156200010b5750805b601f850160051c820191505b818110156200012c5782815560010162000117565b5050505b505050565b81516001600160401b0381111562000151576200015162000090565b6200016981620001628454620000a6565b84620000e2565b602080601f831160018114620001a15760008415620001885750858301515b600019600386901b1c1916600185901b1785556200012c565b600085815260208120601f198616915b82811015620001d257888601518255948401946001909101908401620001b1565b5085821015620001f15787850151600019600388901b60f8161c191681555b5050505050600190811b01905550565b61385b80620002116000396000f3fe6080604052600436106102305760003560e01c80636352211e1161012e578063b080114d116100ab578063d47875d01161006f578063d47875d0146106a9578063e610a2dd146106df578063e985e9c5146106ff578063ec2606c014610748578063f3ae70f01461076857600080fd5b8063b080114d14610616578063b6b55f2514610636578063b88d4fde14610649578063c66e954314610669578063c87b56dd1461068957600080fd5b806395d89b41116100f257806395d89b411461058c578063a053e7e9146105a1578063a22cb465146105c1578063a9b3bfa9146105e1578063ac9650d8146105f657600080fd5b80636352211e146104e157806370a0823114610501578063751e8942146105215780638da5cb5b1461054157806395d576601461055f57600080fd5b80631e010439116101bc5780634bbe46b4116101805780634bbe46b41461044c5780635102bc9d14610461578063563909de14610481578063593aa283146104a15780635af4aa05146104c157600080fd5b80631e0104391461039f57806323b872dd146103cc5780632a6446ca146103ec57806342842e0e1461040c578063441a3e701461042c57600080fd5b8063108c8ae411610203578063108c8ae4146102e657806313859688146103065780631397e04a1461032557806313e9a263146103455780631d65e77e1461037257600080fd5b806301ffc9a71461023557806306fdde031461026a578063081812fc1461028c578063095ea7b3146102c4575b600080fd5b34801561024157600080fd5b50610255610250366004612a84565b610788565b60405190151581526020015b60405180910390f35b34801561027657600080fd5b5061027f6107da565b6040516102619190612af1565b34801561029857600080fd5b506102ac6102a7366004612b04565b61086c565b6040516001600160a01b039091168152602001610261565b3480156102d057600080fd5b506102e46102df366004612b32565b610893565b005b3480156102f257600080fd5b50610255610301366004612b5e565b6109ad565b34801561031257600080fd5b506009545b604051908152602001610261565b34801561033157600080fd5b50610255610340366004612b5e565b610c98565b34801561035157600080fd5b50610365610360366004612b80565b610d93565b6040516102619190612bf4565b34801561037e57600080fd5b5061039261038d366004612b04565b610ea0565b6040516102619190612cc9565b3480156103ab57600080fd5b506103176103ba366004612b04565b6000908152600c602052604090205490565b3480156103d857600080fd5b506102e46103e7366004612d8b565b6111c2565b3480156103f857600080fd5b506102e4610407366004612e77565b6111f3565b34801561041857600080fd5b506102e4610427366004612d8b565b611254565b34801561043857600080fd5b50610255610447366004612b5e565b61126f565b34801561045857600080fd5b506102e46113e8565b34801561046d57600080fd5b506102e461047c366004612e77565b611497565b34801561048d57600080fd5b506102e461049c366004612b04565b6114ec565b3480156104ad57600080fd5b506102e46104bc366004612e77565b611554565b3480156104cd57600080fd5b506102e46104dc366004612ed2565b6115a9565b3480156104ed57600080fd5b506102ac6104fc366004612b04565b611667565b34801561050d57600080fd5b5061031761051c366004612f10565b6116c7565b34801561052d57600080fd5b506102e461053c366004612b5e565b61174d565b34801561054d57600080fd5b506006546001600160a01b03166102ac565b34801561056b57600080fd5b5061057f61057a366004612f10565b61179e565b6040516102619190612f2d565b34801561059857600080fd5b5061027f61180a565b3480156105ad57600080fd5b506102556105bc366004612f40565b611819565b3480156105cd57600080fd5b506102e46105dc366004612f5e565b611871565b3480156105ed57600080fd5b50600a54610317565b34801561060257600080fd5b50610365610611366004612b80565b611880565b34801561062257600080fd5b506102e4610631366004612f93565b61196d565b610255610644366004612b04565b611a21565b34801561065557600080fd5b506102e4610664366004612fc8565b611a73565b34801561067557600080fd5b50610255610684366004613047565b611aab565b34801561069557600080fd5b5061027f6106a4366004612b04565b611bed565b3480156106b557600080fd5b506103176106c4366004612f10565b6001600160a01b031660009081526010602052604090205490565b3480156106eb57600080fd5b506103176106fa366004613096565b611c61565b34801561070b57600080fd5b5061025561071a3660046130d1565b6001600160a01b03918216600090815260056020908152604080832093909416825291909152205460ff1690565b34801561075457600080fd5b5061025561076336600461310a565b611e85565b34801561077457600080fd5b50610255610783366004612b5e565b611edc565b60006001600160e01b031982166380ac58cd60e01b14806107b957506001600160e01b03198216635b5e139f60e01b145b806107d457506301ffc9a760e01b6001600160e01b03198316145b92915050565b6060600080546107e99061312f565b80601f01602080910402602001604051908101604052809291908181526020018280546108159061312f565b80156108625780601f1061083757610100808354040283529160200191610862565b820191906000526020600020905b81548152906001019060200180831161084557829003601f168201915b5050505050905090565b600061087782612084565b506000908152600460205260409020546001600160a01b031690565b600061089e82611667565b9050806001600160a01b0316836001600160a01b0316036109105760405162461bcd60e51b815260206004820152602160248201527f4552433732313a20617070726f76616c20746f2063757272656e74206f776e656044820152603960f91b60648201526084015b60405180910390fd5b336001600160a01b038216148061092c575061092c813361071a565b61099e5760405162461bcd60e51b815260206004820152603d60248201527f4552433732313a20617070726f76652063616c6c6572206973206e6f7420746f60448201527f6b656e206f776e6572206f7220617070726f76656420666f7220616c6c0000006064820152608401610907565b6109a883836120e6565b505050565b600063042322b960e21b82336109c38282611e85565b15806109d657506109d48383611819565b155b156109ff5760405163472511eb60e11b81526001600160a01b0382166004820152602401610907565b6000610a0a87610ea0565b9050600281516004811115610a2157610a21612c56565b14610a42578051604051633ba7bf8960e11b81526109079190600401613169565b858160c0015114610a685760405163472511eb60e11b8152336004820152602401610907565b6000878152600e6020526040902054336001600160a01b0390911603610aa357604051633512759d60e21b8152336004820152602401610907565b6000878152600e6020908152604080832080546001600160a01b03191633179055600d9091528120805491610ad78361318d565b9091555050600a546000888152600d602052604090205410610c8b576000878152600b60205260409020805460ff1916600317905560e0810151610b1b9088612154565b610b298782606001516122df565b3360009081526010602052604081208054909190610b489084906131a6565b909155505060e081015160608201516040516000926001600160a01b031691908381818185875af1925050503d8060008114610ba0576040519150601f19603f3d011682016040523d82523d6000602084013e610ba5565b606091505b50509050801580610bc757506000878152600c60205260409020546060830151115b15610c04576000878152600c602052604090819020546060840151915163cf47918160e01b81526109079290600401918252602082015260400190565b877f2da408880f35ba4c128d53d978436383214730e9e4f141928a16650273b3c32a6003604051610c359190613169565b60405180910390a28160e001516001600160a01b0316877f9da6493a92039daf47d1f2d7a782299c5994c6323eb1e972f69c432089ec52bf8460600151604051610c8191815260200190565b60405180910390a3505b5060019695505050505050565b60006309cbf02560e11b8233610cae8282611e85565b1580610cc15750610cbf8383611819565b155b15610cea5760405163472511eb60e11b81526001600160a01b0382166004820152602401610907565b6000610cf587610ea0565b9050600481516004811115610d0c57610d0c612c56565b03610d2d578051604051633ba7bf8960e11b81526109079190600401613169565b6000878152600b6020526040902080546004919060ff19166001830217905550867f2da408880f35ba4c128d53d978436383214730e9e4f141928a16650273b3c32a6004604051610d7e9190613169565b60405180910390a25060019695505050505050565b6060816001600160401b03811115610dad57610dad612dcc565b604051908082528060200260200182016040528015610de057816020015b6060815260200190600190039081610dcb5790505b50905060005b82811015610e9957600030858584818110610e0357610e036131b9565b9050602002810190610e1591906131cf565b604051610e2392919061321c565b600060405180830381855afa9150503d8060008114610e5e576040519150601f19603f3d011682016040523d82523d6000602084013e610e63565b606091505b5091505080838381518110610e7a57610e7a6131b9565b6020026020010181905250508080610e919061318d565b915050610de6565b5092915050565b610ef9604080516101208101909152806000815260200160608152602001606081526020016000815260200160008152602001606081526020016000815260200160006001600160a01b03168152602001606081525090565b6000828152600b6020526040808220815161012081019092528054829060ff166004811115610f2a57610f2a612c56565b6004811115610f3b57610f3b612c56565b8152602001600182018054610f4f9061312f565b80601f0160208091040260200160405190810160405280929190818152602001828054610f7b9061312f565b8015610fc85780601f10610f9d57610100808354040283529160200191610fc8565b820191906000526020600020905b815481529060010190602001808311610fab57829003601f168201915b50505050508152602001600282018054610fe19061312f565b80601f016020809104026020016040519081016040528092919081815260200182805461100d9061312f565b801561105a5780601f1061102f5761010080835404028352916020019161105a565b820191906000526020600020905b81548152906001019060200180831161103d57829003601f168201915b505050505081526020016003820154815260200160048201548152602001600582018054806020026020016040519081016040528092919081815260200182805480156110c657602002820191906000526020600020905b8154815260200190600101908083116110b2575b50505091835250506006820154602082015260078201546001600160a01b031660408201526008820180546060909201916111009061312f565b80601f016020809104026020016040519081016040528092919081815260200182805461112c9061312f565b80156111795780601f1061114e57610100808354040283529160200191611179565b820191906000526020600020905b81548152906001019060200180831161115c57829003601f168201915b505050505081525050905042816080015110156107d45780608001516000036111b8576040516345e2cbed60e01b815260048101849052602401610907565b6004815292915050565b6111cc3382612314565b6111e85760405162461bcd60e51b81526004016109079061322c565b6109a8838383612393565b6111fc826124f7565b6000828152600b6020526040902060020161121782826132ce565b50817ff608c377d37afaf8d19d5b32cb0cb388e64cc92b5b8e263396f34a562b99d371826040516112489190612af1565b60405180910390a25050565b6109a883838360405180602001604052806000815250611a73565b6000630441a3e760e41b83336112858282611e85565b158061129857506112968383611819565b155b156112c15760405163472511eb60e11b81526001600160a01b0382166004820152602401610907565b6000868152600c60205260409020548581101561130c576000878152600c60205260409081902054905163cf47918160e01b8152600481019190915260248101879052604401610907565b6000878152600c60205260408120805488929061132a908490613391565b9091555050604051600090339088908381818185875af1925050503d8060008114611371576040519150601f19603f3d011682016040523d82523d6000602084013e611376565b606091505b50509050806113a25760405163cf47918160e01b81526004810183905260248101889052604401610907565b604051878152339089907f9da6493a92039daf47d1f2d7a782299c5994c6323eb1e972f69c432089ec52bf906020015b60405180910390a3506001979650505050505050565b6006546001600160a01b031633146114155760405163472511eb60e11b8152336004820152602401610907565b60405133904790600081818185875af1925050503d8060008114611455576040519150601f19603f3d011682016040523d82523d6000602084013e61145a565b606091505b50506040514781523391506000907f9da6493a92039daf47d1f2d7a782299c5994c6323eb1e972f69c432089ec52bf9060200160405180910390a3565b6114a0826124f7565b6000828152600b602052604090206001016114bb82826132ce565b50817f56f46d3f19f6cbee6fd2120d9a27053b85f976606730b6c2ce520d477fae4292826040516112489190612af1565b6006546001600160a01b031633146115195760405163472511eb60e11b8152336004820152602401610907565b600a8190556040518181527ff18f88786aae85a652aadb99a82462616489a33370c9bcc7b245906812ef7cd19060200160405180910390a150565b61155d826124f7565b6000828152600b6020526040902060080161157882826132ce565b50817f459157ba24c7ab9878b165ef465fa6ae2ab42bcd8445f576be378768b0c47309826040516112489190612af1565b6006546001600160a01b031633146115d65760405163472511eb60e11b8152336004820152602401610907565b816000036115fa576040516336b242eb60e21b815260048101839052602401610907565b6001600160e01b031983166000818152600860209081526040808320868452825291829020805460ff191685151590811790915591519182528492917ff72cf37738ab1ee401cdc8f05bc3e31194ed55e5bcfd1ad48093b595c2a621d291015b60405180910390a3505050565b6000818152600260205260408120546001600160a01b0316806107d45760405162461bcd60e51b8152602060048201526018602482015277115490cdcc8c4e881a5b9d985b1a59081d1bdad95b88125160421b6044820152606401610907565b60006001600160a01b0382166117315760405162461bcd60e51b815260206004820152602960248201527f4552433732313a2061646472657373207a65726f206973206e6f7420612076616044820152683634b21037bbb732b960b91b6064820152608401610907565b506001600160a01b031660009081526003602052604090205490565b611756826124f7565b6000828152600b6020526040908190206004018290555182907f275dd536a6956e78302b90e20bb13c379fb11632284794aa77ad452d0f472a15906112489084815260200190565b6001600160a01b0381166000908152600f60209081526040918290208054835181840281018401909452808452606093928301828280156117fe57602002820191906000526020600020905b8154815260200190600101908083116117ea575b50505050509050919050565b6060600180546107e99061312f565b60003361182e6006546001600160a01b031690565b6001600160a01b031603611844575060016107d4565b506001600160e01b0319919091166000908152600860209081526040808320938352929052205460ff1690565b61187c338383612586565b5050565b6060816001600160401b0381111561189a5761189a612dcc565b6040519080825280602002602001820160405280156118cd57816020015b60608152602001906001900390816118b85790505b50905060005b82811015610e995761193d308585848181106118f1576118f16131b9565b905060200281019061190391906131cf565b8080601f01602080910402602001604051908101604052809392919081815260200183838082843760009201919091525061264c92505050565b82828151811061194f5761194f6131b9565b602002602001018190525080806119659061318d565b9150506118d3565b6006546001600160a01b0316331461199a5760405163472511eb60e11b8152336004820152602401610907565b826000036119be576040516336b242eb60e21b815260048101849052602401610907565b60008381526007602090815260408083206001600160a01b03861680855290835292819020805460ff1916851515908117909155905190815285917f394b55d0358e2f1133a0f0c1d37af480d46b61463faa7e9cee65134ccf542485910161165a565b6000818152600c6020908152604080832034908190559051908152339184917feaa18152488ce5959073c9c79c88ca90b3d96c00de1f118cfaad664c3dab06b9910160405180910390a3506001919050565b611a7d3383612314565b611a995760405162461bcd60e51b81526004016109079061322c565b611aa584848484612671565b50505050565b600063c66e954360e01b8333611ac18282611e85565b1580611ad45750611ad28383611819565b155b15611afd5760405163472511eb60e11b81526001600160a01b0382166004820152602401610907565b6000611b0888610ea0565b60e08101519091506001600160a01b03163314611b4557868160c0015114611b455760405163472511eb60e11b8152336004820152602401610907565b600181516004811115611b5a57611b5a612c56565b03611b7d576000888152600b60205260409020805460ff19166002179055611bb3565b600281516004811115611b9257611b92612c56565b14611bb3578051604051633ba7bf8960e11b81526109079190600401613169565b336001600160a01b0316887fa113d8544e03d8ca3bb9efae1a2a4ffedc87358f9cab0647fdcfbcac72f6ac83886040516113d29190612af1565b6060611bf882612084565b6000611c0f60408051602081019091526000815290565b90506000815111611c2f5760405180602001604052806000815250611c5a565b80611c39846126a4565b604051602001611c4a9291906133a4565b6040516020818303038152906040525b9392505050565b600063e610a2dd60e01b60c083013533611c7b8282611e85565b1580611c8e5750611c8c8383611819565b155b15611cb75760405163472511eb60e11b81526001600160a01b0382166004820152602401610907565b4285608001351080611cd85750611cd1426213c6806131a6565b8560800135115b15611d025760405163a32789d960e01b815260808601356004820152426024820152604401610907565b6000611d1160208701876133e0565b6004811115611d2257611d22612c56565b14611d4e57611d3460208601866133e0565b604051633ba7bf8960e11b81526004016109079190613169565b60c08501356000908152600c60205260409020546060860135811080611d7d57506509184e72a0008660600135105b15611da85760405163cf47918160e01b81526004810182905260608701356024820152604401610907565b60098054600101908190556000908152600b602052604090208690611dcd82826135ef565b5050336000908152600f602090815260408083206009805482546001810184559286528486209092019190915554835260119091529020429055611e18610100870160e08801612f10565b6001600160a01b0316336001600160a01b03166009547f487933e034710db4f40e8db61e822d2fff54215ca95e11baff632af66e1fbab689606001358a60800135604051611e70929190918252602082015260400190565b60405180910390a45050600954949350505050565b600033611e9a6006546001600160a01b031690565b6001600160a01b031603611eb0575060016107d4565b5060009182526007602090815260408084206001600160a01b0393909316845291905290205460ff1690565b6000630f3ae70f60e41b8233611ef28282611e85565b1580611f055750611f038383611819565b155b15611f2e5760405163472511eb60e11b81526001600160a01b0382166004820152602401610907565b6000611f3987610ea0565b9050600081516004811115611f5057611f50612c56565b14611f71578051604051633ba7bf8960e11b81526109079190600401613169565b611f7f8160a0015187612736565b611f9f576040516336b242eb60e21b815260048101879052602401610907565b60e08101516001600160a01b0316611fd7576000878152600b6020526040902060070180546001600160a01b03191633179055612006565b60e08101516001600160a01b031633146120065760405163472511eb60e11b8152336004820152602401610907565b6000878152600b60209081526040808320805460ff1916600190811790915560e08501516001600160a01b03168452600f835281842080549182018155845291832090910189905551339189917f51747b1d57e7c06f70f592aaaefde3fc6cd4b89a2e45b9f53126f2acf054c3d29190a35060019695505050505050565b6000818152600260205260409020546001600160a01b03166120e35760405162461bcd60e51b8152602060048201526018602482015277115490cdcc8c4e881a5b9d985b1a59081d1bdad95b88125160421b6044820152606401610907565b50565b600081815260046020526040902080546001600160a01b0319166001600160a01b038416908117909155819061211b82611667565b6001600160a01b03167f8c5be1e5ebec7d5bd14f71427d1e84f3dd0314c0f7b2291e5b200ac8c7c3b92560405160405180910390a45050565b6001600160a01b0382166121aa5760405162461bcd60e51b815260206004820181905260248201527f4552433732313a206d696e7420746f20746865207a65726f20616464726573736044820152606401610907565b6000818152600260205260409020546001600160a01b03161561220f5760405162461bcd60e51b815260206004820152601c60248201527f4552433732313a20746f6b656e20616c7265616479206d696e746564000000006044820152606401610907565b6000818152600260205260409020546001600160a01b0316156122745760405162461bcd60e51b815260206004820152601c60248201527f4552433732313a20746f6b656e20616c7265616479206d696e746564000000006044820152606401610907565b6001600160a01b038216600081815260036020908152604080832080546001019055848352600290915280822080546001600160a01b0319168417905551839291907fddf252ad1be2c89b69c2b068fc378daa952ba7f163c4a11628f55a4df523b3ef908290a45050565b60006122f16509184e72a000836136c5565b60008481526011602052604090205461230a9042613391565b611c5a9190613543565b60008061232083611667565b9050806001600160a01b0316846001600160a01b0316148061236757506001600160a01b0380821660009081526005602090815260408083209388168352929052205460ff165b8061238b5750836001600160a01b03166123808461086c565b6001600160a01b0316145b949350505050565b826001600160a01b03166123a682611667565b6001600160a01b0316146123cc5760405162461bcd60e51b8152600401610907906136e7565b6001600160a01b03821661242e5760405162461bcd60e51b8152602060048201526024808201527f4552433732313a207472616e7366657220746f20746865207a65726f206164646044820152637265737360e01b6064820152608401610907565b826001600160a01b031661244182611667565b6001600160a01b0316146124675760405162461bcd60e51b8152600401610907906136e7565b600081815260046020908152604080832080546001600160a01b03199081169091556001600160a01b0387811680865260038552838620805460001901905590871680865283862080546001019055868652600290945282852080549092168417909155905184937fddf252ad1be2c89b69c2b068fc378daa952ba7f163c4a11628f55a4df523b3ef91a4505050565b600061250282610ea0565b905060038151600481111561251957612519612c56565b1480612537575060048151600481111561253557612535612c56565b145b156125595780516040516306f4489360e11b815261090791849160040161372c565b6125678160c0015133611e85565b61187c5760405163472511eb60e11b8152336004820152602401610907565b816001600160a01b0316836001600160a01b0316036125e75760405162461bcd60e51b815260206004820152601960248201527f4552433732313a20617070726f766520746f2063616c6c6572000000000000006044820152606401610907565b6001600160a01b03838116600081815260056020908152604080832094871680845294825291829020805460ff191686151590811790915591519182527f17307eab39ab6107e8899845ad3d59bd9653f200f220920489ca2b5937696c31910161165a565b6060611c5a83836040518060600160405280602781526020016137ff6027913961277f565b61267c848484612393565b612688848484846127f7565b611aa55760405162461bcd60e51b815260040161090790613740565b606060006126b1836128f8565b60010190506000816001600160401b038111156126d0576126d0612dcc565b6040519080825280601f01601f1916602001820160405280156126fa576020820181803683370190505b5090508181016020015b600019016f181899199a1a9b1b9c1cb0b131b232b360811b600a86061a8153600a850494508461270457509392505050565b6000805b83518110156127755782848281518110612756576127566131b9565b60200260200101510361276d5760019150506107d4565b60010161273a565b5060009392505050565b6060600080856001600160a01b03168560405161279c9190613792565b600060405180830381855af49150503d80600081146127d7576040519150601f19603f3d011682016040523d82523d6000602084013e6127dc565b606091505b50915091506127ed868383876129d0565b9695505050505050565b60006001600160a01b0384163b156128ed57604051630a85bd0160e11b81526001600160a01b0385169063150b7a029061283b9033908990889088906004016137ae565b6020604051808303816000875af1925050508015612876575060408051601f3d908101601f19168201909252612873918101906137e1565b60015b6128d3573d8080156128a4576040519150601f19603f3d011682016040523d82523d6000602084013e6128a9565b606091505b5080516000036128cb5760405162461bcd60e51b815260040161090790613740565b805181602001fd5b6001600160e01b031916630a85bd0160e11b14905061238b565b506001949350505050565b60008072184f03e93ff9f4daa797ed6e38ed64bf6a1f0160401b83106129375772184f03e93ff9f4daa797ed6e38ed64bf6a1f0160401b830492506040015b6d04ee2d6d415b85acef81000000008310612963576d04ee2d6d415b85acef8100000000830492506020015b662386f26fc10000831061298157662386f26fc10000830492506010015b6305f5e1008310612999576305f5e100830492506008015b61271083106129ad57612710830492506004015b606483106129bf576064830492506002015b600a83106107d45760010192915050565b60608315612a3f578251600003612a38576001600160a01b0385163b612a385760405162461bcd60e51b815260206004820152601d60248201527f416464726573733a2063616c6c20746f206e6f6e2d636f6e74726163740000006044820152606401610907565b508161238b565b61238b8383815115612a545781518083602001fd5b8060405162461bcd60e51b81526004016109079190612af1565b6001600160e01b0319811681146120e357600080fd5b600060208284031215612a9657600080fd5b8135611c5a81612a6e565b60005b83811015612abc578181015183820152602001612aa4565b50506000910152565b60008151808452612add816020860160208601612aa1565b601f01601f19169290920160200192915050565b602081526000611c5a6020830184612ac5565b600060208284031215612b1657600080fd5b5035919050565b6001600160a01b03811681146120e357600080fd5b60008060408385031215612b4557600080fd5b8235612b5081612b1d565b946020939093013593505050565b60008060408385031215612b7157600080fd5b50508035926020909101359150565b60008060208385031215612b9357600080fd5b82356001600160401b0380821115612baa57600080fd5b818501915085601f830112612bbe57600080fd5b813581811115612bcd57600080fd5b8660208260051b8501011115612be257600080fd5b60209290920196919550909350505050565b6000602080830181845280855180835260408601915060408160051b870101925083870160005b82811015612c4957603f19888603018452612c37858351612ac5565b94509285019290850190600101612c1b565b5092979650505050505050565b634e487b7160e01b600052602160045260246000fd5b60058110612c8a57634e487b7160e01b600052602160045260246000fd5b9052565b600081518084526020808501945080840160005b83811015612cbe57815187529582019590820190600101612ca2565b509495945050505050565b60208152612cdb602082018351612c6c565b60006020830151610120806040850152612cf9610140850183612ac5565b91506040850151601f1980868503016060870152612d178483612ac5565b935060608701516080870152608087015160a087015260a08701519150808685030160c0870152612d488483612c8e565b935060c087015160e087015260e08701519150610100612d72818801846001600160a01b03169052565b8701518685039091018387015290506127ed8382612ac5565b600080600060608486031215612da057600080fd5b8335612dab81612b1d565b92506020840135612dbb81612b1d565b929592945050506040919091013590565b634e487b7160e01b600052604160045260246000fd5b60006001600160401b0380841115612dfc57612dfc612dcc565b604051601f8501601f19908116603f01168101908282118183101715612e2457612e24612dcc565b81604052809350858152868686011115612e3d57600080fd5b858560208301376000602087830101525050509392505050565b600082601f830112612e6857600080fd5b611c5a83833560208501612de2565b60008060408385031215612e8a57600080fd5b8235915060208301356001600160401b03811115612ea757600080fd5b612eb385828601612e57565b9150509250929050565b80358015158114612ecd57600080fd5b919050565b600080600060608486031215612ee757600080fd5b8335612ef281612a6e565b925060208401359150612f0760408501612ebd565b90509250925092565b600060208284031215612f2257600080fd5b8135611c5a81612b1d565b602081526000611c5a6020830184612c8e565b60008060408385031215612f5357600080fd5b8235612b5081612a6e565b60008060408385031215612f7157600080fd5b8235612f7c81612b1d565b9150612f8a60208401612ebd565b90509250929050565b600080600060608486031215612fa857600080fd5b833592506020840135612fba81612b1d565b9150612f0760408501612ebd565b60008060008060808587031215612fde57600080fd5b8435612fe981612b1d565b93506020850135612ff981612b1d565b92506040850135915060608501356001600160401b0381111561301b57600080fd5b8501601f8101871361302c57600080fd5b61303b87823560208401612de2565b91505092959194509250565b60008060006060848603121561305c57600080fd5b833592506020840135915060408401356001600160401b0381111561308057600080fd5b61308c86828701612e57565b9150509250925092565b6000602082840312156130a857600080fd5b81356001600160401b038111156130be57600080fd5b82016101208185031215611c5a57600080fd5b600080604083850312156130e457600080fd5b82356130ef81612b1d565b915060208301356130ff81612b1d565b809150509250929050565b6000806040838503121561311d57600080fd5b8235915060208301356130ff81612b1d565b600181811c9082168061314357607f821691505b60208210810361316357634e487b7160e01b600052602260045260246000fd5b50919050565b602081016107d48284612c6c565b634e487b7160e01b600052601160045260246000fd5b60006001820161319f5761319f613177565b5060010190565b808201808211156107d4576107d4613177565b634e487b7160e01b600052603260045260246000fd5b6000808335601e198436030181126131e657600080fd5b8301803591506001600160401b0382111561320057600080fd5b60200191503681900382131561321557600080fd5b9250929050565b8183823760009101908152919050565b6020808252602d908201527f4552433732313a2063616c6c6572206973206e6f7420746f6b656e206f776e6560408201526c1c881bdc88185c1c1c9bdd9959609a1b606082015260800190565b5b8181101561187c576000815560010161327a565b601f8211156109a857806000526020600020601f840160051c810160208510156132b55750805b6132c7601f850160051c830182613279565b5050505050565b81516001600160401b038111156132e7576132e7612dcc565b6132fb816132f5845461312f565b8461328e565b602080601f83116001811461333057600084156133185750858301515b600019600386901b1c1916600185901b178555613389565b600085815260208120601f198616915b8281101561335f57888601518255948401946001909101908401613340565b508582101561337d5787850151600019600388901b60f8161c191681555b505060018460011b0185555b505050505050565b818103818111156107d4576107d4613177565b600083516133b6818460208801612aa1565b8351908301906133ca818360208801612aa1565b01949350505050565b600581106120e357600080fd5b6000602082840312156133f257600080fd5b8135611c5a816133d3565b600081356107d4816133d3565b6005821061342857634e487b7160e01b600052602160045260246000fd5b60ff1981541660ff831681178255505050565b6001600160401b0383111561345257613452612dcc565b61346683613460835461312f565b8361328e565b6000601f84116001811461349a57600085156134825750838201355b600019600387901b1c1916600186901b1783556132c7565b600083815260209020601f19861690835b828110156134cb57868501358255602094850194600190920191016134ab565b50868210156134e85760001960f88860031b161c19848701351681555b505060018560011b0183555050505050565b6000808335601e1984360301811261351157600080fd5b8301803591506001600160401b0382111561352b57600080fd5b6020019150600581901b360382131561321557600080fd5b80820281158282048414176107d4576107d4613177565b6001600160401b0383111561357157613571612dcc565b6801000000000000000083111561358a5761358a612dcc565b8054838255808410156135b0578160005260206000206135ae828201868301613279565b505b50818160005260208060002060005b868110156135d957833582820155928201926001016135bf565b50505050505050565b600081356107d481612b1d565b6136016135fb836133fd565b8261340a565b61360e60208301836131cf565b61361c81836001860161343b565b505061362b60408301836131cf565b61363981836002860161343b565b5050606082013560038201556080820135600482015561365c60a08301836134fa565b61366a81836005860161355a565b505060c082013560068201556136a961368560e084016135e2565b6007830180546001600160a01b0319166001600160a01b0392909216919091179055565b6136b76101008301836131cf565b611aa581836008860161343b565b6000826136e257634e487b7160e01b600052601260045260246000fd5b500490565b60208082526025908201527f4552433732313a207472616e736665722066726f6d20696e636f72726563742060408201526437bbb732b960d91b606082015260800190565b82815260408101611c5a6020830184612c6c565b60208082526032908201527f4552433732313a207472616e7366657220746f206e6f6e20455243373231526560408201527131b2b4bb32b91034b6b83632b6b2b73a32b960711b606082015260800190565b600082516137a4818460208701612aa1565b9190910192915050565b6001600160a01b03858116825284166020820152604081018390526080606082018190526000906127ed90830184612ac5565b6000602082840312156137f357600080fd5b8151611c5a81612a6e56fe416464726573733a206c6f772d6c6576656c2064656c65676174652063616c6c206661696c6564a2646970667358221220b061eb41fbd749eaccf016fcc854894b7a64955e209d3de502e459ea6b1c031f64736f6c63430008140033",
  "linkReferences": {},
  "deployedLinkReferences": {}
}