{
  "_format": "hh-sol-artifact-1",
  "contractName": "TasksManager",
  "sourceName": "contracts/TasksManager.sol",
  "abi": [
    {
      "inputs": [
        {
          "internalType": "address",
          "name": "voter",
          "type": "address"
        }
      ],
      "name": "AlreadyVoted",
      "type": "error"
    },
    {
      "inputs": [
        {
          "internalType": "uint256",
          "name": "balance",
          "type": "uint256"
        },
        {
          "internalType": "uint256",
          "name": "withdrawAmount",
          "type": "uint256"
        }
      ],
      "name": "InsufficientBalance",
      "type": "error"
    },
    {
      "inputs": [
        {
          "internalType": "uint256",
          "name": "endDate",
          "type": "uint256"
        },
        {
          "internalType": "uint256",
          "name": "blockTimestamp",
          "type": "uint256"
        }
      ],
      "name": "InvalidEndDate",
      "type": "error"
    },
    {
      "inputs": [
        {
          "internalType": "uint256",
          "name": "roleId",
          "type": "uint256"
        }
      ],
      "name": "InvalidRoleId",
      "type": "error"
    },
    {
      "inputs": [
        {
          "internalType": "enum IWeb3Task.Status",
          "name": "status",
          "type": "uint8"
        }
      ],
      "name": "InvalidStatus",
      "type": "error"
    },
    {
      "inputs": [
        {
          "internalType": "uint256",
          "name": "taskId",
          "type": "uint256"
        }
      ],
      "name": "InvalidTaskId",
      "type": "error"
    },
    {
      "inputs": [
        {
          "internalType": "uint256",
          "name": "taskId",
          "type": "uint256"
        },
        {
          "internalType": "enum IWeb3Task.Status",
          "name": "status",
          "type": "uint8"
        }
      ],
      "name": "TaskCannotBeChanged",
      "type": "error"
    },
    {
      "inputs": [
        {
          "internalType": "address",
          "name": "operator",
          "type": "address"
        }
      ],
      "name": "Unauthorized",
      "type": "error"
    },
    {
      "anonymous": false,
      "inputs": [
        {
          "indexed": true,
          "internalType": "address",
          "name": "owner",
          "type": "address"
        },
        {
          "indexed": true,
          "internalType": "address",
          "name": "approved",
          "type": "address"
        },
        {
          "indexed": true,
          "internalType": "uint256",
          "name": "tokenId",
          "type": "uint256"
        }
      ],
      "name": "Approval",
      "type": "event"
    },
    {
      "anonymous": false,
      "inputs": [
        {
          "indexed": true,
          "internalType": "address",
          "name": "owner",
          "type": "address"
        },
        {
          "indexed": true,
          "internalType": "address",
          "name": "operator",
          "type": "address"
        },
        {
          "indexed": false,
          "internalType": "bool",
          "name": "approved",
          "type": "bool"
        }
      ],
      "name": "ApprovalForAll",
      "type": "event"
    },
    {
      "anonymous": false,
      "inputs": [
        {
          "indexed": true,
          "internalType": "bytes4",
          "name": "interfaceId",
          "type": "bytes4"
        },
        {
          "indexed": true,
          "internalType": "uint256",
          "name": "roleId",
          "type": "uint256"
        },
        {
          "indexed": false,
          "internalType": "bool",
          "name": "isAuthorized",
          "type": "bool"
        }
      ],
      "name": "AuthorizeOperator",
      "type": "event"
    },
    {
      "anonymous": false,
      "inputs": [
        {
          "indexed": true,
          "internalType": "uint256",
          "name": "roleId",
          "type": "uint256"
        },
        {
          "indexed": true,
          "internalType": "address",
          "name": "authorizedAddress",
          "type": "address"
        },
        {
          "indexed": false,
          "internalType": "bool",
          "name": "isAuthorized",
          "type": "bool"
        }
      ],
      "name": "AuthorizePersonnel",
      "type": "event"
    },
    {
      "anonymous": false,
      "inputs": [
        {
          "indexed": true,
          "internalType": "uint256",
          "name": "authorizationId",
          "type": "uint256"
        },
        {
          "indexed": true,
          "internalType": "address",
          "name": "depositor",
          "type": "address"
        },
        {
          "indexed": false,
          "internalType": "uint256",
          "name": "amount",
          "type": "uint256"
        }
      ],
      "name": "Deposit",
      "type": "event"
    },
    {
      "anonymous": false,
      "inputs": [
        {
          "indexed": true,
          "internalType": "uint256",
          "name": "taskId",
          "type": "uint256"
        },
        {
          "indexed": false,
          "internalType": "string",
          "name": "description",
          "type": "string"
        }
      ],
      "name": "DescriptionUpdated",
      "type": "event"
    },
    {
      "anonymous": false,
      "inputs": [
        {
          "indexed": true,
          "internalType": "uint256",
          "name": "taskId",
          "type": "uint256"
        },
        {
          "indexed": false,
          "internalType": "uint256",
          "name": "endDate",
          "type": "uint256"
        }
      ],
      "name": "EndDateUpdated",
      "type": "event"
    },
    {
      "anonymous": false,
      "inputs": [
        {
          "indexed": true,
          "internalType": "uint256",
          "name": "taskId",
          "type": "uint256"
        },
        {
          "indexed": false,
          "internalType": "string",
          "name": "metadata",
          "type": "string"
        }
      ],
      "name": "MetadataUpdated",
      "type": "event"
    },
    {
      "anonymous": false,
      "inputs": [
        {
          "indexed": false,
          "internalType": "uint256",
          "name": "value",
          "type": "uint256"
        }
      ],
      "name": "QuorumUpdated",
      "type": "event"
    },
    {
      "anonymous": false,
      "inputs": [
        {
          "indexed": true,
          "internalType": "uint256",
          "name": "taskId",
          "type": "uint256"
        },
        {
          "indexed": true,
          "internalType": "address",
          "name": "creator",
          "type": "address"
        },
        {
          "indexed": true,
          "internalType": "address",
          "name": "assignee",
          "type": "address"
        },
        {
          "indexed": false,
          "internalType": "uint256",
          "name": "reward",
          "type": "uint256"
        },
        {
          "indexed": false,
          "internalType": "uint256",
          "name": "endDate",
          "type": "uint256"
        }
      ],
      "name": "TaskCreated",
      "type": "event"
    },
    {
      "anonymous": false,
      "inputs": [
        {
          "indexed": true,
          "internalType": "uint256",
          "name": "taskId",
          "type": "uint256"
        },
        {
          "indexed": true,
          "internalType": "address",
          "name": "reviewer",
          "type": "address"
        },
        {
          "indexed": false,
          "internalType": "string",
          "name": "metadata",
          "type": "string"
        }
      ],
      "name": "TaskReviewed",
      "type": "event"
    },
    {
      "anonymous": false,
      "inputs": [
        {
          "indexed": true,
          "internalType": "uint256",
          "name": "taskId",
          "type": "uint256"
        },
        {
          "indexed": true,
          "internalType": "address",
          "name": "assignee",
          "type": "address"
        }
      ],
      "name": "TaskStarted",
      "type": "event"
    },
    {
      "anonymous": false,
      "inputs": [
        {
          "indexed": true,
          "internalType": "uint256",
          "name": "taskId",
          "type": "uint256"
        },
        {
          "indexed": false,
          "internalType": "enum IWeb3Task.Status",
          "name": "status",
          "type": "uint8"
        }
      ],
      "name": "TaskUpdated",
      "type": "event"
    },
    {
      "anonymous": false,
      "inputs": [
        {
          "indexed": true,
          "internalType": "uint256",
          "name": "taskId",
          "type": "uint256"
        },
        {
          "indexed": false,
          "internalType": "string",
          "name": "title",
          "type": "string"
        }
      ],
      "name": "TitleUpdated",
      "type": "event"
    },
    {
      "anonymous": false,
      "inputs": [
        {
          "indexed": true,
          "internalType": "address",
          "name": "from",
          "type": "address"
        },
        {
          "indexed": true,
          "internalType": "address",
          "name": "to",
          "type": "address"
        },
        {
          "indexed": true,
          "internalType": "uint256",
          "name": "tokenId",
          "type": "uint256"
        }
      ],
      "name": "Transfer",
      "type": "event"
    },
    {
      "anonymous": false,
      "inputs": [
        {
          "indexed": true,
          "internalType": "uint256",
          "name": "authorizationId",
          "type": "uint256"
        },
        {
          "indexed": true,
          "internalType": "address",
          "name": "withdrawer",
          "type": "address"
        },
        {
          "indexed": false,
          "internalType": "uint256",
          "name": "amount",
          "type": "uint256"
        }
      ],
      "name": "Withdraw",
      "type": "event"
    },
    {
      "inputs": [
        {
          "internalType": "address",
          "name": "to",
          "type": "address"
        },
        {
          "internalType": "uint256",
          "name": "tokenId",
          "type": "uint256"
        }
      ],
      "name": "approve",
      "outputs": [],
      "stateMutability": "nonpayable",
      "type": "function"
    },
    {
      "inputs": [
        {
          "internalType": "address",
          "name": "owner",
          "type": "address"
        }
      ],
      "name": "balanceOf",
      "outputs": [
        {
          "internalType": "uint256",
          "name": "",
          "type": "uint256"
        }
      ],
      "stateMutability": "view",
      "type": "function"
    },
    {
      "inputs": [
        {
          "internalType": "uint256",
          "name": "_taskId",
          "type": "uint256"
        },
        {
          "internalType": "uint256",
          "name": "_roleId",
          "type": "uint256"
        }
      ],
      "name": "cancelTask",
      "outputs": [
        {
          "internalType": "bool",
          "name": "",
          "type": "bool"
        }
      ],
      "stateMutability": "nonpayable",
      "type": "function"
    },
    {
      "inputs": [
        {
          "internalType": "uint256",
          "name": "_taskId",
          "type": "uint256"
        },
        {
          "internalType": "uint256",
          "name": "_roleId",
          "type": "uint256"
        }
      ],
      "name": "completeTask",
      "outputs": [
        {
          "internalType": "bool",
          "name": "",
          "type": "bool"
        }
      ],
      "stateMutability": "nonpayable",
      "type": "function"
    },
    {
      "inputs": [
        {
          "components": [
            {
              "internalType": "enum IWeb3Task.Status",
              "name": "status",
              "type": "uint8"
            },
            {
              "internalType": "string",
              "name": "title",
              "type": "string"
            },
            {
              "internalType": "string",
              "name": "description",
              "type": "string"
            },
            {
              "internalType": "uint256",
              "name": "reward",
              "type": "uint256"
            },
            {
              "internalType": "uint256",
              "name": "endDate",
              "type": "uint256"
            },
            {
              "internalType": "uint256[]",
              "name": "authorizedRoles",
              "type": "uint256[]"
            },
            {
              "internalType": "uint256",
              "name": "creatorRole",
              "type": "uint256"
            },
            {
              "internalType": "address",
              "name": "assignee",
              "type": "address"
            },
            {
              "internalType": "string",
              "name": "metadata",
              "type": "string"
            }
          ],
          "internalType": "struct IWeb3Task.Task",
          "name": "_task",
          "type": "tuple"
        }
      ],
      "name": "createTask",
      "outputs": [
        {
          "internalType": "uint256",
          "name": "",
          "type": "uint256"
        }
      ],
      "stateMutability": "nonpayable",
      "type": "function"
    },
    {
      "inputs": [
        {
          "internalType": "uint256",
          "name": "_roleId",
          "type": "uint256"
        }
      ],
      "name": "deposit",
      "outputs": [
        {
          "internalType": "bool",
          "name": "",
          "type": "bool"
        }
      ],
      "stateMutability": "payable",
      "type": "function"
    },
    {
      "inputs": [],
      "name": "emergengyWithdraw",
      "outputs": [],
      "stateMutability": "nonpayable",
      "type": "function"
    },
    {
      "inputs": [
        {
          "internalType": "uint256",
          "name": "tokenId",
          "type": "uint256"
        }
      ],
      "name": "getApproved",
      "outputs": [
        {
          "internalType": "address",
          "name": "",
          "type": "address"
        }
      ],
      "stateMutability": "view",
      "type": "function"
    },
    {
      "inputs": [
        {
          "internalType": "uint256",
          "name": "_roleId",
          "type": "uint256"
        }
      ],
      "name": "getBalance",
      "outputs": [
        {
          "internalType": "uint256",
          "name": "",
          "type": "uint256"
        }
      ],
      "stateMutability": "view",
      "type": "function"
    },
    {
      "inputs": [],
      "name": "getMinQuorum",
      "outputs": [
        {
          "internalType": "uint256",
          "name": "",
          "type": "uint256"
        }
      ],
      "stateMutability": "view",
      "type": "function"
    },
    {
      "inputs": [
        {
          "internalType": "uint256",
          "name": "_taskId",
          "type": "uint256"
        }
      ],
      "name": "getQuorumApprovals",
      "outputs": [
        {
          "internalType": "uint256",
          "name": "",
          "type": "uint256"
        }
      ],
      "stateMutability": "view",
      "type": "function"
    },
    {
      "inputs": [
        {
          "internalType": "uint256",
          "name": "_taskId",
          "type": "uint256"
        }
      ],
      "name": "getReviews",
      "outputs": [
        {
          "internalType": "string[]",
          "name": "",
          "type": "string[]"
        }
      ],
      "stateMutability": "view",
      "type": "function"
    },
    {
      "inputs": [
        {
          "internalType": "address",
          "name": "_address",
          "type": "address"
        }
      ],
      "name": "getScore",
      "outputs": [
        {
          "internalType": "uint256",
          "name": "",
          "type": "uint256"
        }
      ],
      "stateMutability": "view",
      "type": "function"
    },
    {
      "inputs": [
        {
          "internalType": "uint256",
          "name": "_taskId",
          "type": "uint256"
        }
      ],
      "name": "getTask",
      "outputs": [
        {
          "components": [
            {
              "internalType": "enum IWeb3Task.Status",
              "name": "status",
              "type": "uint8"
            },
            {
              "internalType": "string",
              "name": "title",
              "type": "string"
            },
            {
              "internalType": "string",
              "name": "description",
              "type": "string"
            },
            {
              "internalType": "uint256",
              "name": "reward",
              "type": "uint256"
            },
            {
              "internalType": "uint256",
              "name": "endDate",
              "type": "uint256"
            },
            {
              "internalType": "uint256[]",
              "name": "authorizedRoles",
              "type": "uint256[]"
            },
            {
              "internalType": "uint256",
              "name": "creatorRole",
              "type": "uint256"
            },
            {
              "internalType": "address",
              "name": "assignee",
              "type": "address"
            },
            {
              "internalType": "string",
              "name": "metadata",
              "type": "string"
            }
          ],
          "internalType": "struct IWeb3Task.Task",
          "name": "",
          "type": "tuple"
        }
      ],
      "stateMutability": "view",
      "type": "function"
    },
    {
      "inputs": [],
      "name": "getTaskId",
      "outputs": [
        {
          "internalType": "uint256",
          "name": "",
          "type": "uint256"
        }
      ],
      "stateMutability": "view",
      "type": "function"
    },
    {
      "inputs": [
        {
          "internalType": "address",
          "name": "_address",
          "type": "address"
        }
      ],
      "name": "getUserTasks",
      "outputs": [
        {
          "internalType": "uint256[]",
          "name": "",
          "type": "uint256[]"
        }
      ],
      "stateMutability": "view",
      "type": "function"
    },
    {
      "inputs": [
        {
          "internalType": "uint256",
          "name": "_roleId",
          "type": "uint256"
        },
        {
          "internalType": "address",
          "name": "_address",
          "type": "address"
        }
      ],
      "name": "hasRole",
      "outputs": [
        {
          "internalType": "bool",
          "name": "",
          "type": "bool"
        }
      ],
      "stateMutability": "view",
      "type": "function"
    },
    {
      "inputs": [
        {
          "internalType": "uint256",
          "name": "_taskId",
          "type": "uint256"
        },
        {
          "internalType": "address",
          "name": "_addr",
          "type": "address"
        }
      ],
      "name": "hasVoted",
      "outputs": [
        {
          "internalType": "bool",
          "name": "",
          "type": "bool"
        }
      ],
      "stateMutability": "view",
      "type": "function"
    },
    {
      "inputs": [
        {
          "internalType": "address",
          "name": "owner",
          "type": "address"
        },
        {
          "internalType": "address",
          "name": "operator",
          "type": "address"
        }
      ],
      "name": "isApprovedForAll",
      "outputs": [
        {
          "internalType": "bool",
          "name": "",
          "type": "bool"
        }
      ],
      "stateMutability": "view",
      "type": "function"
    },
    {
      "inputs": [
        {
          "internalType": "bytes4",
          "name": "_interfaceId",
          "type": "bytes4"
        },
        {
          "internalType": "uint256",
          "name": "_roleId",
          "type": "uint256"
        }
      ],
      "name": "isOperator",
      "outputs": [
        {
          "internalType": "bool",
          "name": "",
          "type": "bool"
        }
      ],
      "stateMutability": "view",
      "type": "function"
    },
    {
      "inputs": [
        {
          "internalType": "bytes[]",
          "name": "data",
          "type": "bytes[]"
        }
      ],
      "name": "multicall",
      "outputs": [
        {
          "internalType": "bytes[]",
          "name": "results",
          "type": "bytes[]"
        }
      ],
      "stateMutability": "nonpayable",
      "type": "function"
    },
    {
      "inputs": [
        {
          "internalType": "bytes[]",
          "name": "data",
          "type": "bytes[]"
        }
      ],
      "name": "multicallRead",
      "outputs": [
        {
          "internalType": "bytes[]",
          "name": "results",
          "type": "bytes[]"
        }
      ],
      "stateMutability": "view",
      "type": "function"
    },
    {
      "inputs": [],
      "name": "name",
      "outputs": [
        {
          "internalType": "string",
          "name": "",
          "type": "string"
        }
      ],
      "stateMutability": "view",
      "type": "function"
    },
    {
      "inputs": [],
      "name": "owner",
      "outputs": [
        {
          "internalType": "address",
          "name": "",
          "type": "address"
        }
      ],
      "stateMutability": "view",
      "type": "function"
    },
    {
      "inputs": [
        {
          "internalType": "uint256",
          "name": "tokenId",
          "type": "uint256"
        }
      ],
      "name": "ownerOf",
      "outputs": [
        {
          "internalType": "address",
          "name": "",
          "type": "address"
        }
      ],
      "stateMutability": "view",
      "type": "function"
    },
    {
      "inputs": [
        {
          "internalType": "uint256",
          "name": "_taskId",
          "type": "uint256"
        },
        {
          "internalType": "uint256",
          "name": "_roleId",
          "type": "uint256"
        },
        {
          "internalType": "string",
          "name": "_metadata",
          "type": "string"
        }
      ],
      "name": "reviewTask",
      "outputs": [
        {
          "internalType": "bool",
          "name": "",
          "type": "bool"
        }
      ],
      "stateMutability": "nonpayable",
      "type": "function"
    },
    {
      "inputs": [
        {
          "internalType": "address",
          "name": "from",
          "type": "address"
        },
        {
          "internalType": "address",
          "name": "to",
          "type": "address"
        },
        {
          "internalType": "uint256",
          "name": "tokenId",
          "type": "uint256"
        }
      ],
      "name": "safeTransferFrom",
      "outputs": [],
      "stateMutability": "nonpayable",
      "type": "function"
    },
    {
      "inputs": [
        {
          "internalType": "address",
          "name": "from",
          "type": "address"
        },
        {
          "internalType": "address",
          "name": "to",
          "type": "address"
        },
        {
          "internalType": "uint256",
          "name": "tokenId",
          "type": "uint256"
        },
        {
          "internalType": "bytes",
          "name": "data",
          "type": "bytes"
        }
      ],
      "name": "safeTransferFrom",
      "outputs": [],
      "stateMutability": "nonpayable",
      "type": "function"
    },
    {
      "inputs": [
        {
          "internalType": "address",
          "name": "operator",
          "type": "address"
        },
        {
          "internalType": "bool",
          "name": "approved",
          "type": "bool"
        }
      ],
      "name": "setApprovalForAll",
      "outputs": [],
      "stateMutability": "nonpayable",
      "type": "function"
    },
    {
      "inputs": [
        {
          "internalType": "uint256",
          "name": "_taskId",
          "type": "uint256"
        },
        {
          "internalType": "string",
          "name": "_description",
          "type": "string"
        }
      ],
      "name": "setDescription",
      "outputs": [],
      "stateMutability": "nonpayable",
      "type": "function"
    },
    {
      "inputs": [
        {
          "internalType": "uint256",
          "name": "_taskId",
          "type": "uint256"
        },
        {
          "internalType": "uint256",
          "name": "_endDate",
          "type": "uint256"
        }
      ],
      "name": "setEndDate",
      "outputs": [],
      "stateMutability": "nonpayable",
      "type": "function"
    },
    {
      "inputs": [
        {
          "internalType": "uint256",
          "name": "_taskId",
          "type": "uint256"
        },
        {
          "internalType": "string",
          "name": "_metadata",
          "type": "string"
        }
      ],
      "name": "setMetadata",
      "outputs": [],
      "stateMutability": "nonpayable",
      "type": "function"
    },
    {
      "inputs": [
        {
          "internalType": "uint256",
          "name": "_value",
          "type": "uint256"
        }
      ],
      "name": "setMinQuorum",
      "outputs": [],
      "stateMutability": "nonpayable",
      "type": "function"
    },
    {
      "inputs": [
        {
          "internalType": "bytes4",
          "name": "_interfaceId",
          "type": "bytes4"
        },
        {
          "internalType": "uint256",
          "name": "_roleId",
          "type": "uint256"
        },
        {
          "internalType": "bool",
          "name": "_isAuthorized",
          "type": "bool"
        }
      ],
      "name": "setOperator",
      "outputs": [],
      "stateMutability": "nonpayable",
      "type": "function"
    },
    {
      "inputs": [
        {
          "internalType": "uint256",
          "name": "_roleId",
          "type": "uint256"
        },
        {
          "internalType": "address",
          "name": "_authorizedAddress",
          "type": "address"
        },
        {
          "internalType": "bool",
          "name": "_isAuthorized",
          "type": "bool"
        }
      ],
      "name": "setRole",
      "outputs": [],
      "stateMutability": "nonpayable",
      "type": "function"
    },
    {
      "inputs": [
        {
          "internalType": "uint256",
          "name": "_taskId",
          "type": "uint256"
        },
        {
          "internalType": "string",
          "name": "_title",
          "type": "string"
        }
      ],
      "name": "setTitle",
      "outputs": [],
      "stateMutability": "nonpayable",
      "type": "function"
    },
    {
      "inputs": [
        {
          "internalType": "uint256",
          "name": "_taskId",
          "type": "uint256"
        },
        {
          "internalType": "uint256",
          "name": "_roleId",
          "type": "uint256"
        }
      ],
      "name": "startTask",
      "outputs": [
        {
          "internalType": "bool",
          "name": "",
          "type": "bool"
        }
      ],
      "stateMutability": "nonpayable",
      "type": "function"
    },
    {
      "inputs": [
        {
          "internalType": "bytes4",
          "name": "interfaceId",
          "type": "bytes4"
        }
      ],
      "name": "supportsInterface",
      "outputs": [
        {
          "internalType": "bool",
          "name": "",
          "type": "bool"
        }
      ],
      "stateMutability": "view",
      "type": "function"
    },
    {
      "inputs": [],
      "name": "symbol",
      "outputs": [
        {
          "internalType": "string",
          "name": "",
          "type": "string"
        }
      ],
      "stateMutability": "view",
      "type": "function"
    },
    {
      "inputs": [
        {
          "internalType": "uint256",
          "name": "tokenId",
          "type": "uint256"
        }
      ],
      "name": "tokenURI",
      "outputs": [
        {
          "internalType": "string",
          "name": "",
          "type": "string"
        }
      ],
      "stateMutability": "view",
      "type": "function"
    },
    {
      "inputs": [
        {
          "internalType": "address",
          "name": "from",
          "type": "address"
        },
        {
          "internalType": "address",
          "name": "to",
          "type": "address"
        },
        {
          "internalType": "uint256",
          "name": "tokenId",
          "type": "uint256"
        }
      ],
      "name": "transferFrom",
      "outputs": [],
      "stateMutability": "nonpayable",
      "type": "function"
    },
    {
      "inputs": [
        {
          "internalType": "uint256",
          "name": "_roleId",
          "type": "uint256"
        },
        {
          "internalType": "uint256",
          "name": "_amount",
          "type": "uint256"
        }
      ],
      "name": "withdraw",
      "outputs": [
        {
          "internalType": "bool",
          "name": "",
          "type": "bool"
        }
      ],
      "stateMutability": "nonpayable",
      "type": "function"
    }
  ],
  "bytecode": "0x60806040526002600a553480156200001657600080fd5b5060405180604001604052806008815260200167576562335461736b60c01b815250604051806040016040528060048152602001630ae66a8960e31b815250816000908162000066919062000135565b50600162000075828262000135565b5050600680546001600160a01b031916331790555062000201565b634e487b7160e01b600052604160045260246000fd5b600181811c90821680620000bb57607f821691505b602082108103620000dc57634e487b7160e01b600052602260045260246000fd5b50919050565b601f8211156200013057600081815260208120601f850160051c810160208610156200010b5750805b601f850160051c820191505b818110156200012c5782815560010162000117565b5050505b505050565b81516001600160401b0381111562000151576200015162000090565b6200016981620001628454620000a6565b84620000e2565b602080601f831160018114620001a15760008415620001885750858301515b600019600386901b1c1916600185901b1785556200012c565b600085815260208120601f198616915b82811015620001d257888601518255948401946001909101908401620001b1565b5085821015620001f15787850151600019600388901b60f8161c191681555b5050505050600190811b01905550565b613b0080620002116000396000f3fe6080604052600436106102515760003560e01c806363ef837211610139578063ac9650d8116100b6578063c87b56dd1161007a578063c87b56dd1461074a578063d47875d01461076a578063e610a2dd146107a0578063e985e9c5146107c0578063ec2606c014610809578063f3ae70f01461082957600080fd5b8063ac9650d8146106b7578063b080114d146106d7578063b6b55f25146106f7578063b88d4fde1461070a578063c66e95431461072a57600080fd5b806395d89b41116100fd57806395d89b41146106205780639d4a225514610635578063a053e7e914610662578063a22cb46514610682578063a9b3bfa9146106a257600080fd5b806363ef83721461056857806370a0823114610595578063751e8942146105b55780638da5cb5b146105d557806395d57660146105f357600080fd5b806323b872dd116101d25780634bbe46b4116101965780634bbe46b4146104b35780635102bc9d146104c8578063563909de146104e8578063593aa283146105085780635af4aa05146105285780636352211e1461054857600080fd5b806323b872dd146103ed5780632a6446ca1461040d57806342842e0e1461042d578063438596321461044d578063441a3e701461049357600080fd5b8063138596881161021957806313859688146103275780631397e04a1461034657806313e9a263146103665780631d65e77e146103935780631e010439146103c057600080fd5b806301ffc9a71461025657806306fdde031461028b578063081812fc146102ad578063095ea7b3146102e5578063108c8ae414610307575b600080fd5b34801561026257600080fd5b50610276610271366004612cd4565b610849565b60405190151581526020015b60405180910390f35b34801561029757600080fd5b506102a061089b565b6040516102829190612d41565b3480156102b957600080fd5b506102cd6102c8366004612d54565b61092d565b6040516001600160a01b039091168152602001610282565b3480156102f157600080fd5b50610305610300366004612d82565b610954565b005b34801561031357600080fd5b50610276610322366004612dae565b610a6e565b34801561033357600080fd5b506009545b604051908152602001610282565b34801561035257600080fd5b50610276610361366004612dae565b610d44565b34801561037257600080fd5b50610386610381366004612dd0565b610e83565b6040516102829190612e44565b34801561039f57600080fd5b506103b36103ae366004612d54565b610f90565b6040516102829190612f19565b3480156103cc57600080fd5b506103386103db366004612d54565b6000908152600c602052604090205490565b3480156103f957600080fd5b50610305610408366004612fdb565b6112cc565b34801561041957600080fd5b506103056104283660046130c7565b6112fd565b34801561043957600080fd5b50610305610448366004612fdb565b61135e565b34801561045957600080fd5b5061027661046836600461310d565b6000918252600e602090815260408084206001600160a01b0393909316845291905290205460ff1690565b34801561049f57600080fd5b506102766104ae366004612dae565b611379565b3480156104bf57600080fd5b506103056114f2565b3480156104d457600080fd5b506103056104e33660046130c7565b6115a1565b3480156104f457600080fd5b50610305610503366004612d54565b6115f6565b34801561051457600080fd5b506103056105233660046130c7565b6116a7565b34801561053457600080fd5b50610305610543366004613152565b6116fc565b34801561055457600080fd5b506102cd610563366004612d54565b61178d565b34801561057457600080fd5b50610338610583366004612d54565b6000908152600d602052604090205490565b3480156105a157600080fd5b506103386105b0366004613190565b6117ed565b3480156105c157600080fd5b506103056105d0366004612dae565b611873565b3480156105e157600080fd5b506006546001600160a01b03166102cd565b3480156105ff57600080fd5b5061061361060e366004613190565b6118c4565b60405161028291906131ad565b34801561062c57600080fd5b506102a0611930565b34801561064157600080fd5b50610655610650366004612d54565b61193f565b60405161028291906131c0565b34801561066e57600080fd5b5061027661067d366004613215565b611a2b565b34801561068e57600080fd5b5061030561069d366004613233565b611a83565b3480156106ae57600080fd5b50600a54610338565b3480156106c357600080fd5b506103866106d2366004612dd0565b611a92565b3480156106e357600080fd5b506103056106f2366004613268565b611b7f565b610276610705366004612d54565b611c06565b34801561071657600080fd5b5061030561072536600461329d565b611c58565b34801561073657600080fd5b5061027661074536600461331c565b611c90565b34801561075657600080fd5b506102a0610765366004612d54565b611dfb565b34801561077657600080fd5b50610338610785366004613190565b6001600160a01b031660009081526012602052604090205490565b3480156107ac57600080fd5b506103386107bb36600461336b565b611e6f565b3480156107cc57600080fd5b506102766107db3660046133a6565b6001600160a01b03918216600090815260056020908152604080832093909416825291909152205460ff1690565b34801561081557600080fd5b5061027661082436600461310d565b612079565b34801561083557600080fd5b50610276610844366004612dae565b6120d0565b60006001600160e01b031982166380ac58cd60e01b148061087a57506001600160e01b03198216635b5e139f60e01b145b8061089557506301ffc9a760e01b6001600160e01b03198316145b92915050565b6060600080546108aa906133d4565b80601f01602080910402602001604051908101604052809291908181526020018280546108d6906133d4565b80156109235780601f106108f857610100808354040283529160200191610923565b820191906000526020600020905b81548152906001019060200180831161090657829003601f168201915b5050505050905090565b600061093882612278565b506000908152600460205260409020546001600160a01b031690565b600061095f8261178d565b9050806001600160a01b0316836001600160a01b0316036109d15760405162461bcd60e51b815260206004820152602160248201527f4552433732313a20617070726f76616c20746f2063757272656e74206f776e656044820152603960f91b60648201526084015b60405180910390fd5b336001600160a01b03821614806109ed57506109ed81336107db565b610a5f5760405162461bcd60e51b815260206004820152603d60248201527f4552433732313a20617070726f76652063616c6c6572206973206e6f7420746f60448201527f6b656e206f776e6572206f7220617070726f76656420666f7220616c6c00000060648201526084016109c8565b610a6983836122da565b505050565b600063042322b960e21b8233610a848282612079565b1580610a975750610a958383611a2b565b155b15610ac05760405163472511eb60e11b81526001600160a01b03821660048201526024016109c8565b6000610acb87610f90565b9050600281516004811115610ae257610ae2612ea6565b14610b03578051604051633ba7bf8960e11b81526109c8919060040161340e565b858160c0015114610b295760405163472511eb60e11b81523360048201526024016109c8565b6000878152600e6020908152604080832033845290915290205460ff1615610b6657604051633512759d60e21b81523360048201526024016109c8565b6000878152600e602090815260408083203384528252808320805460ff19166001179055898352600d9091528120805491610ba083613432565b9091555050600a546000888152600d602052604090205410610d37576000878152600b60205260409020805460ff1916600317905560e0810151610be49088612348565b610bf78782606001518360e001516124d3565b60008160e001516001600160a01b0316826060015160405160006040518083038185875af1925050503d8060008114610c4c576040519150601f19603f3d011682016040523d82523d6000602084013e610c51565b606091505b50509050801580610c7357506000878152600c60205260409020546060830151115b15610cb0576000878152600c602052604090819020546060840151915163cf47918160e01b81526109c89290600401918252602082015260400190565b877f2da408880f35ba4c128d53d978436383214730e9e4f141928a16650273b3c32a6003604051610ce1919061340e565b60405180910390a28160e001516001600160a01b0316877f9da6493a92039daf47d1f2d7a782299c5994c6323eb1e972f69c432089ec52bf8460600151604051610d2d91815260200190565b60405180910390a3505b5060019695505050505050565b60006309cbf02560e11b8233610d5a8282612079565b1580610d6d5750610d6b8383611a2b565b155b15610d965760405163472511eb60e11b81526001600160a01b03821660048201526024016109c8565b6000610da187610f90565b9050600481516004811115610db857610db8612ea6565b1480610dd65750600381516004811115610dd457610dd4612ea6565b145b15610df7578051604051633ba7bf8960e11b81526109c8919060040161340e565b858160c0015114610e1d5760405163472511eb60e11b81523360048201526024016109c8565b6000878152600b6020526040902080546004919060ff19166001830217905550867f2da408880f35ba4c128d53d978436383214730e9e4f141928a16650273b3c32a6004604051610e6e919061340e565b60405180910390a25060019695505050505050565b6060816001600160401b03811115610e9d57610e9d61301c565b604051908082528060200260200182016040528015610ed057816020015b6060815260200190600190039081610ebb5790505b50905060005b82811015610f8957600030858584818110610ef357610ef361344b565b9050602002810190610f059190613461565b604051610f139291906134ae565b600060405180830381855afa9150503d8060008114610f4e576040519150601f19603f3d011682016040523d82523d6000602084013e610f53565b606091505b5091505080838381518110610f6a57610f6a61344b565b6020026020010181905250508080610f8190613432565b915050610ed6565b5092915050565b610fe9604080516101208101909152806000815260200160608152602001606081526020016000815260200160008152602001606081526020016000815260200160006001600160a01b03168152602001606081525090565b6000828152600b6020526040808220815161012081019092528054829060ff16600481111561101a5761101a612ea6565b600481111561102b5761102b612ea6565b815260200160018201805461103f906133d4565b80601f016020809104026020016040519081016040528092919081815260200182805461106b906133d4565b80156110b85780601f1061108d576101008083540402835291602001916110b8565b820191906000526020600020905b81548152906001019060200180831161109b57829003601f168201915b505050505081526020016002820180546110d1906133d4565b80601f01602080910402602001604051908101604052809291908181526020018280546110fd906133d4565b801561114a5780601f1061111f5761010080835404028352916020019161114a565b820191906000526020600020905b81548152906001019060200180831161112d57829003601f168201915b505050505081526020016003820154815260200160048201548152602001600582018054806020026020016040519081016040528092919081815260200182805480156111b657602002820191906000526020600020905b8154815260200190600101908083116111a2575b50505091835250506006820154602082015260078201546001600160a01b031660408201526008820180546060909201916111f0906133d4565b80601f016020809104026020016040519081016040528092919081815260200182805461121c906133d4565b80156112695780601f1061123e57610100808354040283529160200191611269565b820191906000526020600020905b81548152906001019060200180831161124c57829003601f168201915b505050505081525050905042816080015110156108955780608001516000036112a8576040516345e2cbed60e01b8152600481018490526024016109c8565b6003815160048111156112bd576112bd612ea6565b14610895576004815292915050565b6112d63382612564565b6112f25760405162461bcd60e51b81526004016109c8906134be565b610a698383836125e3565b61130682612747565b6000828152600b602052604090206002016113218282613560565b50817ff608c377d37afaf8d19d5b32cb0cb388e64cc92b5b8e263396f34a562b99d371826040516113529190612d41565b60405180910390a25050565b610a6983838360405180602001604052806000815250611c58565b6000630441a3e760e41b833361138f8282612079565b15806113a257506113a08383611a2b565b155b156113cb5760405163472511eb60e11b81526001600160a01b03821660048201526024016109c8565b6000868152600c602052604090205485811015611416576000878152600c60205260409081902054905163cf47918160e01b81526004810191909152602481018790526044016109c8565b6000878152600c602052604081208054889290611434908490613623565b9091555050604051600090339088908381818185875af1925050503d806000811461147b576040519150601f19603f3d011682016040523d82523d6000602084013e611480565b606091505b50509050806114ac5760405163cf47918160e01b815260048101839052602481018890526044016109c8565b604051878152339089907f9da6493a92039daf47d1f2d7a782299c5994c6323eb1e972f69c432089ec52bf906020015b60405180910390a3506001979650505050505050565b6006546001600160a01b0316331461151f5760405163472511eb60e11b81523360048201526024016109c8565b60405133904790600081818185875af1925050503d806000811461155f576040519150601f19603f3d011682016040523d82523d6000602084013e611564565b606091505b50506040514781523391506000907f9da6493a92039daf47d1f2d7a782299c5994c6323eb1e972f69c432089ec52bf9060200160405180910390a3565b6115aa82612747565b6000828152600b602052604090206001016115c58282613560565b50817f56f46d3f19f6cbee6fd2120d9a27053b85f976606730b6c2ce520d477fae4292826040516113529190612d41565b6006546001600160a01b031633146116235760405163472511eb60e11b81523360048201526024016109c8565b8060000361166c5760405162461bcd60e51b8152602060048201526016602482015275496e76616c6964206d696e696d756d2071756f72756d60501b60448201526064016109c8565b600a8190556040518181527ff18f88786aae85a652aadb99a82462616489a33370c9bcc7b245906812ef7cd19060200160405180910390a150565b6116b082612747565b6000828152600b602052604090206008016116cb8282613560565b50817f459157ba24c7ab9878b165ef465fa6ae2ab42bcd8445f576be378768b0c47309826040516113529190612d41565b81600003611720576040516336b242eb60e21b8152600481018390526024016109c8565b6001600160e01b031983166000818152600860209081526040808320868452825291829020805460ff191685151590811790915591519182528492917ff72cf37738ab1ee401cdc8f05bc3e31194ed55e5bcfd1ad48093b595c2a621d291015b60405180910390a3505050565b6000818152600260205260408120546001600160a01b0316806108955760405162461bcd60e51b8152602060048201526018602482015277115490cdcc8c4e881a5b9d985b1a59081d1bdad95b88125160421b60448201526064016109c8565b60006001600160a01b0382166118575760405162461bcd60e51b815260206004820152602960248201527f4552433732313a2061646472657373207a65726f206973206e6f7420612076616044820152683634b21037bbb732b960b91b60648201526084016109c8565b506001600160a01b031660009081526003602052604090205490565b61187c82612747565b6000828152600b6020526040908190206004018290555182907f275dd536a6956e78302b90e20bb13c379fb11632284794aa77ad452d0f472a15906113529084815260200190565b6001600160a01b0381166000908152600f602090815260409182902080548351818402810184019094528084526060939283018282801561192457602002820191906000526020600020905b815481526020019060010190808311611910575b50505050509050919050565b6060600180546108aa906133d4565b606060106000838152602001908152602001600020805480602002602001604051908101604052809291908181526020016000905b82821015611a20578382906000526020600020018054611993906133d4565b80601f01602080910402602001604051908101604052809291908181526020018280546119bf906133d4565b8015611a0c5780601f106119e157610100808354040283529160200191611a0c565b820191906000526020600020905b8154815290600101906020018083116119ef57829003601f168201915b505050505081526020019060010190611974565b505050509050919050565b600033611a406006546001600160a01b031690565b6001600160a01b031603611a5657506001610895565b506001600160e01b0319919091166000908152600860209081526040808320938352929052205460ff1690565b611a8e3383836127d6565b5050565b6060816001600160401b03811115611aac57611aac61301c565b604051908082528060200260200182016040528015611adf57816020015b6060815260200190600190039081611aca5790505b50905060005b82811015610f8957611b4f30858584818110611b0357611b0361344b565b9050602002810190611b159190613461565b8080601f01602080910402602001604051908101604052809392919081815260200183838082843760009201919091525061289c92505050565b828281518110611b6157611b6161344b565b60200260200101819052508080611b7790613432565b915050611ae5565b82600003611ba3576040516336b242eb60e21b8152600481018490526024016109c8565b60008381526007602090815260408083206001600160a01b03861680855290835292819020805460ff1916851515908117909155905190815285917f394b55d0358e2f1133a0f0c1d37af480d46b61463faa7e9cee65134ccf5424859101611780565b6000818152600c6020908152604080832034908190559051908152339184917feaa18152488ce5959073c9c79c88ca90b3d96c00de1f118cfaad664c3dab06b9910160405180910390a3506001919050565b611c623383612564565b611c7e5760405162461bcd60e51b81526004016109c8906134be565b611c8a848484846128c1565b50505050565b600063c66e954360e01b8333611ca68282612079565b1580611cb95750611cb78383611a2b565b155b15611ce25760405163472511eb60e11b81526001600160a01b03821660048201526024016109c8565b6000611ced88610f90565b60e08101519091506001600160a01b03163314611d2a57868160c0015114611d2a5760405163472511eb60e11b81523360048201526024016109c8565b600181516004811115611d3f57611d3f612ea6565b03611d62576000888152600b60205260409020805460ff19166002179055611d98565b600281516004811115611d7757611d77612ea6565b14611d98578051604051633ba7bf8960e11b81526109c8919060040161340e565b600088815260106020908152604082208054600181018255908352912001611dc08782613560565b50336001600160a01b0316887fa113d8544e03d8ca3bb9efae1a2a4ffedc87358f9cab0647fdcfbcac72f6ac83886040516114dc9190612d41565b6060611e0682612278565b6000611e1d60408051602081019091526000815290565b90506000815111611e3d5760405180602001604052806000815250611e68565b80611e47846128f4565b604051602001611e58929190613636565b6040516020818303038152906040525b9392505050565b600063e610a2dd60e01b60c083013533611e898282612079565b1580611e9c5750611e9a8383611a2b565b155b15611ec55760405163472511eb60e11b81526001600160a01b03821660048201526024016109c8565b4285608001351015611ef65760405163a32789d960e01b8152608086013560048201524260248201526044016109c8565b6000611f056020870187613672565b6004811115611f1657611f16612ea6565b14611f4257611f286020860186613672565b604051633ba7bf8960e11b81526004016109c8919061340e565b60c08501356000908152600c60205260409020546060860135811080611f7157506509184e72a0008660600135105b15611f9c5760405163cf47918160e01b815260048101829052606087013560248201526044016109c8565b60098054600101908190556000908152600b602052604090208690611fc18282613881565b5050336000908152600f60209081526040808320600980548254600181018455928652848620909201919091555483526011909152902042905561200c610100870160e08801613190565b6001600160a01b0316336001600160a01b03166009547f487933e034710db4f40e8db61e822d2fff54215ca95e11baff632af66e1fbab689606001358a60800135604051612064929190918252602082015260400190565b60405180910390a45050600954949350505050565b60003361208e6006546001600160a01b031690565b6001600160a01b0316036120a457506001610895565b5060009182526007602090815260408084206001600160a01b0393909316845291905290205460ff1690565b6000630f3ae70f60e41b82336120e68282612079565b15806120f957506120f78383611a2b565b155b156121225760405163472511eb60e11b81526001600160a01b03821660048201526024016109c8565b600061212d87610f90565b905060008151600481111561214457612144612ea6565b14612165578051604051633ba7bf8960e11b81526109c8919060040161340e565b6121738160a0015187612986565b612193576040516336b242eb60e21b8152600481018790526024016109c8565b60e08101516001600160a01b03166121cb576000878152600b6020526040902060070180546001600160a01b031916331790556121fa565b60e08101516001600160a01b031633146121fa5760405163472511eb60e11b81523360048201526024016109c8565b6000878152600b60209081526040808320805460ff1916600190811790915560e08501516001600160a01b03168452600f835281842080549182018155845291832090910189905551339189917f51747b1d57e7c06f70f592aaaefde3fc6cd4b89a2e45b9f53126f2acf054c3d29190a35060019695505050505050565b6000818152600260205260409020546001600160a01b03166122d75760405162461bcd60e51b8152602060048201526018602482015277115490cdcc8c4e881a5b9d985b1a59081d1bdad95b88125160421b60448201526064016109c8565b50565b600081815260046020526040902080546001600160a01b0319166001600160a01b038416908117909155819061230f8261178d565b6001600160a01b03167f8c5be1e5ebec7d5bd14f71427d1e84f3dd0314c0f7b2291e5b200ac8c7c3b92560405160405180910390a45050565b6001600160a01b03821661239e5760405162461bcd60e51b815260206004820181905260248201527f4552433732313a206d696e7420746f20746865207a65726f206164647265737360448201526064016109c8565b6000818152600260205260409020546001600160a01b0316156124035760405162461bcd60e51b815260206004820152601c60248201527f4552433732313a20746f6b656e20616c7265616479206d696e7465640000000060448201526064016109c8565b6000818152600260205260409020546001600160a01b0316156124685760405162461bcd60e51b815260206004820152601c60248201527f4552433732313a20746f6b656e20616c7265616479206d696e7465640000000060448201526064016109c8565b6001600160a01b038216600081815260036020908152604080832080546001019055848352600290915280822080546001600160a01b0319168417905551839291907fddf252ad1be2c89b69c2b068fc378daa952ba7f163c4a11628f55a4df523b3ef908290a45050565b60006124e56509184e72a00084613957565b6000858152601160205260409020546124fe9042613623565b61250891906137d5565b6001600160a01b038316600090815260126020526040812080549293508392909190612535908490613979565b90915550503360009081526012602052604081208054839290612559908490613979565b909155505050505050565b6000806125708361178d565b9050806001600160a01b0316846001600160a01b031614806125b757506001600160a01b0380821660009081526005602090815260408083209388168352929052205460ff165b806125db5750836001600160a01b03166125d08461092d565b6001600160a01b0316145b949350505050565b826001600160a01b03166125f68261178d565b6001600160a01b03161461261c5760405162461bcd60e51b81526004016109c89061398c565b6001600160a01b03821661267e5760405162461bcd60e51b8152602060048201526024808201527f4552433732313a207472616e7366657220746f20746865207a65726f206164646044820152637265737360e01b60648201526084016109c8565b826001600160a01b03166126918261178d565b6001600160a01b0316146126b75760405162461bcd60e51b81526004016109c89061398c565b600081815260046020908152604080832080546001600160a01b03199081169091556001600160a01b0387811680865260038552838620805460001901905590871680865283862080546001019055868652600290945282852080549092168417909155905184937fddf252ad1be2c89b69c2b068fc378daa952ba7f163c4a11628f55a4df523b3ef91a4505050565b600061275282610f90565b905060038151600481111561276957612769612ea6565b1480612787575060048151600481111561278557612785612ea6565b145b156127a95780516040516306f4489360e11b81526109c89184916004016139d1565b6127b78160c0015133612079565b611a8e5760405163472511eb60e11b81523360048201526024016109c8565b816001600160a01b0316836001600160a01b0316036128375760405162461bcd60e51b815260206004820152601960248201527f4552433732313a20617070726f766520746f2063616c6c65720000000000000060448201526064016109c8565b6001600160a01b03838116600081815260056020908152604080832094871680845294825291829020805460ff191686151590811790915591519182527f17307eab39ab6107e8899845ad3d59bd9653f200f220920489ca2b5937696c319101611780565b6060611e688383604051806060016040528060278152602001613aa4602791396129cf565b6128cc8484846125e3565b6128d884848484612a47565b611c8a5760405162461bcd60e51b81526004016109c8906139e5565b6060600061290183612b48565b60010190506000816001600160401b038111156129205761292061301c565b6040519080825280601f01601f19166020018201604052801561294a576020820181803683370190505b5090508181016020015b600019016f181899199a1a9b1b9c1cb0b131b232b360811b600a86061a8153600a850494508461295457509392505050565b6000805b83518110156129c557828482815181106129a6576129a661344b565b6020026020010151036129bd576001915050610895565b60010161298a565b5060009392505050565b6060600080856001600160a01b0316856040516129ec9190613a37565b600060405180830381855af49150503d8060008114612a27576040519150601f19603f3d011682016040523d82523d6000602084013e612a2c565b606091505b5091509150612a3d86838387612c20565b9695505050505050565b60006001600160a01b0384163b15612b3d57604051630a85bd0160e11b81526001600160a01b0385169063150b7a0290612a8b903390899088908890600401613a53565b6020604051808303816000875af1925050508015612ac6575060408051601f3d908101601f19168201909252612ac391810190613a86565b60015b612b23573d808015612af4576040519150601f19603f3d011682016040523d82523d6000602084013e612af9565b606091505b508051600003612b1b5760405162461bcd60e51b81526004016109c8906139e5565b805181602001fd5b6001600160e01b031916630a85bd0160e11b1490506125db565b506001949350505050565b60008072184f03e93ff9f4daa797ed6e38ed64bf6a1f0160401b8310612b875772184f03e93ff9f4daa797ed6e38ed64bf6a1f0160401b830492506040015b6d04ee2d6d415b85acef81000000008310612bb3576d04ee2d6d415b85acef8100000000830492506020015b662386f26fc100008310612bd157662386f26fc10000830492506010015b6305f5e1008310612be9576305f5e100830492506008015b6127108310612bfd57612710830492506004015b60648310612c0f576064830492506002015b600a83106108955760010192915050565b60608315612c8f578251600003612c88576001600160a01b0385163b612c885760405162461bcd60e51b815260206004820152601d60248201527f416464726573733a2063616c6c20746f206e6f6e2d636f6e747261637400000060448201526064016109c8565b50816125db565b6125db8383815115612ca45781518083602001fd5b8060405162461bcd60e51b81526004016109c89190612d41565b6001600160e01b0319811681146122d757600080fd5b600060208284031215612ce657600080fd5b8135611e6881612cbe565b60005b83811015612d0c578181015183820152602001612cf4565b50506000910152565b60008151808452612d2d816020860160208601612cf1565b601f01601f19169290920160200192915050565b602081526000611e686020830184612d15565b600060208284031215612d6657600080fd5b5035919050565b6001600160a01b03811681146122d757600080fd5b60008060408385031215612d9557600080fd5b8235612da081612d6d565b946020939093013593505050565b60008060408385031215612dc157600080fd5b50508035926020909101359150565b60008060208385031215612de357600080fd5b82356001600160401b0380821115612dfa57600080fd5b818501915085601f830112612e0e57600080fd5b813581811115612e1d57600080fd5b8660208260051b8501011115612e3257600080fd5b60209290920196919550909350505050565b6000602080830181845280855180835260408601915060408160051b870101925083870160005b82811015612e9957603f19888603018452612e87858351612d15565b94509285019290850190600101612e6b565b5092979650505050505050565b634e487b7160e01b600052602160045260246000fd5b60058110612eda57634e487b7160e01b600052602160045260246000fd5b9052565b600081518084526020808501945080840160005b83811015612f0e57815187529582019590820190600101612ef2565b509495945050505050565b60208152612f2b602082018351612ebc565b60006020830151610120806040850152612f49610140850183612d15565b91506040850151601f1980868503016060870152612f678483612d15565b935060608701516080870152608087015160a087015260a08701519150808685030160c0870152612f988483612ede565b935060c087015160e087015260e08701519150610100612fc2818801846001600160a01b03169052565b870151868503909101838701529050612a3d8382612d15565b600080600060608486031215612ff057600080fd5b8335612ffb81612d6d565b9250602084013561300b81612d6d565b929592945050506040919091013590565b634e487b7160e01b600052604160045260246000fd5b60006001600160401b038084111561304c5761304c61301c565b604051601f8501601f19908116603f011681019082821181831017156130745761307461301c565b8160405280935085815286868601111561308d57600080fd5b858560208301376000602087830101525050509392505050565b600082601f8301126130b857600080fd5b611e6883833560208501613032565b600080604083850312156130da57600080fd5b8235915060208301356001600160401b038111156130f757600080fd5b613103858286016130a7565b9150509250929050565b6000806040838503121561312057600080fd5b82359150602083013561313281612d6d565b809150509250929050565b8035801515811461314d57600080fd5b919050565b60008060006060848603121561316757600080fd5b833561317281612cbe565b9250602084013591506131876040850161313d565b90509250925092565b6000602082840312156131a257600080fd5b8135611e6881612d6d565b602081526000611e686020830184612ede565b6000602080830181845280855180835260408601915060408160051b870101925083870160005b82811015612e9957603f19888603018452613203858351612d15565b945092850192908501906001016131e7565b6000806040838503121561322857600080fd5b8235612da081612cbe565b6000806040838503121561324657600080fd5b823561325181612d6d565b915061325f6020840161313d565b90509250929050565b60008060006060848603121561327d57600080fd5b83359250602084013561328f81612d6d565b91506131876040850161313d565b600080600080608085870312156132b357600080fd5b84356132be81612d6d565b935060208501356132ce81612d6d565b92506040850135915060608501356001600160401b038111156132f057600080fd5b8501601f8101871361330157600080fd5b61331087823560208401613032565b91505092959194509250565b60008060006060848603121561333157600080fd5b833592506020840135915060408401356001600160401b0381111561335557600080fd5b613361868287016130a7565b9150509250925092565b60006020828403121561337d57600080fd5b81356001600160401b0381111561339357600080fd5b82016101208185031215611e6857600080fd5b600080604083850312156133b957600080fd5b82356133c481612d6d565b9150602083013561313281612d6d565b600181811c908216806133e857607f821691505b60208210810361340857634e487b7160e01b600052602260045260246000fd5b50919050565b602081016108958284612ebc565b634e487b7160e01b600052601160045260246000fd5b6000600182016134445761344461341c565b5060010190565b634e487b7160e01b600052603260045260246000fd5b6000808335601e1984360301811261347857600080fd5b8301803591506001600160401b0382111561349257600080fd5b6020019150368190038213156134a757600080fd5b9250929050565b8183823760009101908152919050565b6020808252602d908201527f4552433732313a2063616c6c6572206973206e6f7420746f6b656e206f776e6560408201526c1c881bdc88185c1c1c9bdd9959609a1b606082015260800190565b5b81811015611a8e576000815560010161350c565b601f821115610a6957806000526020600020601f840160051c810160208510156135475750805b613559601f850160051c83018261350b565b5050505050565b81516001600160401b038111156135795761357961301c565b61358d8161358784546133d4565b84613520565b602080601f8311600181146135c257600084156135aa5750858301515b600019600386901b1c1916600185901b17855561361b565b600085815260208120601f198616915b828110156135f1578886015182559484019460019091019084016135d2565b508582101561360f5787850151600019600388901b60f8161c191681555b505060018460011b0185555b505050505050565b818103818111156108955761089561341c565b60008351613648818460208801612cf1565b83519083019061365c818360208801612cf1565b01949350505050565b600581106122d757600080fd5b60006020828403121561368457600080fd5b8135611e6881613665565b6000813561089581613665565b600582106136ba57634e487b7160e01b600052602160045260246000fd5b60ff1981541660ff831681178255505050565b6001600160401b038311156136e4576136e461301c565b6136f8836136f283546133d4565b83613520565b6000601f84116001811461372c57600085156137145750838201355b600019600387901b1c1916600186901b178355613559565b600083815260209020601f19861690835b8281101561375d578685013582556020948501946001909201910161373d565b508682101561377a5760001960f88860031b161c19848701351681555b505060018560011b0183555050505050565b6000808335601e198436030181126137a357600080fd5b8301803591506001600160401b038211156137bd57600080fd5b6020019150600581901b36038213156134a757600080fd5b80820281158282048414176108955761089561341c565b6001600160401b038311156138035761380361301c565b6801000000000000000083111561381c5761381c61301c565b8054838255808410156138425781600052602060002061384082820186830161350b565b505b50818160005260208060002060005b8681101561386b5783358282015592820192600101613851565b50505050505050565b6000813561089581612d6d565b61389361388d8361368f565b8261369c565b6138a06020830183613461565b6138ae8183600186016136cd565b50506138bd6040830183613461565b6138cb8183600286016136cd565b505060608201356003820155608082013560048201556138ee60a083018361378c565b6138fc8183600586016137ec565b505060c0820135600682015561393b61391760e08401613874565b6007830180546001600160a01b0319166001600160a01b0392909216919091179055565b613949610100830183613461565b611c8a8183600886016136cd565b60008261397457634e487b7160e01b600052601260045260246000fd5b500490565b808201808211156108955761089561341c565b60208082526025908201527f4552433732313a207472616e736665722066726f6d20696e636f72726563742060408201526437bbb732b960d91b606082015260800190565b82815260408101611e686020830184612ebc565b60208082526032908201527f4552433732313a207472616e7366657220746f206e6f6e20455243373231526560408201527131b2b4bb32b91034b6b83632b6b2b73a32b960711b606082015260800190565b60008251613a49818460208701612cf1565b9190910192915050565b6001600160a01b0385811682528416602082015260408101839052608060608201819052600090612a3d90830184612d15565b600060208284031215613a9857600080fd5b8151611e6881612cbe56fe416464726573733a206c6f772d6c6576656c2064656c65676174652063616c6c206661696c6564a2646970667358221220de3a6f109964345bd86836d86d8fd42fb00698954df0f665d99eddaa8105ecff64736f6c63430008140033",
  "linkReferences": {},
  "deployedLinkReferences": {}
}