{
  "_format": "hh-sol-artifact-1",
  "contractName": "TasksManager",
  "sourceName": "contracts/TasksManager.sol",
  "abi": [
    {
      "inputs": [
        {
          "internalType": "address",
          "name": "voter",
          "type": "address"
        }
      ],
      "name": "AlreadyVoted",
      "type": "error"
    },
    {
      "inputs": [
        {
          "internalType": "uint256",
          "name": "balance",
          "type": "uint256"
        },
        {
          "internalType": "uint256",
          "name": "withdrawAmount",
          "type": "uint256"
        }
      ],
      "name": "InsufficientBalance",
      "type": "error"
    },
    {
      "inputs": [
        {
          "internalType": "uint256",
          "name": "endDate",
          "type": "uint256"
        },
        {
          "internalType": "uint256",
          "name": "blockTimestamp",
          "type": "uint256"
        }
      ],
      "name": "InvalidEndDate",
      "type": "error"
    },
    {
      "inputs": [
        {
          "internalType": "uint256",
          "name": "roleId",
          "type": "uint256"
        }
      ],
      "name": "InvalidRoleId",
      "type": "error"
    },
    {
      "inputs": [
        {
          "internalType": "string",
          "name": "roleName",
          "type": "string"
        }
      ],
      "name": "InvalidRoleName",
      "type": "error"
    },
    {
      "inputs": [
        {
          "internalType": "enum IWeb3Task.Status",
          "name": "status",
          "type": "uint8"
        }
      ],
      "name": "InvalidStatus",
      "type": "error"
    },
    {
      "inputs": [
        {
          "internalType": "uint256",
          "name": "taskId",
          "type": "uint256"
        }
      ],
      "name": "InvalidTaskId",
      "type": "error"
    },
    {
      "inputs": [
        {
          "internalType": "uint256",
          "name": "taskId",
          "type": "uint256"
        },
        {
          "internalType": "enum IWeb3Task.Status",
          "name": "status",
          "type": "uint8"
        }
      ],
      "name": "TaskCannotBeChanged",
      "type": "error"
    },
    {
      "inputs": [
        {
          "internalType": "address",
          "name": "operator",
          "type": "address"
        }
      ],
      "name": "Unauthorized",
      "type": "error"
    },
    {
      "anonymous": false,
      "inputs": [
        {
          "indexed": true,
          "internalType": "address",
          "name": "owner",
          "type": "address"
        },
        {
          "indexed": true,
          "internalType": "address",
          "name": "approved",
          "type": "address"
        },
        {
          "indexed": true,
          "internalType": "uint256",
          "name": "tokenId",
          "type": "uint256"
        }
      ],
      "name": "Approval",
      "type": "event"
    },
    {
      "anonymous": false,
      "inputs": [
        {
          "indexed": true,
          "internalType": "address",
          "name": "owner",
          "type": "address"
        },
        {
          "indexed": true,
          "internalType": "address",
          "name": "operator",
          "type": "address"
        },
        {
          "indexed": false,
          "internalType": "bool",
          "name": "approved",
          "type": "bool"
        }
      ],
      "name": "ApprovalForAll",
      "type": "event"
    },
    {
      "anonymous": false,
      "inputs": [
        {
          "indexed": true,
          "internalType": "bytes4",
          "name": "interfaceId",
          "type": "bytes4"
        },
        {
          "indexed": true,
          "internalType": "uint256",
          "name": "roleId",
          "type": "uint256"
        },
        {
          "indexed": false,
          "internalType": "bool",
          "name": "isAuthorized",
          "type": "bool"
        }
      ],
      "name": "AuthorizeOperator",
      "type": "event"
    },
    {
      "anonymous": false,
      "inputs": [
        {
          "indexed": true,
          "internalType": "uint256",
          "name": "roleId",
          "type": "uint256"
        },
        {
          "indexed": true,
          "internalType": "address",
          "name": "authorizedAddress",
          "type": "address"
        },
        {
          "indexed": false,
          "internalType": "bool",
          "name": "isAuthorized",
          "type": "bool"
        }
      ],
      "name": "AuthorizePersonnel",
      "type": "event"
    },
    {
      "anonymous": false,
      "inputs": [
        {
          "indexed": true,
          "internalType": "uint256",
          "name": "authorizationId",
          "type": "uint256"
        },
        {
          "indexed": true,
          "internalType": "address",
          "name": "depositor",
          "type": "address"
        },
        {
          "indexed": false,
          "internalType": "uint256",
          "name": "amount",
          "type": "uint256"
        }
      ],
      "name": "Deposit",
      "type": "event"
    },
    {
      "anonymous": false,
      "inputs": [
        {
          "indexed": true,
          "internalType": "uint256",
          "name": "taskId",
          "type": "uint256"
        },
        {
          "indexed": false,
          "internalType": "string",
          "name": "description",
          "type": "string"
        }
      ],
      "name": "DescriptionUpdated",
      "type": "event"
    },
    {
      "anonymous": false,
      "inputs": [
        {
          "indexed": true,
          "internalType": "uint256",
          "name": "taskId",
          "type": "uint256"
        },
        {
          "indexed": false,
          "internalType": "uint256",
          "name": "endDate",
          "type": "uint256"
        }
      ],
      "name": "EndDateUpdated",
      "type": "event"
    },
    {
      "anonymous": false,
      "inputs": [
        {
          "indexed": true,
          "internalType": "uint256",
          "name": "taskId",
          "type": "uint256"
        },
        {
          "indexed": false,
          "internalType": "string",
          "name": "metadata",
          "type": "string"
        }
      ],
      "name": "MetadataUpdated",
      "type": "event"
    },
    {
      "anonymous": false,
      "inputs": [
        {
          "indexed": false,
          "internalType": "uint256",
          "name": "value",
          "type": "uint256"
        }
      ],
      "name": "QuorumUpdated",
      "type": "event"
    },
    {
      "anonymous": false,
      "inputs": [
        {
          "indexed": true,
          "internalType": "uint256",
          "name": "taskId",
          "type": "uint256"
        },
        {
          "indexed": true,
          "internalType": "address",
          "name": "creator",
          "type": "address"
        },
        {
          "indexed": true,
          "internalType": "address",
          "name": "assignee",
          "type": "address"
        },
        {
          "indexed": false,
          "internalType": "uint256",
          "name": "reward",
          "type": "uint256"
        },
        {
          "indexed": false,
          "internalType": "uint256",
          "name": "endDate",
          "type": "uint256"
        }
      ],
      "name": "TaskCreated",
      "type": "event"
    },
    {
      "anonymous": false,
      "inputs": [
        {
          "indexed": true,
          "internalType": "uint256",
          "name": "taskId",
          "type": "uint256"
        },
        {
          "indexed": true,
          "internalType": "address",
          "name": "reviewer",
          "type": "address"
        },
        {
          "indexed": false,
          "internalType": "string",
          "name": "metadata",
          "type": "string"
        }
      ],
      "name": "TaskReviewed",
      "type": "event"
    },
    {
      "anonymous": false,
      "inputs": [
        {
          "indexed": true,
          "internalType": "uint256",
          "name": "taskId",
          "type": "uint256"
        },
        {
          "indexed": true,
          "internalType": "address",
          "name": "assignee",
          "type": "address"
        }
      ],
      "name": "TaskStarted",
      "type": "event"
    },
    {
      "anonymous": false,
      "inputs": [
        {
          "indexed": true,
          "internalType": "uint256",
          "name": "taskId",
          "type": "uint256"
        },
        {
          "indexed": false,
          "internalType": "enum IWeb3Task.Status",
          "name": "status",
          "type": "uint8"
        }
      ],
      "name": "TaskUpdated",
      "type": "event"
    },
    {
      "anonymous": false,
      "inputs": [
        {
          "indexed": true,
          "internalType": "uint256",
          "name": "taskId",
          "type": "uint256"
        },
        {
          "indexed": false,
          "internalType": "string",
          "name": "title",
          "type": "string"
        }
      ],
      "name": "TitleUpdated",
      "type": "event"
    },
    {
      "anonymous": false,
      "inputs": [
        {
          "indexed": true,
          "internalType": "address",
          "name": "from",
          "type": "address"
        },
        {
          "indexed": true,
          "internalType": "address",
          "name": "to",
          "type": "address"
        },
        {
          "indexed": true,
          "internalType": "uint256",
          "name": "tokenId",
          "type": "uint256"
        }
      ],
      "name": "Transfer",
      "type": "event"
    },
    {
      "anonymous": false,
      "inputs": [
        {
          "indexed": true,
          "internalType": "uint256",
          "name": "authorizationId",
          "type": "uint256"
        },
        {
          "indexed": true,
          "internalType": "address",
          "name": "withdrawer",
          "type": "address"
        },
        {
          "indexed": false,
          "internalType": "uint256",
          "name": "amount",
          "type": "uint256"
        }
      ],
      "name": "Withdraw",
      "type": "event"
    },
    {
      "inputs": [
        {
          "internalType": "address",
          "name": "to",
          "type": "address"
        },
        {
          "internalType": "uint256",
          "name": "tokenId",
          "type": "uint256"
        }
      ],
      "name": "approve",
      "outputs": [],
      "stateMutability": "nonpayable",
      "type": "function"
    },
    {
      "inputs": [
        {
          "internalType": "address",
          "name": "owner",
          "type": "address"
        }
      ],
      "name": "balanceOf",
      "outputs": [
        {
          "internalType": "uint256",
          "name": "",
          "type": "uint256"
        }
      ],
      "stateMutability": "view",
      "type": "function"
    },
    {
      "inputs": [
        {
          "internalType": "uint256",
          "name": "_taskId",
          "type": "uint256"
        },
        {
          "internalType": "uint256",
          "name": "_roleId",
          "type": "uint256"
        }
      ],
      "name": "cancelTask",
      "outputs": [
        {
          "internalType": "bool",
          "name": "",
          "type": "bool"
        }
      ],
      "stateMutability": "nonpayable",
      "type": "function"
    },
    {
      "inputs": [
        {
          "internalType": "uint256",
          "name": "_taskId",
          "type": "uint256"
        },
        {
          "internalType": "uint256",
          "name": "_roleId",
          "type": "uint256"
        }
      ],
      "name": "completeTask",
      "outputs": [
        {
          "internalType": "bool",
          "name": "",
          "type": "bool"
        }
      ],
      "stateMutability": "nonpayable",
      "type": "function"
    },
    {
      "inputs": [
        {
          "components": [
            {
              "internalType": "enum IWeb3Task.Status",
              "name": "status",
              "type": "uint8"
            },
            {
              "internalType": "string",
              "name": "title",
              "type": "string"
            },
            {
              "internalType": "string",
              "name": "description",
              "type": "string"
            },
            {
              "internalType": "uint256",
              "name": "reward",
              "type": "uint256"
            },
            {
              "internalType": "uint256",
              "name": "endDate",
              "type": "uint256"
            },
            {
              "internalType": "uint256[]",
              "name": "authorizedRoles",
              "type": "uint256[]"
            },
            {
              "internalType": "uint256",
              "name": "creatorRole",
              "type": "uint256"
            },
            {
              "internalType": "address",
              "name": "assignee",
              "type": "address"
            },
            {
              "internalType": "string",
              "name": "metadata",
              "type": "string"
            }
          ],
          "internalType": "struct IWeb3Task.Task",
          "name": "_task",
          "type": "tuple"
        }
      ],
      "name": "createTask",
      "outputs": [
        {
          "internalType": "uint256",
          "name": "",
          "type": "uint256"
        }
      ],
      "stateMutability": "nonpayable",
      "type": "function"
    },
    {
      "inputs": [
        {
          "internalType": "uint256",
          "name": "_roleId",
          "type": "uint256"
        }
      ],
      "name": "deposit",
      "outputs": [
        {
          "internalType": "bool",
          "name": "",
          "type": "bool"
        }
      ],
      "stateMutability": "payable",
      "type": "function"
    },
    {
      "inputs": [],
      "name": "emergengyWithdraw",
      "outputs": [],
      "stateMutability": "nonpayable",
      "type": "function"
    },
    {
      "inputs": [
        {
          "internalType": "uint256",
          "name": "tokenId",
          "type": "uint256"
        }
      ],
      "name": "getApproved",
      "outputs": [
        {
          "internalType": "address",
          "name": "",
          "type": "address"
        }
      ],
      "stateMutability": "view",
      "type": "function"
    },
    {
      "inputs": [
        {
          "internalType": "uint256",
          "name": "_roleId",
          "type": "uint256"
        }
      ],
      "name": "getBalance",
      "outputs": [
        {
          "internalType": "uint256",
          "name": "",
          "type": "uint256"
        }
      ],
      "stateMutability": "view",
      "type": "function"
    },
    {
      "inputs": [],
      "name": "getMinQuorum",
      "outputs": [
        {
          "internalType": "uint256",
          "name": "",
          "type": "uint256"
        }
      ],
      "stateMutability": "view",
      "type": "function"
    },
    {
      "inputs": [
        {
          "internalType": "uint256",
          "name": "_taskId",
          "type": "uint256"
        }
      ],
      "name": "getQuorumApprovals",
      "outputs": [
        {
          "internalType": "uint256",
          "name": "",
          "type": "uint256"
        }
      ],
      "stateMutability": "view",
      "type": "function"
    },
    {
      "inputs": [
        {
          "internalType": "uint256",
          "name": "_taskId",
          "type": "uint256"
        }
      ],
      "name": "getReviews",
      "outputs": [
        {
          "internalType": "string[]",
          "name": "",
          "type": "string[]"
        }
      ],
      "stateMutability": "view",
      "type": "function"
    },
    {
      "inputs": [
        {
          "internalType": "uint256",
          "name": "_roleId",
          "type": "uint256"
        }
      ],
      "name": "getRoleName",
      "outputs": [
        {
          "internalType": "string",
          "name": "",
          "type": "string"
        }
      ],
      "stateMutability": "view",
      "type": "function"
    },
    {
      "inputs": [
        {
          "internalType": "address",
          "name": "_address",
          "type": "address"
        }
      ],
      "name": "getScore",
      "outputs": [
        {
          "internalType": "uint256",
          "name": "",
          "type": "uint256"
        }
      ],
      "stateMutability": "view",
      "type": "function"
    },
    {
      "inputs": [
        {
          "internalType": "uint256",
          "name": "_taskId",
          "type": "uint256"
        }
      ],
      "name": "getTask",
      "outputs": [
        {
          "components": [
            {
              "internalType": "enum IWeb3Task.Status",
              "name": "status",
              "type": "uint8"
            },
            {
              "internalType": "string",
              "name": "title",
              "type": "string"
            },
            {
              "internalType": "string",
              "name": "description",
              "type": "string"
            },
            {
              "internalType": "uint256",
              "name": "reward",
              "type": "uint256"
            },
            {
              "internalType": "uint256",
              "name": "endDate",
              "type": "uint256"
            },
            {
              "internalType": "uint256[]",
              "name": "authorizedRoles",
              "type": "uint256[]"
            },
            {
              "internalType": "uint256",
              "name": "creatorRole",
              "type": "uint256"
            },
            {
              "internalType": "address",
              "name": "assignee",
              "type": "address"
            },
            {
              "internalType": "string",
              "name": "metadata",
              "type": "string"
            }
          ],
          "internalType": "struct IWeb3Task.Task",
          "name": "",
          "type": "tuple"
        }
      ],
      "stateMutability": "view",
      "type": "function"
    },
    {
      "inputs": [],
      "name": "getTaskId",
      "outputs": [
        {
          "internalType": "uint256",
          "name": "",
          "type": "uint256"
        }
      ],
      "stateMutability": "view",
      "type": "function"
    },
    {
      "inputs": [
        {
          "internalType": "address",
          "name": "_address",
          "type": "address"
        }
      ],
      "name": "getUserTasks",
      "outputs": [
        {
          "internalType": "uint256[]",
          "name": "",
          "type": "uint256[]"
        }
      ],
      "stateMutability": "view",
      "type": "function"
    },
    {
      "inputs": [
        {
          "internalType": "uint256",
          "name": "_roleId",
          "type": "uint256"
        },
        {
          "internalType": "address",
          "name": "_address",
          "type": "address"
        }
      ],
      "name": "hasRole",
      "outputs": [
        {
          "internalType": "bool",
          "name": "",
          "type": "bool"
        }
      ],
      "stateMutability": "view",
      "type": "function"
    },
    {
      "inputs": [
        {
          "internalType": "uint256",
          "name": "_taskId",
          "type": "uint256"
        },
        {
          "internalType": "address",
          "name": "_addr",
          "type": "address"
        }
      ],
      "name": "hasVoted",
      "outputs": [
        {
          "internalType": "bool",
          "name": "",
          "type": "bool"
        }
      ],
      "stateMutability": "view",
      "type": "function"
    },
    {
      "inputs": [
        {
          "internalType": "address",
          "name": "owner",
          "type": "address"
        },
        {
          "internalType": "address",
          "name": "operator",
          "type": "address"
        }
      ],
      "name": "isApprovedForAll",
      "outputs": [
        {
          "internalType": "bool",
          "name": "",
          "type": "bool"
        }
      ],
      "stateMutability": "view",
      "type": "function"
    },
    {
      "inputs": [
        {
          "internalType": "bytes4",
          "name": "_interfaceId",
          "type": "bytes4"
        },
        {
          "internalType": "uint256",
          "name": "_roleId",
          "type": "uint256"
        }
      ],
      "name": "isOperator",
      "outputs": [
        {
          "internalType": "bool",
          "name": "",
          "type": "bool"
        }
      ],
      "stateMutability": "view",
      "type": "function"
    },
    {
      "inputs": [
        {
          "internalType": "bytes[]",
          "name": "data",
          "type": "bytes[]"
        }
      ],
      "name": "multicall",
      "outputs": [
        {
          "internalType": "bytes[]",
          "name": "results",
          "type": "bytes[]"
        }
      ],
      "stateMutability": "nonpayable",
      "type": "function"
    },
    {
      "inputs": [
        {
          "internalType": "bytes[]",
          "name": "data",
          "type": "bytes[]"
        }
      ],
      "name": "multicallRead",
      "outputs": [
        {
          "internalType": "bytes[]",
          "name": "results",
          "type": "bytes[]"
        }
      ],
      "stateMutability": "view",
      "type": "function"
    },
    {
      "inputs": [],
      "name": "name",
      "outputs": [
        {
          "internalType": "string",
          "name": "",
          "type": "string"
        }
      ],
      "stateMutability": "view",
      "type": "function"
    },
    {
      "inputs": [],
      "name": "owner",
      "outputs": [
        {
          "internalType": "address",
          "name": "",
          "type": "address"
        }
      ],
      "stateMutability": "view",
      "type": "function"
    },
    {
      "inputs": [
        {
          "internalType": "uint256",
          "name": "tokenId",
          "type": "uint256"
        }
      ],
      "name": "ownerOf",
      "outputs": [
        {
          "internalType": "address",
          "name": "",
          "type": "address"
        }
      ],
      "stateMutability": "view",
      "type": "function"
    },
    {
      "inputs": [
        {
          "internalType": "uint256",
          "name": "_taskId",
          "type": "uint256"
        },
        {
          "internalType": "uint256",
          "name": "_roleId",
          "type": "uint256"
        },
        {
          "internalType": "string",
          "name": "_metadata",
          "type": "string"
        }
      ],
      "name": "reviewTask",
      "outputs": [
        {
          "internalType": "bool",
          "name": "",
          "type": "bool"
        }
      ],
      "stateMutability": "nonpayable",
      "type": "function"
    },
    {
      "inputs": [
        {
          "internalType": "address",
          "name": "from",
          "type": "address"
        },
        {
          "internalType": "address",
          "name": "to",
          "type": "address"
        },
        {
          "internalType": "uint256",
          "name": "tokenId",
          "type": "uint256"
        }
      ],
      "name": "safeTransferFrom",
      "outputs": [],
      "stateMutability": "nonpayable",
      "type": "function"
    },
    {
      "inputs": [
        {
          "internalType": "address",
          "name": "from",
          "type": "address"
        },
        {
          "internalType": "address",
          "name": "to",
          "type": "address"
        },
        {
          "internalType": "uint256",
          "name": "tokenId",
          "type": "uint256"
        },
        {
          "internalType": "bytes",
          "name": "data",
          "type": "bytes"
        }
      ],
      "name": "safeTransferFrom",
      "outputs": [],
      "stateMutability": "nonpayable",
      "type": "function"
    },
    {
      "inputs": [
        {
          "internalType": "address",
          "name": "operator",
          "type": "address"
        },
        {
          "internalType": "bool",
          "name": "approved",
          "type": "bool"
        }
      ],
      "name": "setApprovalForAll",
      "outputs": [],
      "stateMutability": "nonpayable",
      "type": "function"
    },
    {
      "inputs": [
        {
          "internalType": "uint256",
          "name": "_taskId",
          "type": "uint256"
        },
        {
          "internalType": "string",
          "name": "_description",
          "type": "string"
        }
      ],
      "name": "setDescription",
      "outputs": [],
      "stateMutability": "nonpayable",
      "type": "function"
    },
    {
      "inputs": [
        {
          "internalType": "uint256",
          "name": "_taskId",
          "type": "uint256"
        },
        {
          "internalType": "uint256",
          "name": "_endDate",
          "type": "uint256"
        }
      ],
      "name": "setEndDate",
      "outputs": [],
      "stateMutability": "nonpayable",
      "type": "function"
    },
    {
      "inputs": [
        {
          "internalType": "uint256",
          "name": "_taskId",
          "type": "uint256"
        },
        {
          "internalType": "string",
          "name": "_metadata",
          "type": "string"
        }
      ],
      "name": "setMetadata",
      "outputs": [],
      "stateMutability": "nonpayable",
      "type": "function"
    },
    {
      "inputs": [
        {
          "internalType": "uint256",
          "name": "_value",
          "type": "uint256"
        }
      ],
      "name": "setMinQuorum",
      "outputs": [],
      "stateMutability": "nonpayable",
      "type": "function"
    },
    {
      "inputs": [
        {
          "internalType": "bytes4",
          "name": "_interfaceId",
          "type": "bytes4"
        },
        {
          "internalType": "uint256",
          "name": "_roleId",
          "type": "uint256"
        },
        {
          "internalType": "bool",
          "name": "_isAuthorized",
          "type": "bool"
        }
      ],
      "name": "setOperator",
      "outputs": [],
      "stateMutability": "nonpayable",
      "type": "function"
    },
    {
      "inputs": [
        {
          "internalType": "uint256",
          "name": "_roleId",
          "type": "uint256"
        },
        {
          "internalType": "address",
          "name": "_authorizedAddress",
          "type": "address"
        },
        {
          "internalType": "bool",
          "name": "_isAuthorized",
          "type": "bool"
        }
      ],
      "name": "setRole",
      "outputs": [],
      "stateMutability": "nonpayable",
      "type": "function"
    },
    {
      "inputs": [
        {
          "internalType": "uint256",
          "name": "_roleId",
          "type": "uint256"
        },
        {
          "internalType": "string",
          "name": "_roleName",
          "type": "string"
        }
      ],
      "name": "setRoleName",
      "outputs": [
        {
          "internalType": "string",
          "name": "",
          "type": "string"
        }
      ],
      "stateMutability": "nonpayable",
      "type": "function"
    },
    {
      "inputs": [
        {
          "internalType": "uint256",
          "name": "_taskId",
          "type": "uint256"
        },
        {
          "internalType": "string",
          "name": "_title",
          "type": "string"
        }
      ],
      "name": "setTitle",
      "outputs": [],
      "stateMutability": "nonpayable",
      "type": "function"
    },
    {
      "inputs": [
        {
          "internalType": "uint256",
          "name": "_taskId",
          "type": "uint256"
        },
        {
          "internalType": "uint256",
          "name": "_roleId",
          "type": "uint256"
        }
      ],
      "name": "startTask",
      "outputs": [
        {
          "internalType": "bool",
          "name": "",
          "type": "bool"
        }
      ],
      "stateMutability": "nonpayable",
      "type": "function"
    },
    {
      "inputs": [
        {
          "internalType": "bytes4",
          "name": "interfaceId",
          "type": "bytes4"
        }
      ],
      "name": "supportsInterface",
      "outputs": [
        {
          "internalType": "bool",
          "name": "",
          "type": "bool"
        }
      ],
      "stateMutability": "view",
      "type": "function"
    },
    {
      "inputs": [],
      "name": "symbol",
      "outputs": [
        {
          "internalType": "string",
          "name": "",
          "type": "string"
        }
      ],
      "stateMutability": "view",
      "type": "function"
    },
    {
      "inputs": [
        {
          "internalType": "uint256",
          "name": "tokenId",
          "type": "uint256"
        }
      ],
      "name": "tokenURI",
      "outputs": [
        {
          "internalType": "string",
          "name": "",
          "type": "string"
        }
      ],
      "stateMutability": "view",
      "type": "function"
    },
    {
      "inputs": [
        {
          "internalType": "address",
          "name": "from",
          "type": "address"
        },
        {
          "internalType": "address",
          "name": "to",
          "type": "address"
        },
        {
          "internalType": "uint256",
          "name": "tokenId",
          "type": "uint256"
        }
      ],
      "name": "transferFrom",
      "outputs": [],
      "stateMutability": "nonpayable",
      "type": "function"
    },
    {
      "inputs": [
        {
          "internalType": "uint256",
          "name": "_roleId",
          "type": "uint256"
        },
        {
          "internalType": "uint256",
          "name": "_amount",
          "type": "uint256"
        }
      ],
      "name": "withdraw",
      "outputs": [
        {
          "internalType": "bool",
          "name": "",
          "type": "bool"
        }
      ],
      "stateMutability": "nonpayable",
      "type": "function"
    }
  ],
  "bytecode": "0x60806040526002600b553480156200001657600080fd5b5060405180604001604052806008815260200167576562335461736b60c01b815250604051806040016040528060048152602001630ae66a8960e31b815250816000908162000066919062000135565b50600162000075828262000135565b5050600680546001600160a01b031916331790555062000201565b634e487b7160e01b600052604160045260246000fd5b600181811c90821680620000bb57607f821691505b602082108103620000dc57634e487b7160e01b600052602260045260246000fd5b50919050565b601f8211156200013057600081815260208120601f850160051c810160208610156200010b5750805b601f850160051c820191505b818110156200012c5782815560010162000117565b5050505b505050565b81516001600160401b0381111562000151576200015162000090565b6200016981620001628454620000a6565b84620000e2565b602080601f831160018114620001a15760008415620001885750858301515b600019600386901b1c1916600185901b1785556200012c565b600085815260208120601f198616915b82811015620001d257888601518255948401946001909101908401620001b1565b5085821015620001f15787850151600019600388901b60f8161c191681555b5050505050600190811b01905550565b613c1280620002116000396000f3fe6080604052600436106102675760003560e01c806363ef837211610144578063b080114d116100b6578063d47875d01161007a578063d47875d0146107a0578063e610a2dd146107d6578063e985e9c5146107f6578063ec2606c01461083f578063f3ae70f01461085f578063fe187c1f1461087f57600080fd5b8063b080114d1461070d578063b6b55f251461072d578063b88d4fde14610740578063c66e954314610760578063c87b56dd1461078057600080fd5b806395d89b411161010857806395d89b41146106565780639d4a22551461066b578063a053e7e914610698578063a22cb465146106b8578063a9b3bfa9146106d8578063ac9650d8146106ed57600080fd5b806363ef83721461059e57806370a08231146105cb578063751e8942146105eb5780638da5cb5b1461060b57806395d576601461062957600080fd5b806325d3ee44116101dd5780634bbe46b4116101a15780634bbe46b4146104e95780635102bc9d146104fe578063563909de1461051e578063593aa2831461053e5780635af4aa051461055e5780636352211e1461057e57600080fd5b806325d3ee44146104235780632a6446ca1461044357806342842e0e146104635780634385963214610483578063441a3e70146104c957600080fd5b8063138596881161022f578063138596881461033d5780631397e04a1461035c57806313e9a2631461037c5780631d65e77e146103a95780631e010439146103d657806323b872dd1461040357600080fd5b806301ffc9a71461026c57806306fdde03146102a1578063081812fc146102c3578063095ea7b3146102fb578063108c8ae41461031d575b600080fd5b34801561027857600080fd5b5061028c610287366004612de6565b61089f565b60405190151581526020015b60405180910390f35b3480156102ad57600080fd5b506102b66108f1565b6040516102989190612e53565b3480156102cf57600080fd5b506102e36102de366004612e66565b610983565b6040516001600160a01b039091168152602001610298565b34801561030757600080fd5b5061031b610316366004612e94565b6109aa565b005b34801561032957600080fd5b5061028c610338366004612ec0565b610ac4565b34801561034957600080fd5b50600a545b604051908152602001610298565b34801561036857600080fd5b5061028c610377366004612ec0565b610d74565b34801561038857600080fd5b5061039c610397366004612ee2565b610e8d565b6040516102989190612f56565b3480156103b557600080fd5b506103c96103c4366004612e66565b610f9a565b604051610298919061302b565b3480156103e257600080fd5b5061034e6103f1366004612e66565b6000908152600d602052604090205490565b34801561040f57600080fd5b5061031b61041e3660046130ed565b6112d6565b34801561042f57600080fd5b506102b661043e366004612e66565b611307565b34801561044f57600080fd5b5061031b61045e3660046131d9565b6113a9565b34801561046f57600080fd5b5061031b61047e3660046130ed565b61140a565b34801561048f57600080fd5b5061028c61049e36600461321f565b6000918252600f602090815260408084206001600160a01b0393909316845291905290205460ff1690565b3480156104d557600080fd5b5061028c6104e4366004612ec0565b611425565b3480156104f557600080fd5b5061031b61159e565b34801561050a57600080fd5b5061031b6105193660046131d9565b61164d565b34801561052a57600080fd5b5061031b610539366004612e66565b6116a2565b34801561054a57600080fd5b5061031b6105593660046131d9565b611726565b34801561056a57600080fd5b5061031b610579366004613264565b61177b565b34801561058a57600080fd5b506102e3610599366004612e66565b61180c565b3480156105aa57600080fd5b5061034e6105b9366004612e66565b6000908152600e602052604090205490565b3480156105d757600080fd5b5061034e6105e63660046132a2565b61186c565b3480156105f757600080fd5b5061031b610606366004612ec0565b6118f2565b34801561061757600080fd5b506006546001600160a01b03166102e3565b34801561063557600080fd5b506106496106443660046132a2565b611943565b60405161029891906132bf565b34801561066257600080fd5b506102b66119ae565b34801561067757600080fd5b5061068b610686366004612e66565b6119bd565b60405161029891906132d2565b3480156106a457600080fd5b5061028c6106b3366004613327565b611aa9565b3480156106c457600080fd5b5061031b6106d3366004613345565b611b01565b3480156106e457600080fd5b50600b5461034e565b3480156106f957600080fd5b5061039c610708366004612ee2565b611b10565b34801561071957600080fd5b5061031b61072836600461337a565b611bfd565b61028c61073b366004612e66565b611c84565b34801561074c57600080fd5b5061031b61075b3660046133af565b611cd6565b34801561076c57600080fd5b5061028c61077b36600461342e565b611d0e565b34801561078c57600080fd5b506102b661079b366004612e66565b611e3e565b3480156107ac57600080fd5b5061034e6107bb3660046132a2565b6001600160a01b031660009081526013602052604090205490565b3480156107e257600080fd5b5061034e6107f136600461347d565b611eb2565b34801561080257600080fd5b5061028c6108113660046134b8565b6001600160a01b03918216600090815260056020908152604080832093909416825291909152205460ff1690565b34801561084b57600080fd5b5061028c61085a36600461321f565b6120bc565b34801561086b57600080fd5b5061028c61087a366004612ec0565b612113565b34801561088b57600080fd5b506102b661089a3660046131d9565b6122bb565b60006001600160e01b031982166380ac58cd60e01b14806108d057506001600160e01b03198216635b5e139f60e01b145b806108eb57506301ffc9a760e01b6001600160e01b03198316145b92915050565b606060008054610900906134e6565b80601f016020809104026020016040519081016040528092919081815260200182805461092c906134e6565b80156109795780601f1061094e57610100808354040283529160200191610979565b820191906000526020600020905b81548152906001019060200180831161095c57829003601f168201915b5050505050905090565b600061098e8261238a565b506000908152600460205260409020546001600160a01b031690565b60006109b58261180c565b9050806001600160a01b0316836001600160a01b031603610a275760405162461bcd60e51b815260206004820152602160248201527f4552433732313a20617070726f76616c20746f2063757272656e74206f776e656044820152603960f91b60648201526084015b60405180910390fd5b336001600160a01b0382161480610a435750610a438133610811565b610ab55760405162461bcd60e51b815260206004820152603d60248201527f4552433732313a20617070726f76652063616c6c6572206973206e6f7420746f60448201527f6b656e206f776e6572206f7220617070726f76656420666f7220616c6c0000006064820152608401610a1e565b610abf83836123ec565b505050565b600063042322b960e21b8233610ada82826120bc565b1580610aed5750610aeb8383611aa9565b155b15610b165760405163472511eb60e11b81526001600160a01b0382166004820152602401610a1e565b6000610b2187610f9a565b9050600281516004811115610b3857610b38612fb8565b14610b59578051604051633ba7bf8960e11b8152610a1e9190600401613520565b6000878152600f6020908152604080832033845290915290205460ff1615610b9657604051633512759d60e21b8152336004820152602401610a1e565b6000878152600f602090815260408083203384528252808320805460ff19166001179055898352600e9091528120805491610bd083613544565b9091555050600b546000888152600e602052604090205410610d67576000878152600c60205260409020805460ff1916600317905560e0810151610c14908861245a565b610c278782606001518360e001516125e5565b60008160e001516001600160a01b0316826060015160405160006040518083038185875af1925050503d8060008114610c7c576040519150601f19603f3d011682016040523d82523d6000602084013e610c81565b606091505b50509050801580610ca357506000878152600d60205260409020546060830151115b15610ce0576000878152600d602052604090819020546060840151915163cf47918160e01b8152610a1e9290600401918252602082015260400190565b877f2da408880f35ba4c128d53d978436383214730e9e4f141928a16650273b3c32a6003604051610d119190613520565b60405180910390a28160e001516001600160a01b0316877f9da6493a92039daf47d1f2d7a782299c5994c6323eb1e972f69c432089ec52bf8460600151604051610d5d91815260200190565b60405180910390a3505b5060019695505050505050565b60006309cbf02560e11b8233610d8a82826120bc565b1580610d9d5750610d9b8383611aa9565b155b15610dc65760405163472511eb60e11b81526001600160a01b0382166004820152602401610a1e565b6000610dd187610f9a565b9050600481516004811115610de857610de8612fb8565b1480610e065750600381516004811115610e0457610e04612fb8565b145b15610e27578051604051633ba7bf8960e11b8152610a1e9190600401613520565b6000878152600c6020526040902080546004919060ff19166001830217905550867f2da408880f35ba4c128d53d978436383214730e9e4f141928a16650273b3c32a6004604051610e789190613520565b60405180910390a25060019695505050505050565b6060816001600160401b03811115610ea757610ea761312e565b604051908082528060200260200182016040528015610eda57816020015b6060815260200190600190039081610ec55790505b50905060005b82811015610f9357600030858584818110610efd57610efd61355d565b9050602002810190610f0f9190613573565b604051610f1d9291906135c0565b600060405180830381855afa9150503d8060008114610f58576040519150601f19603f3d011682016040523d82523d6000602084013e610f5d565b606091505b5091505080838381518110610f7457610f7461355d565b6020026020010181905250508080610f8b90613544565b915050610ee0565b5092915050565b610ff3604080516101208101909152806000815260200160608152602001606081526020016000815260200160008152602001606081526020016000815260200160006001600160a01b03168152602001606081525090565b6000828152600c6020526040808220815161012081019092528054829060ff16600481111561102457611024612fb8565b600481111561103557611035612fb8565b8152602001600182018054611049906134e6565b80601f0160208091040260200160405190810160405280929190818152602001828054611075906134e6565b80156110c25780601f10611097576101008083540402835291602001916110c2565b820191906000526020600020905b8154815290600101906020018083116110a557829003601f168201915b505050505081526020016002820180546110db906134e6565b80601f0160208091040260200160405190810160405280929190818152602001828054611107906134e6565b80156111545780601f1061112957610100808354040283529160200191611154565b820191906000526020600020905b81548152906001019060200180831161113757829003601f168201915b505050505081526020016003820154815260200160048201548152602001600582018054806020026020016040519081016040528092919081815260200182805480156111c057602002820191906000526020600020905b8154815260200190600101908083116111ac575b50505091835250506006820154602082015260078201546001600160a01b031660408201526008820180546060909201916111fa906134e6565b80601f0160208091040260200160405190810160405280929190818152602001828054611226906134e6565b80156112735780601f1061124857610100808354040283529160200191611273565b820191906000526020600020905b81548152906001019060200180831161125657829003601f168201915b505050505081525050905042816080015110156108eb5780608001516000036112b2576040516345e2cbed60e01b815260048101849052602401610a1e565b6003815160048111156112c7576112c7612fb8565b146108eb576004815292915050565b6112e03382612676565b6112fc5760405162461bcd60e51b8152600401610a1e906135d0565b610abf8383836126f5565b6000818152600960205260409020805460609190611324906134e6565b80601f0160208091040260200160405190810160405280929190818152602001828054611350906134e6565b801561139d5780601f106113725761010080835404028352916020019161139d565b820191906000526020600020905b81548152906001019060200180831161138057829003601f168201915b50505050509050919050565b6113b282612859565b6000828152600c602052604090206002016113cd8282613672565b50817ff608c377d37afaf8d19d5b32cb0cb388e64cc92b5b8e263396f34a562b99d371826040516113fe9190612e53565b60405180910390a25050565b610abf83838360405180602001604052806000815250611cd6565b6000630441a3e760e41b833361143b82826120bc565b158061144e575061144c8383611aa9565b155b156114775760405163472511eb60e11b81526001600160a01b0382166004820152602401610a1e565b6000868152600d6020526040902054858110156114c2576000878152600d60205260409081902054905163cf47918160e01b8152600481019190915260248101879052604401610a1e565b6000878152600d6020526040812080548892906114e0908490613735565b9091555050604051600090339088908381818185875af1925050503d8060008114611527576040519150601f19603f3d011682016040523d82523d6000602084013e61152c565b606091505b50509050806115585760405163cf47918160e01b81526004810183905260248101889052604401610a1e565b604051878152339089907f9da6493a92039daf47d1f2d7a782299c5994c6323eb1e972f69c432089ec52bf906020015b60405180910390a3506001979650505050505050565b6006546001600160a01b031633146115cb5760405163472511eb60e11b8152336004820152602401610a1e565b60405133904790600081818185875af1925050503d806000811461160b576040519150601f19603f3d011682016040523d82523d6000602084013e611610565b606091505b50506040514781523391506000907f9da6493a92039daf47d1f2d7a782299c5994c6323eb1e972f69c432089ec52bf9060200160405180910390a3565b61165682612859565b6000828152600c602052604090206001016116718282613672565b50817f56f46d3f19f6cbee6fd2120d9a27053b85f976606730b6c2ce520d477fae4292826040516113fe9190612e53565b806000036116eb5760405162461bcd60e51b8152602060048201526016602482015275496e76616c6964206d696e696d756d2071756f72756d60501b6044820152606401610a1e565b600b8190556040518181527ff18f88786aae85a652aadb99a82462616489a33370c9bcc7b245906812ef7cd19060200160405180910390a150565b61172f82612859565b6000828152600c6020526040902060080161174a8282613672565b50817f459157ba24c7ab9878b165ef465fa6ae2ab42bcd8445f576be378768b0c47309826040516113fe9190612e53565b8160000361179f576040516336b242eb60e21b815260048101839052602401610a1e565b6001600160e01b031983166000818152600860209081526040808320868452825291829020805460ff191685151590811790915591519182528492917ff72cf37738ab1ee401cdc8f05bc3e31194ed55e5bcfd1ad48093b595c2a621d291015b60405180910390a3505050565b6000818152600260205260408120546001600160a01b0316806108eb5760405162461bcd60e51b8152602060048201526018602482015277115490cdcc8c4e881a5b9d985b1a59081d1bdad95b88125160421b6044820152606401610a1e565b60006001600160a01b0382166118d65760405162461bcd60e51b815260206004820152602960248201527f4552433732313a2061646472657373207a65726f206973206e6f7420612076616044820152683634b21037bbb732b960b91b6064820152608401610a1e565b506001600160a01b031660009081526003602052604090205490565b6118fb82612859565b6000828152600c6020526040908190206004018290555182907f275dd536a6956e78302b90e20bb13c379fb11632284794aa77ad452d0f472a15906113fe9084815260200190565b6001600160a01b03811660009081526010602090815260409182902080548351818402810184019094528084526060939283018282801561139d57602002820191906000526020600020905b81548152602001906001019080831161198f5750505050509050919050565b606060018054610900906134e6565b606060116000838152602001908152602001600020805480602002602001604051908101604052809291908181526020016000905b82821015611a9e578382906000526020600020018054611a11906134e6565b80601f0160208091040260200160405190810160405280929190818152602001828054611a3d906134e6565b8015611a8a5780601f10611a5f57610100808354040283529160200191611a8a565b820191906000526020600020905b815481529060010190602001808311611a6d57829003601f168201915b5050505050815260200190600101906119f2565b505050509050919050565b600033611abe6006546001600160a01b031690565b6001600160a01b031603611ad4575060016108eb565b506001600160e01b0319919091166000908152600860209081526040808320938352929052205460ff1690565b611b0c3383836128e8565b5050565b6060816001600160401b03811115611b2a57611b2a61312e565b604051908082528060200260200182016040528015611b5d57816020015b6060815260200190600190039081611b485790505b50905060005b82811015610f9357611bcd30858584818110611b8157611b8161355d565b9050602002810190611b939190613573565b8080601f0160208091040260200160405190810160405280939291908181526020018383808284376000920191909152506129ae92505050565b828281518110611bdf57611bdf61355d565b60200260200101819052508080611bf590613544565b915050611b63565b82600003611c21576040516336b242eb60e21b815260048101849052602401610a1e565b60008381526007602090815260408083206001600160a01b03861680855290835292819020805460ff1916851515908117909155905190815285917f394b55d0358e2f1133a0f0c1d37af480d46b61463faa7e9cee65134ccf54248591016117ff565b6000818152600d6020908152604080832034908190559051908152339184917feaa18152488ce5959073c9c79c88ca90b3d96c00de1f118cfaad664c3dab06b9910160405180910390a3506001919050565b611ce03383612676565b611cfc5760405162461bcd60e51b8152600401610a1e906135d0565b611d08848484846129d3565b50505050565b600063c66e954360e01b8333611d2482826120bc565b1580611d375750611d358383611aa9565b155b15611d605760405163472511eb60e11b81526001600160a01b0382166004820152602401610a1e565b6000611d6b88610f9a565b9050600181516004811115611d8257611d82612fb8565b03611da5576000888152600c60205260409020805460ff19166002179055611ddb565b600281516004811115611dba57611dba612fb8565b14611ddb578051604051633ba7bf8960e11b8152610a1e9190600401613520565b600088815260116020908152604082208054600181018255908352912001611e038782613672565b50336001600160a01b0316887fa113d8544e03d8ca3bb9efae1a2a4ffedc87358f9cab0647fdcfbcac72f6ac83886040516115889190612e53565b6060611e498261238a565b6000611e6060408051602081019091526000815290565b90506000815111611e805760405180602001604052806000815250611eab565b80611e8a84612a06565b604051602001611e9b929190613748565b6040516020818303038152906040525b9392505050565b600063e610a2dd60e01b60c083013533611ecc82826120bc565b1580611edf5750611edd8383611aa9565b155b15611f085760405163472511eb60e11b81526001600160a01b0382166004820152602401610a1e565b4285608001351015611f395760405163a32789d960e01b815260808601356004820152426024820152604401610a1e565b6000611f486020870187613784565b6004811115611f5957611f59612fb8565b14611f8557611f6b6020860186613784565b604051633ba7bf8960e11b8152600401610a1e9190613520565b60c08501356000908152600d60205260409020546060860135811080611fb457506509184e72a0008660600135105b15611fdf5760405163cf47918160e01b81526004810182905260608701356024820152604401610a1e565b600a8054600101908190556000908152600c6020526040902086906120048282613993565b5050336000908152601060209081526040808320600a80548254600181018455928652848620909201919091555483526012909152902042905561204f610100870160e088016132a2565b6001600160a01b0316336001600160a01b0316600a547f487933e034710db4f40e8db61e822d2fff54215ca95e11baff632af66e1fbab689606001358a608001356040516120a7929190918252602082015260400190565b60405180910390a45050600a54949350505050565b6000336120d16006546001600160a01b031690565b6001600160a01b0316036120e7575060016108eb565b5060009182526007602090815260408084206001600160a01b0393909316845291905290205460ff1690565b6000630f3ae70f60e41b823361212982826120bc565b158061213c575061213a8383611aa9565b155b156121655760405163472511eb60e11b81526001600160a01b0382166004820152602401610a1e565b600061217087610f9a565b905060008151600481111561218757612187612fb8565b146121a8578051604051633ba7bf8960e11b8152610a1e9190600401613520565b6121b68160a0015187612a98565b6121d6576040516336b242eb60e21b815260048101879052602401610a1e565b60e08101516001600160a01b031661220e576000878152600c6020526040902060070180546001600160a01b0319163317905561223d565b60e08101516001600160a01b0316331461223d5760405163472511eb60e11b8152336004820152602401610a1e565b6000878152600c60209081526040808320805460ff1916600190811790915560e08501516001600160a01b031684526010835281842080549182018155845291832090910189905551339189917f51747b1d57e7c06f70f592aaaefde3fc6cd4b89a2e45b9f53126f2acf054c3d29190a35060019695505050505050565b606081516000036122e15781604051637212eea760e11b8152600401610a1e9190612e53565b60008381526009602052604090206122f98382613672565b8054612304906134e6565b80601f0160208091040260200160405190810160405280929190818152602001828054612330906134e6565b801561237d5780601f106123525761010080835404028352916020019161237d565b820191906000526020600020905b81548152906001019060200180831161236057829003601f168201915b5050505050905092915050565b6000818152600260205260409020546001600160a01b03166123e95760405162461bcd60e51b8152602060048201526018602482015277115490cdcc8c4e881a5b9d985b1a59081d1bdad95b88125160421b6044820152606401610a1e565b50565b600081815260046020526040902080546001600160a01b0319166001600160a01b03841690811790915581906124218261180c565b6001600160a01b03167f8c5be1e5ebec7d5bd14f71427d1e84f3dd0314c0f7b2291e5b200ac8c7c3b92560405160405180910390a45050565b6001600160a01b0382166124b05760405162461bcd60e51b815260206004820181905260248201527f4552433732313a206d696e7420746f20746865207a65726f20616464726573736044820152606401610a1e565b6000818152600260205260409020546001600160a01b0316156125155760405162461bcd60e51b815260206004820152601c60248201527f4552433732313a20746f6b656e20616c7265616479206d696e746564000000006044820152606401610a1e565b6000818152600260205260409020546001600160a01b03161561257a5760405162461bcd60e51b815260206004820152601c60248201527f4552433732313a20746f6b656e20616c7265616479206d696e746564000000006044820152606401610a1e565b6001600160a01b038216600081815260036020908152604080832080546001019055848352600290915280822080546001600160a01b0319168417905551839291907fddf252ad1be2c89b69c2b068fc378daa952ba7f163c4a11628f55a4df523b3ef908290a45050565b60006125f76509184e72a00084613a69565b6000858152601260205260409020546126109042613735565b61261a91906138e7565b6001600160a01b038316600090815260136020526040812080549293508392909190612647908490613a8b565b9091555050336000908152601360205260408120805483929061266b908490613a8b565b909155505050505050565b6000806126828361180c565b9050806001600160a01b0316846001600160a01b031614806126c957506001600160a01b0380821660009081526005602090815260408083209388168352929052205460ff165b806126ed5750836001600160a01b03166126e284610983565b6001600160a01b0316145b949350505050565b826001600160a01b03166127088261180c565b6001600160a01b03161461272e5760405162461bcd60e51b8152600401610a1e90613a9e565b6001600160a01b0382166127905760405162461bcd60e51b8152602060048201526024808201527f4552433732313a207472616e7366657220746f20746865207a65726f206164646044820152637265737360e01b6064820152608401610a1e565b826001600160a01b03166127a38261180c565b6001600160a01b0316146127c95760405162461bcd60e51b8152600401610a1e90613a9e565b600081815260046020908152604080832080546001600160a01b03199081169091556001600160a01b0387811680865260038552838620805460001901905590871680865283862080546001019055868652600290945282852080549092168417909155905184937fddf252ad1be2c89b69c2b068fc378daa952ba7f163c4a11628f55a4df523b3ef91a4505050565b600061286482610f9a565b905060038151600481111561287b5761287b612fb8565b1480612899575060048151600481111561289757612897612fb8565b145b156128bb5780516040516306f4489360e11b8152610a1e918491600401613ae3565b6128c98160c00151336120bc565b611b0c5760405163472511eb60e11b8152336004820152602401610a1e565b816001600160a01b0316836001600160a01b0316036129495760405162461bcd60e51b815260206004820152601960248201527f4552433732313a20617070726f766520746f2063616c6c6572000000000000006044820152606401610a1e565b6001600160a01b03838116600081815260056020908152604080832094871680845294825291829020805460ff191686151590811790915591519182527f17307eab39ab6107e8899845ad3d59bd9653f200f220920489ca2b5937696c3191016117ff565b6060611eab8383604051806060016040528060278152602001613bb660279139612ae1565b6129de8484846126f5565b6129ea84848484612b59565b611d085760405162461bcd60e51b8152600401610a1e90613af7565b60606000612a1383612c5a565b60010190506000816001600160401b03811115612a3257612a3261312e565b6040519080825280601f01601f191660200182016040528015612a5c576020820181803683370190505b5090508181016020015b600019016f181899199a1a9b1b9c1cb0b131b232b360811b600a86061a8153600a8504945084612a6657509392505050565b6000805b8351811015612ad75782848281518110612ab857612ab861355d565b602002602001015103612acf5760019150506108eb565b600101612a9c565b5060009392505050565b6060600080856001600160a01b031685604051612afe9190613b49565b600060405180830381855af49150503d8060008114612b39576040519150601f19603f3d011682016040523d82523d6000602084013e612b3e565b606091505b5091509150612b4f86838387612d32565b9695505050505050565b60006001600160a01b0384163b15612c4f57604051630a85bd0160e11b81526001600160a01b0385169063150b7a0290612b9d903390899088908890600401613b65565b6020604051808303816000875af1925050508015612bd8575060408051601f3d908101601f19168201909252612bd591810190613b98565b60015b612c35573d808015612c06576040519150601f19603f3d011682016040523d82523d6000602084013e612c0b565b606091505b508051600003612c2d5760405162461bcd60e51b8152600401610a1e90613af7565b805181602001fd5b6001600160e01b031916630a85bd0160e11b1490506126ed565b506001949350505050565b60008072184f03e93ff9f4daa797ed6e38ed64bf6a1f0160401b8310612c995772184f03e93ff9f4daa797ed6e38ed64bf6a1f0160401b830492506040015b6d04ee2d6d415b85acef81000000008310612cc5576d04ee2d6d415b85acef8100000000830492506020015b662386f26fc100008310612ce357662386f26fc10000830492506010015b6305f5e1008310612cfb576305f5e100830492506008015b6127108310612d0f57612710830492506004015b60648310612d21576064830492506002015b600a83106108eb5760010192915050565b60608315612da1578251600003612d9a576001600160a01b0385163b612d9a5760405162461bcd60e51b815260206004820152601d60248201527f416464726573733a2063616c6c20746f206e6f6e2d636f6e74726163740000006044820152606401610a1e565b50816126ed565b6126ed8383815115612db65781518083602001fd5b8060405162461bcd60e51b8152600401610a1e9190612e53565b6001600160e01b0319811681146123e957600080fd5b600060208284031215612df857600080fd5b8135611eab81612dd0565b60005b83811015612e1e578181015183820152602001612e06565b50506000910152565b60008151808452612e3f816020860160208601612e03565b601f01601f19169290920160200192915050565b602081526000611eab6020830184612e27565b600060208284031215612e7857600080fd5b5035919050565b6001600160a01b03811681146123e957600080fd5b60008060408385031215612ea757600080fd5b8235612eb281612e7f565b946020939093013593505050565b60008060408385031215612ed357600080fd5b50508035926020909101359150565b60008060208385031215612ef557600080fd5b82356001600160401b0380821115612f0c57600080fd5b818501915085601f830112612f2057600080fd5b813581811115612f2f57600080fd5b8660208260051b8501011115612f4457600080fd5b60209290920196919550909350505050565b6000602080830181845280855180835260408601915060408160051b870101925083870160005b82811015612fab57603f19888603018452612f99858351612e27565b94509285019290850190600101612f7d565b5092979650505050505050565b634e487b7160e01b600052602160045260246000fd5b60058110612fec57634e487b7160e01b600052602160045260246000fd5b9052565b600081518084526020808501945080840160005b8381101561302057815187529582019590820190600101613004565b509495945050505050565b6020815261303d602082018351612fce565b6000602083015161012080604085015261305b610140850183612e27565b91506040850151601f19808685030160608701526130798483612e27565b935060608701516080870152608087015160a087015260a08701519150808685030160c08701526130aa8483612ff0565b935060c087015160e087015260e087015191506101006130d4818801846001600160a01b03169052565b870151868503909101838701529050612b4f8382612e27565b60008060006060848603121561310257600080fd5b833561310d81612e7f565b9250602084013561311d81612e7f565b929592945050506040919091013590565b634e487b7160e01b600052604160045260246000fd5b60006001600160401b038084111561315e5761315e61312e565b604051601f8501601f19908116603f011681019082821181831017156131865761318661312e565b8160405280935085815286868601111561319f57600080fd5b858560208301376000602087830101525050509392505050565b600082601f8301126131ca57600080fd5b611eab83833560208501613144565b600080604083850312156131ec57600080fd5b8235915060208301356001600160401b0381111561320957600080fd5b613215858286016131b9565b9150509250929050565b6000806040838503121561323257600080fd5b82359150602083013561324481612e7f565b809150509250929050565b8035801515811461325f57600080fd5b919050565b60008060006060848603121561327957600080fd5b833561328481612dd0565b9250602084013591506132996040850161324f565b90509250925092565b6000602082840312156132b457600080fd5b8135611eab81612e7f565b602081526000611eab6020830184612ff0565b6000602080830181845280855180835260408601915060408160051b870101925083870160005b82811015612fab57603f19888603018452613315858351612e27565b945092850192908501906001016132f9565b6000806040838503121561333a57600080fd5b8235612eb281612dd0565b6000806040838503121561335857600080fd5b823561336381612e7f565b91506133716020840161324f565b90509250929050565b60008060006060848603121561338f57600080fd5b8335925060208401356133a181612e7f565b91506132996040850161324f565b600080600080608085870312156133c557600080fd5b84356133d081612e7f565b935060208501356133e081612e7f565b92506040850135915060608501356001600160401b0381111561340257600080fd5b8501601f8101871361341357600080fd5b61342287823560208401613144565b91505092959194509250565b60008060006060848603121561344357600080fd5b833592506020840135915060408401356001600160401b0381111561346757600080fd5b613473868287016131b9565b9150509250925092565b60006020828403121561348f57600080fd5b81356001600160401b038111156134a557600080fd5b82016101208185031215611eab57600080fd5b600080604083850312156134cb57600080fd5b82356134d681612e7f565b9150602083013561324481612e7f565b600181811c908216806134fa57607f821691505b60208210810361351a57634e487b7160e01b600052602260045260246000fd5b50919050565b602081016108eb8284612fce565b634e487b7160e01b600052601160045260246000fd5b6000600182016135565761355661352e565b5060010190565b634e487b7160e01b600052603260045260246000fd5b6000808335601e1984360301811261358a57600080fd5b8301803591506001600160401b038211156135a457600080fd5b6020019150368190038213156135b957600080fd5b9250929050565b8183823760009101908152919050565b6020808252602d908201527f4552433732313a2063616c6c6572206973206e6f7420746f6b656e206f776e6560408201526c1c881bdc88185c1c1c9bdd9959609a1b606082015260800190565b5b81811015611b0c576000815560010161361e565b601f821115610abf57806000526020600020601f840160051c810160208510156136595750805b61366b601f850160051c83018261361d565b5050505050565b81516001600160401b0381111561368b5761368b61312e565b61369f8161369984546134e6565b84613632565b602080601f8311600181146136d457600084156136bc5750858301515b600019600386901b1c1916600185901b17855561372d565b600085815260208120601f198616915b82811015613703578886015182559484019460019091019084016136e4565b50858210156137215787850151600019600388901b60f8161c191681555b505060018460011b0185555b505050505050565b818103818111156108eb576108eb61352e565b6000835161375a818460208801612e03565b83519083019061376e818360208801612e03565b01949350505050565b600581106123e957600080fd5b60006020828403121561379657600080fd5b8135611eab81613777565b600081356108eb81613777565b600582106137cc57634e487b7160e01b600052602160045260246000fd5b60ff1981541660ff831681178255505050565b6001600160401b038311156137f6576137f661312e565b61380a8361380483546134e6565b83613632565b6000601f84116001811461383e57600085156138265750838201355b600019600387901b1c1916600186901b17835561366b565b600083815260209020601f19861690835b8281101561386f578685013582556020948501946001909201910161384f565b508682101561388c5760001960f88860031b161c19848701351681555b505060018560011b0183555050505050565b6000808335601e198436030181126138b557600080fd5b8301803591506001600160401b038211156138cf57600080fd5b6020019150600581901b36038213156135b957600080fd5b80820281158282048414176108eb576108eb61352e565b6001600160401b038311156139155761391561312e565b6801000000000000000083111561392e5761392e61312e565b8054838255808410156139545781600052602060002061395282820186830161361d565b505b50818160005260208060002060005b8681101561397d5783358282015592820192600101613963565b50505050505050565b600081356108eb81612e7f565b6139a561399f836137a1565b826137ae565b6139b26020830183613573565b6139c08183600186016137df565b50506139cf6040830183613573565b6139dd8183600286016137df565b50506060820135600382015560808201356004820155613a0060a083018361389e565b613a0e8183600586016138fe565b505060c08201356006820155613a4d613a2960e08401613986565b6007830180546001600160a01b0319166001600160a01b0392909216919091179055565b613a5b610100830183613573565b611d088183600886016137df565b600082613a8657634e487b7160e01b600052601260045260246000fd5b500490565b808201808211156108eb576108eb61352e565b60208082526025908201527f4552433732313a207472616e736665722066726f6d20696e636f72726563742060408201526437bbb732b960d91b606082015260800190565b82815260408101611eab6020830184612fce565b60208082526032908201527f4552433732313a207472616e7366657220746f206e6f6e20455243373231526560408201527131b2b4bb32b91034b6b83632b6b2b73a32b960711b606082015260800190565b60008251613b5b818460208701612e03565b9190910192915050565b6001600160a01b0385811682528416602082015260408101839052608060608201819052600090612b4f90830184612e27565b600060208284031215613baa57600080fd5b8151611eab81612dd056fe416464726573733a206c6f772d6c6576656c2064656c65676174652063616c6c206661696c6564a2646970667358221220fec8509122776e229e4d3beefbaa566c647994d4d3a69a1840dd1447ebd3c27164736f6c63430008140033",
  "linkReferences": {},
  "deployedLinkReferences": {}
}