{
  "_format": "hh-sol-artifact-1",
  "contractName": "TasksManager",
  "sourceName": "contracts/TasksManager.sol",
  "abi": [
    {
      "inputs": [
        {
          "internalType": "address",
          "name": "voter",
          "type": "address"
        }
      ],
      "name": "AlreadyVoted",
      "type": "error"
    },
    {
      "inputs": [
        {
          "internalType": "uint256",
          "name": "balance",
          "type": "uint256"
        },
        {
          "internalType": "uint256",
          "name": "withdrawAmount",
          "type": "uint256"
        }
      ],
      "name": "InsufficientBalance",
      "type": "error"
    },
    {
      "inputs": [
        {
          "internalType": "uint256",
          "name": "endDate",
          "type": "uint256"
        },
        {
          "internalType": "uint256",
          "name": "blockTimestamp",
          "type": "uint256"
        }
      ],
      "name": "InvalidEndDate",
      "type": "error"
    },
    {
      "inputs": [
        {
          "internalType": "uint256",
          "name": "roleId",
          "type": "uint256"
        }
      ],
      "name": "InvalidRoleId",
      "type": "error"
    },
    {
      "inputs": [
        {
          "internalType": "string",
          "name": "roleName",
          "type": "string"
        }
      ],
      "name": "InvalidRoleName",
      "type": "error"
    },
    {
      "inputs": [
        {
          "internalType": "enum IWeb3Task.Status",
          "name": "status",
          "type": "uint8"
        }
      ],
      "name": "InvalidStatus",
      "type": "error"
    },
    {
      "inputs": [
        {
          "internalType": "uint256",
          "name": "taskId",
          "type": "uint256"
        }
      ],
      "name": "InvalidTaskId",
      "type": "error"
    },
    {
      "inputs": [
        {
          "internalType": "uint256",
          "name": "taskId",
          "type": "uint256"
        },
        {
          "internalType": "enum IWeb3Task.Status",
          "name": "status",
          "type": "uint8"
        }
      ],
      "name": "TaskCannotBeChanged",
      "type": "error"
    },
    {
      "inputs": [
        {
          "internalType": "address",
          "name": "operator",
          "type": "address"
        }
      ],
      "name": "Unauthorized",
      "type": "error"
    },
    {
      "anonymous": false,
      "inputs": [
        {
          "indexed": true,
          "internalType": "address",
          "name": "owner",
          "type": "address"
        },
        {
          "indexed": true,
          "internalType": "address",
          "name": "approved",
          "type": "address"
        },
        {
          "indexed": true,
          "internalType": "uint256",
          "name": "tokenId",
          "type": "uint256"
        }
      ],
      "name": "Approval",
      "type": "event"
    },
    {
      "anonymous": false,
      "inputs": [
        {
          "indexed": true,
          "internalType": "address",
          "name": "owner",
          "type": "address"
        },
        {
          "indexed": true,
          "internalType": "address",
          "name": "operator",
          "type": "address"
        },
        {
          "indexed": false,
          "internalType": "bool",
          "name": "approved",
          "type": "bool"
        }
      ],
      "name": "ApprovalForAll",
      "type": "event"
    },
    {
      "anonymous": false,
      "inputs": [
        {
          "indexed": true,
          "internalType": "bytes4",
          "name": "interfaceId",
          "type": "bytes4"
        },
        {
          "indexed": true,
          "internalType": "uint256",
          "name": "roleId",
          "type": "uint256"
        },
        {
          "indexed": false,
          "internalType": "bool",
          "name": "isAuthorized",
          "type": "bool"
        }
      ],
      "name": "AuthorizeOperator",
      "type": "event"
    },
    {
      "anonymous": false,
      "inputs": [
        {
          "indexed": true,
          "internalType": "uint256",
          "name": "roleId",
          "type": "uint256"
        },
        {
          "indexed": true,
          "internalType": "address",
          "name": "authorizedAddress",
          "type": "address"
        },
        {
          "indexed": false,
          "internalType": "bool",
          "name": "isAuthorized",
          "type": "bool"
        }
      ],
      "name": "AuthorizePersonnel",
      "type": "event"
    },
    {
      "anonymous": false,
      "inputs": [
        {
          "indexed": true,
          "internalType": "uint256",
          "name": "authorizationId",
          "type": "uint256"
        },
        {
          "indexed": true,
          "internalType": "address",
          "name": "depositor",
          "type": "address"
        },
        {
          "indexed": false,
          "internalType": "uint256",
          "name": "amount",
          "type": "uint256"
        }
      ],
      "name": "Deposit",
      "type": "event"
    },
    {
      "anonymous": false,
      "inputs": [
        {
          "indexed": true,
          "internalType": "uint256",
          "name": "taskId",
          "type": "uint256"
        },
        {
          "indexed": false,
          "internalType": "string",
          "name": "description",
          "type": "string"
        }
      ],
      "name": "DescriptionUpdated",
      "type": "event"
    },
    {
      "anonymous": false,
      "inputs": [
        {
          "indexed": true,
          "internalType": "uint256",
          "name": "taskId",
          "type": "uint256"
        },
        {
          "indexed": false,
          "internalType": "uint256",
          "name": "endDate",
          "type": "uint256"
        }
      ],
      "name": "EndDateUpdated",
      "type": "event"
    },
    {
      "anonymous": false,
      "inputs": [
        {
          "indexed": true,
          "internalType": "uint256",
          "name": "taskId",
          "type": "uint256"
        },
        {
          "indexed": false,
          "internalType": "string",
          "name": "metadata",
          "type": "string"
        }
      ],
      "name": "MetadataUpdated",
      "type": "event"
    },
    {
      "anonymous": false,
      "inputs": [
        {
          "indexed": false,
          "internalType": "uint256",
          "name": "value",
          "type": "uint256"
        }
      ],
      "name": "QuorumUpdated",
      "type": "event"
    },
    {
      "anonymous": false,
      "inputs": [
        {
          "indexed": true,
          "internalType": "uint256",
          "name": "taskId",
          "type": "uint256"
        },
        {
          "indexed": true,
          "internalType": "address",
          "name": "creator",
          "type": "address"
        },
        {
          "indexed": true,
          "internalType": "address",
          "name": "assignee",
          "type": "address"
        },
        {
          "indexed": false,
          "internalType": "uint256",
          "name": "reward",
          "type": "uint256"
        },
        {
          "indexed": false,
          "internalType": "uint256",
          "name": "endDate",
          "type": "uint256"
        }
      ],
      "name": "TaskCreated",
      "type": "event"
    },
    {
      "anonymous": false,
      "inputs": [
        {
          "indexed": true,
          "internalType": "uint256",
          "name": "taskId",
          "type": "uint256"
        },
        {
          "indexed": true,
          "internalType": "address",
          "name": "reviewer",
          "type": "address"
        },
        {
          "indexed": false,
          "internalType": "string",
          "name": "metadata",
          "type": "string"
        }
      ],
      "name": "TaskReviewed",
      "type": "event"
    },
    {
      "anonymous": false,
      "inputs": [
        {
          "indexed": true,
          "internalType": "uint256",
          "name": "taskId",
          "type": "uint256"
        },
        {
          "indexed": true,
          "internalType": "address",
          "name": "assignee",
          "type": "address"
        }
      ],
      "name": "TaskStarted",
      "type": "event"
    },
    {
      "anonymous": false,
      "inputs": [
        {
          "indexed": true,
          "internalType": "uint256",
          "name": "taskId",
          "type": "uint256"
        },
        {
          "indexed": false,
          "internalType": "enum IWeb3Task.Status",
          "name": "status",
          "type": "uint8"
        }
      ],
      "name": "TaskUpdated",
      "type": "event"
    },
    {
      "anonymous": false,
      "inputs": [
        {
          "indexed": true,
          "internalType": "uint256",
          "name": "taskId",
          "type": "uint256"
        },
        {
          "indexed": false,
          "internalType": "string",
          "name": "title",
          "type": "string"
        }
      ],
      "name": "TitleUpdated",
      "type": "event"
    },
    {
      "anonymous": false,
      "inputs": [
        {
          "indexed": true,
          "internalType": "address",
          "name": "from",
          "type": "address"
        },
        {
          "indexed": true,
          "internalType": "address",
          "name": "to",
          "type": "address"
        },
        {
          "indexed": true,
          "internalType": "uint256",
          "name": "tokenId",
          "type": "uint256"
        }
      ],
      "name": "Transfer",
      "type": "event"
    },
    {
      "anonymous": false,
      "inputs": [
        {
          "indexed": true,
          "internalType": "uint256",
          "name": "authorizationId",
          "type": "uint256"
        },
        {
          "indexed": true,
          "internalType": "address",
          "name": "withdrawer",
          "type": "address"
        },
        {
          "indexed": false,
          "internalType": "uint256",
          "name": "amount",
          "type": "uint256"
        }
      ],
      "name": "Withdraw",
      "type": "event"
    },
    {
      "inputs": [
        {
          "internalType": "address",
          "name": "to",
          "type": "address"
        },
        {
          "internalType": "uint256",
          "name": "tokenId",
          "type": "uint256"
        }
      ],
      "name": "approve",
      "outputs": [],
      "stateMutability": "nonpayable",
      "type": "function"
    },
    {
      "inputs": [
        {
          "internalType": "address",
          "name": "owner",
          "type": "address"
        }
      ],
      "name": "balanceOf",
      "outputs": [
        {
          "internalType": "uint256",
          "name": "",
          "type": "uint256"
        }
      ],
      "stateMutability": "view",
      "type": "function"
    },
    {
      "inputs": [
        {
          "internalType": "uint256",
          "name": "_taskId",
          "type": "uint256"
        },
        {
          "internalType": "uint256",
          "name": "_roleId",
          "type": "uint256"
        }
      ],
      "name": "cancelTask",
      "outputs": [
        {
          "internalType": "bool",
          "name": "",
          "type": "bool"
        }
      ],
      "stateMutability": "nonpayable",
      "type": "function"
    },
    {
      "inputs": [
        {
          "internalType": "uint256",
          "name": "_taskId",
          "type": "uint256"
        },
        {
          "internalType": "uint256",
          "name": "_roleId",
          "type": "uint256"
        }
      ],
      "name": "completeTask",
      "outputs": [
        {
          "internalType": "bool",
          "name": "",
          "type": "bool"
        }
      ],
      "stateMutability": "nonpayable",
      "type": "function"
    },
    {
      "inputs": [
        {
          "components": [
            {
              "internalType": "enum IWeb3Task.Status",
              "name": "status",
              "type": "uint8"
            },
            {
              "internalType": "string",
              "name": "title",
              "type": "string"
            },
            {
              "internalType": "string",
              "name": "description",
              "type": "string"
            },
            {
              "internalType": "uint256",
              "name": "reward",
              "type": "uint256"
            },
            {
              "internalType": "uint256",
              "name": "endDate",
              "type": "uint256"
            },
            {
              "internalType": "uint256[]",
              "name": "authorizedRoles",
              "type": "uint256[]"
            },
            {
              "internalType": "uint256",
              "name": "creatorRole",
              "type": "uint256"
            },
            {
              "internalType": "address",
              "name": "assignee",
              "type": "address"
            },
            {
              "internalType": "string",
              "name": "metadata",
              "type": "string"
            }
          ],
          "internalType": "struct IWeb3Task.Task",
          "name": "_task",
          "type": "tuple"
        }
      ],
      "name": "createTask",
      "outputs": [
        {
          "internalType": "uint256",
          "name": "",
          "type": "uint256"
        }
      ],
      "stateMutability": "nonpayable",
      "type": "function"
    },
    {
      "inputs": [
        {
          "internalType": "uint256",
          "name": "_roleId",
          "type": "uint256"
        }
      ],
      "name": "deposit",
      "outputs": [
        {
          "internalType": "bool",
          "name": "",
          "type": "bool"
        }
      ],
      "stateMutability": "payable",
      "type": "function"
    },
    {
      "inputs": [],
      "name": "emergengyWithdraw",
      "outputs": [],
      "stateMutability": "nonpayable",
      "type": "function"
    },
    {
      "inputs": [
        {
          "internalType": "uint256",
          "name": "tokenId",
          "type": "uint256"
        }
      ],
      "name": "getApproved",
      "outputs": [
        {
          "internalType": "address",
          "name": "",
          "type": "address"
        }
      ],
      "stateMutability": "view",
      "type": "function"
    },
    {
      "inputs": [
        {
          "internalType": "uint256",
          "name": "_roleId",
          "type": "uint256"
        }
      ],
      "name": "getBalance",
      "outputs": [
        {
          "internalType": "uint256",
          "name": "",
          "type": "uint256"
        }
      ],
      "stateMutability": "view",
      "type": "function"
    },
    {
      "inputs": [],
      "name": "getMinQuorum",
      "outputs": [
        {
          "internalType": "uint256",
          "name": "",
          "type": "uint256"
        }
      ],
      "stateMutability": "view",
      "type": "function"
    },
    {
      "inputs": [
        {
          "internalType": "uint256",
          "name": "_taskId",
          "type": "uint256"
        }
      ],
      "name": "getQuorumApprovals",
      "outputs": [
        {
          "internalType": "uint256",
          "name": "",
          "type": "uint256"
        }
      ],
      "stateMutability": "view",
      "type": "function"
    },
    {
      "inputs": [
        {
          "internalType": "uint256",
          "name": "_taskId",
          "type": "uint256"
        }
      ],
      "name": "getReviews",
      "outputs": [
        {
          "internalType": "string[]",
          "name": "",
          "type": "string[]"
        }
      ],
      "stateMutability": "view",
      "type": "function"
    },
    {
      "inputs": [
        {
          "internalType": "uint256",
          "name": "_roleId",
          "type": "uint256"
        }
      ],
      "name": "getRoleName",
      "outputs": [
        {
          "internalType": "string",
          "name": "",
          "type": "string"
        }
      ],
      "stateMutability": "view",
      "type": "function"
    },
    {
      "inputs": [
        {
          "internalType": "address",
          "name": "_address",
          "type": "address"
        }
      ],
      "name": "getScore",
      "outputs": [
        {
          "internalType": "uint256",
          "name": "",
          "type": "uint256"
        }
      ],
      "stateMutability": "view",
      "type": "function"
    },
    {
      "inputs": [
        {
          "internalType": "uint256",
          "name": "_taskId",
          "type": "uint256"
        }
      ],
      "name": "getTask",
      "outputs": [
        {
          "components": [
            {
              "internalType": "enum IWeb3Task.Status",
              "name": "status",
              "type": "uint8"
            },
            {
              "internalType": "string",
              "name": "title",
              "type": "string"
            },
            {
              "internalType": "string",
              "name": "description",
              "type": "string"
            },
            {
              "internalType": "uint256",
              "name": "reward",
              "type": "uint256"
            },
            {
              "internalType": "uint256",
              "name": "endDate",
              "type": "uint256"
            },
            {
              "internalType": "uint256[]",
              "name": "authorizedRoles",
              "type": "uint256[]"
            },
            {
              "internalType": "uint256",
              "name": "creatorRole",
              "type": "uint256"
            },
            {
              "internalType": "address",
              "name": "assignee",
              "type": "address"
            },
            {
              "internalType": "string",
              "name": "metadata",
              "type": "string"
            }
          ],
          "internalType": "struct IWeb3Task.Task",
          "name": "",
          "type": "tuple"
        }
      ],
      "stateMutability": "view",
      "type": "function"
    },
    {
      "inputs": [],
      "name": "getTaskId",
      "outputs": [
        {
          "internalType": "uint256",
          "name": "",
          "type": "uint256"
        }
      ],
      "stateMutability": "view",
      "type": "function"
    },
    {
      "inputs": [
        {
          "internalType": "address",
          "name": "_address",
          "type": "address"
        }
      ],
      "name": "getUserTasks",
      "outputs": [
        {
          "internalType": "uint256[]",
          "name": "",
          "type": "uint256[]"
        }
      ],
      "stateMutability": "view",
      "type": "function"
    },
    {
      "inputs": [
        {
          "internalType": "uint256",
          "name": "_roleId",
          "type": "uint256"
        },
        {
          "internalType": "address",
          "name": "_address",
          "type": "address"
        }
      ],
      "name": "hasRole",
      "outputs": [
        {
          "internalType": "bool",
          "name": "",
          "type": "bool"
        }
      ],
      "stateMutability": "view",
      "type": "function"
    },
    {
      "inputs": [
        {
          "internalType": "uint256",
          "name": "_taskId",
          "type": "uint256"
        },
        {
          "internalType": "address",
          "name": "_addr",
          "type": "address"
        }
      ],
      "name": "hasVoted",
      "outputs": [
        {
          "internalType": "bool",
          "name": "",
          "type": "bool"
        }
      ],
      "stateMutability": "view",
      "type": "function"
    },
    {
      "inputs": [
        {
          "internalType": "address",
          "name": "owner",
          "type": "address"
        },
        {
          "internalType": "address",
          "name": "operator",
          "type": "address"
        }
      ],
      "name": "isApprovedForAll",
      "outputs": [
        {
          "internalType": "bool",
          "name": "",
          "type": "bool"
        }
      ],
      "stateMutability": "view",
      "type": "function"
    },
    {
      "inputs": [
        {
          "internalType": "bytes4",
          "name": "_interfaceId",
          "type": "bytes4"
        },
        {
          "internalType": "uint256",
          "name": "_roleId",
          "type": "uint256"
        }
      ],
      "name": "isOperator",
      "outputs": [
        {
          "internalType": "bool",
          "name": "",
          "type": "bool"
        }
      ],
      "stateMutability": "view",
      "type": "function"
    },
    {
      "inputs": [
        {
          "internalType": "bytes[]",
          "name": "data",
          "type": "bytes[]"
        }
      ],
      "name": "multicall",
      "outputs": [
        {
          "internalType": "bytes[]",
          "name": "results",
          "type": "bytes[]"
        }
      ],
      "stateMutability": "nonpayable",
      "type": "function"
    },
    {
      "inputs": [
        {
          "internalType": "bytes[]",
          "name": "data",
          "type": "bytes[]"
        }
      ],
      "name": "multicallRead",
      "outputs": [
        {
          "internalType": "bytes[]",
          "name": "results",
          "type": "bytes[]"
        }
      ],
      "stateMutability": "view",
      "type": "function"
    },
    {
      "inputs": [],
      "name": "name",
      "outputs": [
        {
          "internalType": "string",
          "name": "",
          "type": "string"
        }
      ],
      "stateMutability": "view",
      "type": "function"
    },
    {
      "inputs": [],
      "name": "owner",
      "outputs": [
        {
          "internalType": "address",
          "name": "",
          "type": "address"
        }
      ],
      "stateMutability": "view",
      "type": "function"
    },
    {
      "inputs": [
        {
          "internalType": "uint256",
          "name": "tokenId",
          "type": "uint256"
        }
      ],
      "name": "ownerOf",
      "outputs": [
        {
          "internalType": "address",
          "name": "",
          "type": "address"
        }
      ],
      "stateMutability": "view",
      "type": "function"
    },
    {
      "inputs": [
        {
          "internalType": "uint256",
          "name": "_taskId",
          "type": "uint256"
        },
        {
          "internalType": "uint256",
          "name": "_roleId",
          "type": "uint256"
        },
        {
          "internalType": "string",
          "name": "_metadata",
          "type": "string"
        }
      ],
      "name": "reviewTask",
      "outputs": [
        {
          "internalType": "bool",
          "name": "",
          "type": "bool"
        }
      ],
      "stateMutability": "nonpayable",
      "type": "function"
    },
    {
      "inputs": [
        {
          "internalType": "address",
          "name": "from",
          "type": "address"
        },
        {
          "internalType": "address",
          "name": "to",
          "type": "address"
        },
        {
          "internalType": "uint256",
          "name": "tokenId",
          "type": "uint256"
        }
      ],
      "name": "safeTransferFrom",
      "outputs": [],
      "stateMutability": "nonpayable",
      "type": "function"
    },
    {
      "inputs": [
        {
          "internalType": "address",
          "name": "from",
          "type": "address"
        },
        {
          "internalType": "address",
          "name": "to",
          "type": "address"
        },
        {
          "internalType": "uint256",
          "name": "tokenId",
          "type": "uint256"
        },
        {
          "internalType": "bytes",
          "name": "data",
          "type": "bytes"
        }
      ],
      "name": "safeTransferFrom",
      "outputs": [],
      "stateMutability": "nonpayable",
      "type": "function"
    },
    {
      "inputs": [
        {
          "internalType": "address",
          "name": "operator",
          "type": "address"
        },
        {
          "internalType": "bool",
          "name": "approved",
          "type": "bool"
        }
      ],
      "name": "setApprovalForAll",
      "outputs": [],
      "stateMutability": "nonpayable",
      "type": "function"
    },
    {
      "inputs": [
        {
          "internalType": "uint256",
          "name": "_taskId",
          "type": "uint256"
        },
        {
          "internalType": "string",
          "name": "_description",
          "type": "string"
        }
      ],
      "name": "setDescription",
      "outputs": [],
      "stateMutability": "nonpayable",
      "type": "function"
    },
    {
      "inputs": [
        {
          "internalType": "uint256",
          "name": "_taskId",
          "type": "uint256"
        },
        {
          "internalType": "uint256",
          "name": "_endDate",
          "type": "uint256"
        }
      ],
      "name": "setEndDate",
      "outputs": [],
      "stateMutability": "nonpayable",
      "type": "function"
    },
    {
      "inputs": [
        {
          "internalType": "uint256",
          "name": "_taskId",
          "type": "uint256"
        },
        {
          "internalType": "string",
          "name": "_metadata",
          "type": "string"
        }
      ],
      "name": "setMetadata",
      "outputs": [],
      "stateMutability": "nonpayable",
      "type": "function"
    },
    {
      "inputs": [
        {
          "internalType": "uint256",
          "name": "_value",
          "type": "uint256"
        }
      ],
      "name": "setMinQuorum",
      "outputs": [],
      "stateMutability": "nonpayable",
      "type": "function"
    },
    {
      "inputs": [
        {
          "internalType": "bytes4",
          "name": "_interfaceId",
          "type": "bytes4"
        },
        {
          "internalType": "uint256",
          "name": "_roleId",
          "type": "uint256"
        },
        {
          "internalType": "bool",
          "name": "_isAuthorized",
          "type": "bool"
        }
      ],
      "name": "setOperator",
      "outputs": [],
      "stateMutability": "nonpayable",
      "type": "function"
    },
    {
      "inputs": [
        {
          "internalType": "uint256",
          "name": "_roleId",
          "type": "uint256"
        },
        {
          "internalType": "string",
          "name": "_roleName",
          "type": "string"
        },
        {
          "internalType": "address",
          "name": "_authorizedAddress",
          "type": "address"
        },
        {
          "internalType": "bool",
          "name": "_isAuthorized",
          "type": "bool"
        }
      ],
      "name": "setRole",
      "outputs": [],
      "stateMutability": "nonpayable",
      "type": "function"
    },
    {
      "inputs": [
        {
          "internalType": "uint256",
          "name": "_roleId",
          "type": "uint256"
        },
        {
          "internalType": "string",
          "name": "_roleName",
          "type": "string"
        }
      ],
      "name": "setRoleName",
      "outputs": [
        {
          "internalType": "string",
          "name": "",
          "type": "string"
        }
      ],
      "stateMutability": "nonpayable",
      "type": "function"
    },
    {
      "inputs": [
        {
          "internalType": "uint256",
          "name": "_taskId",
          "type": "uint256"
        },
        {
          "internalType": "string",
          "name": "_title",
          "type": "string"
        }
      ],
      "name": "setTitle",
      "outputs": [],
      "stateMutability": "nonpayable",
      "type": "function"
    },
    {
      "inputs": [
        {
          "internalType": "uint256",
          "name": "_taskId",
          "type": "uint256"
        },
        {
          "internalType": "uint256",
          "name": "_roleId",
          "type": "uint256"
        }
      ],
      "name": "startTask",
      "outputs": [
        {
          "internalType": "bool",
          "name": "",
          "type": "bool"
        }
      ],
      "stateMutability": "nonpayable",
      "type": "function"
    },
    {
      "inputs": [
        {
          "internalType": "bytes4",
          "name": "interfaceId",
          "type": "bytes4"
        }
      ],
      "name": "supportsInterface",
      "outputs": [
        {
          "internalType": "bool",
          "name": "",
          "type": "bool"
        }
      ],
      "stateMutability": "view",
      "type": "function"
    },
    {
      "inputs": [],
      "name": "symbol",
      "outputs": [
        {
          "internalType": "string",
          "name": "",
          "type": "string"
        }
      ],
      "stateMutability": "view",
      "type": "function"
    },
    {
      "inputs": [
        {
          "internalType": "uint256",
          "name": "tokenId",
          "type": "uint256"
        }
      ],
      "name": "tokenURI",
      "outputs": [
        {
          "internalType": "string",
          "name": "",
          "type": "string"
        }
      ],
      "stateMutability": "view",
      "type": "function"
    },
    {
      "inputs": [
        {
          "internalType": "address",
          "name": "from",
          "type": "address"
        },
        {
          "internalType": "address",
          "name": "to",
          "type": "address"
        },
        {
          "internalType": "uint256",
          "name": "tokenId",
          "type": "uint256"
        }
      ],
      "name": "transferFrom",
      "outputs": [],
      "stateMutability": "nonpayable",
      "type": "function"
    },
    {
      "inputs": [
        {
          "internalType": "uint256",
          "name": "_roleId",
          "type": "uint256"
        },
        {
          "internalType": "uint256",
          "name": "_amount",
          "type": "uint256"
        }
      ],
      "name": "withdraw",
      "outputs": [
        {
          "internalType": "bool",
          "name": "",
          "type": "bool"
        }
      ],
      "stateMutability": "nonpayable",
      "type": "function"
    }
  ],
  "bytecode": "0x60806040526002600b553480156200001657600080fd5b5060405180604001604052806008815260200167576562335461736b60c01b815250604051806040016040528060048152602001630ae66a8960e31b815250816000908162000066919062000135565b50600162000075828262000135565b5050600680546001600160a01b031916331790555062000201565b634e487b7160e01b600052604160045260246000fd5b600181811c90821680620000bb57607f821691505b602082108103620000dc57634e487b7160e01b600052602260045260246000fd5b50919050565b601f8211156200013057600081815260208120601f850160051c810160208610156200010b5750805b601f850160051c820191505b818110156200012c5782815560010162000117565b5050505b505050565b81516001600160401b0381111562000151576200015162000090565b6200016981620001628454620000a6565b84620000e2565b602080601f831160018114620001a15760008415620001885750858301515b600019600386901b1c1916600185901b1785556200012c565b600085815260208120601f198616915b82811015620001d257888601518255948401946001909101908401620001b1565b5085821015620001f15787850151600019600388901b60f8161c191681555b5050505050600190811b01905550565b613cfa80620002116000396000f3fe6080604052600436106102675760003560e01c80636352211e11610144578063ac9650d8116100b6578063d47875d01161007a578063d47875d0146107a0578063e610a2dd146107d6578063e985e9c5146107f6578063ec2606c01461083f578063f3ae70f01461085f578063fe187c1f1461087f57600080fd5b8063ac9650d81461070d578063b6b55f251461072d578063b88d4fde14610740578063c66e954314610760578063c87b56dd1461078057600080fd5b806395d576601161010857806395d576601461064957806395d89b41146106765780639d4a22551461068b578063a053e7e9146106b8578063a22cb465146106d8578063a9b3bfa9146106f857600080fd5b80636352211e1461059e57806363ef8372146105be57806370a08231146105eb578063751e89421461060b5780638da5cb5b1461062b57600080fd5b806325d3ee44116101dd5780634bbe46b4116101a15780634bbe46b4146104e95780635102bc9d146104fe578063563909de1461051e578063574da2ef1461053e578063593aa2831461055e5780635af4aa051461057e57600080fd5b806325d3ee44146104235780632a6446ca1461044357806342842e0e146104635780634385963214610483578063441a3e70146104c957600080fd5b8063138596881161022f578063138596881461033d5780631397e04a1461035c57806313e9a2631461037c5780631d65e77e146103a95780631e010439146103d657806323b872dd1461040357600080fd5b806301ffc9a71461026c57806306fdde03146102a1578063081812fc146102c3578063095ea7b3146102fb578063108c8ae41461031d575b600080fd5b34801561027857600080fd5b5061028c610287366004612e9a565b61089f565b60405190151581526020015b60405180910390f35b3480156102ad57600080fd5b506102b66108f1565b6040516102989190612f07565b3480156102cf57600080fd5b506102e36102de366004612f1a565b610983565b6040516001600160a01b039091168152602001610298565b34801561030757600080fd5b5061031b610316366004612f48565b6109aa565b005b34801561032957600080fd5b5061028c610338366004612f74565b610ac4565b34801561034957600080fd5b50600a545b604051908152602001610298565b34801561036857600080fd5b5061028c610377366004612f74565b610d9a565b34801561038857600080fd5b5061039c610397366004612f96565b610ed9565b604051610298919061300a565b3480156103b557600080fd5b506103c96103c4366004612f1a565b610fe6565b60405161029891906130df565b3480156103e257600080fd5b5061034e6103f1366004612f1a565b6000908152600d602052604090205490565b34801561040f57600080fd5b5061031b61041e3660046131a1565b611322565b34801561042f57600080fd5b506102b661043e366004612f1a565b611353565b34801561044f57600080fd5b5061031b61045e36600461328d565b6113f5565b34801561046f57600080fd5b5061031b61047e3660046131a1565b611456565b34801561048f57600080fd5b5061028c61049e3660046132d3565b6000918252600f602090815260408084206001600160a01b0393909316845291905290205460ff1690565b3480156104d557600080fd5b5061028c6104e4366004612f74565b611471565b3480156104f557600080fd5b5061031b6115ea565b34801561050a57600080fd5b5061031b61051936600461328d565b611699565b34801561052a57600080fd5b5061031b610539366004612f1a565b6116ee565b34801561054a57600080fd5b5061031b610559366004613318565b611772565b34801561056a57600080fd5b5061031b61057936600461328d565b611849565b34801561058a57600080fd5b5061031b610599366004613381565b61189e565b3480156105aa57600080fd5b506102e36105b9366004612f1a565b61192f565b3480156105ca57600080fd5b5061034e6105d9366004612f1a565b6000908152600e602052604090205490565b3480156105f757600080fd5b5061034e6106063660046133bf565b61198f565b34801561061757600080fd5b5061031b610626366004612f74565b611a15565b34801561063757600080fd5b506006546001600160a01b03166102e3565b34801561065557600080fd5b506106696106643660046133bf565b611a66565b60405161029891906133dc565b34801561068257600080fd5b506102b6611ad1565b34801561069757600080fd5b506106ab6106a6366004612f1a565b611ae0565b60405161029891906133ef565b3480156106c457600080fd5b5061028c6106d3366004613444565b611bcc565b3480156106e457600080fd5b5061031b6106f3366004613462565b611c24565b34801561070457600080fd5b50600b5461034e565b34801561071957600080fd5b5061039c610728366004612f96565b611c33565b61028c61073b366004612f1a565b611d20565b34801561074c57600080fd5b5061031b61075b366004613497565b611d72565b34801561076c57600080fd5b5061028c61077b366004613516565b611daa565b34801561078c57600080fd5b506102b661079b366004612f1a565b611f15565b3480156107ac57600080fd5b5061034e6107bb3660046133bf565b6001600160a01b031660009081526013602052604090205490565b3480156107e257600080fd5b5061034e6107f1366004613565565b611f89565b34801561080257600080fd5b5061028c6108113660046135a0565b6001600160a01b03918216600090815260056020908152604080832093909416825291909152205460ff1690565b34801561084b57600080fd5b5061028c61085a3660046132d3565b612193565b34801561086b57600080fd5b5061028c61087a366004612f74565b6121ea565b34801561088b57600080fd5b506102b661089a36600461328d565b612392565b60006001600160e01b031982166380ac58cd60e01b14806108d057506001600160e01b03198216635b5e139f60e01b145b806108eb57506301ffc9a760e01b6001600160e01b03198316145b92915050565b606060008054610900906135ce565b80601f016020809104026020016040519081016040528092919081815260200182805461092c906135ce565b80156109795780601f1061094e57610100808354040283529160200191610979565b820191906000526020600020905b81548152906001019060200180831161095c57829003601f168201915b5050505050905090565b600061098e8261243e565b506000908152600460205260409020546001600160a01b031690565b60006109b58261192f565b9050806001600160a01b0316836001600160a01b031603610a275760405162461bcd60e51b815260206004820152602160248201527f4552433732313a20617070726f76616c20746f2063757272656e74206f776e656044820152603960f91b60648201526084015b60405180910390fd5b336001600160a01b0382161480610a435750610a438133610811565b610ab55760405162461bcd60e51b815260206004820152603d60248201527f4552433732313a20617070726f76652063616c6c6572206973206e6f7420746f60448201527f6b656e206f776e6572206f7220617070726f76656420666f7220616c6c0000006064820152608401610a1e565b610abf83836124a0565b505050565b600063042322b960e21b8233610ada8282612193565b1580610aed5750610aeb8383611bcc565b155b15610b165760405163472511eb60e11b81526001600160a01b0382166004820152602401610a1e565b6000610b2187610fe6565b9050600281516004811115610b3857610b3861306c565b14610b59578051604051633ba7bf8960e11b8152610a1e9190600401613608565b858160c0015114610b7f5760405163472511eb60e11b8152336004820152602401610a1e565b6000878152600f6020908152604080832033845290915290205460ff1615610bbc57604051633512759d60e21b8152336004820152602401610a1e565b6000878152600f602090815260408083203384528252808320805460ff19166001179055898352600e9091528120805491610bf68361362c565b9091555050600b546000888152600e602052604090205410610d8d576000878152600c60205260409020805460ff1916600317905560e0810151610c3a908861250e565b610c4d8782606001518360e00151612699565b60008160e001516001600160a01b0316826060015160405160006040518083038185875af1925050503d8060008114610ca2576040519150601f19603f3d011682016040523d82523d6000602084013e610ca7565b606091505b50509050801580610cc957506000878152600d60205260409020546060830151115b15610d06576000878152600d602052604090819020546060840151915163cf47918160e01b8152610a1e9290600401918252602082015260400190565b877f2da408880f35ba4c128d53d978436383214730e9e4f141928a16650273b3c32a6003604051610d379190613608565b60405180910390a28160e001516001600160a01b0316877f9da6493a92039daf47d1f2d7a782299c5994c6323eb1e972f69c432089ec52bf8460600151604051610d8391815260200190565b60405180910390a3505b5060019695505050505050565b60006309cbf02560e11b8233610db08282612193565b1580610dc35750610dc18383611bcc565b155b15610dec5760405163472511eb60e11b81526001600160a01b0382166004820152602401610a1e565b6000610df787610fe6565b9050600481516004811115610e0e57610e0e61306c565b1480610e2c5750600381516004811115610e2a57610e2a61306c565b145b15610e4d578051604051633ba7bf8960e11b8152610a1e9190600401613608565b858160c0015114610e735760405163472511eb60e11b8152336004820152602401610a1e565b6000878152600c6020526040902080546004919060ff19166001830217905550867f2da408880f35ba4c128d53d978436383214730e9e4f141928a16650273b3c32a6004604051610ec49190613608565b60405180910390a25060019695505050505050565b6060816001600160401b03811115610ef357610ef36131e2565b604051908082528060200260200182016040528015610f2657816020015b6060815260200190600190039081610f115790505b50905060005b82811015610fdf57600030858584818110610f4957610f49613645565b9050602002810190610f5b919061365b565b604051610f699291906136a8565b600060405180830381855afa9150503d8060008114610fa4576040519150601f19603f3d011682016040523d82523d6000602084013e610fa9565b606091505b5091505080838381518110610fc057610fc0613645565b6020026020010181905250508080610fd79061362c565b915050610f2c565b5092915050565b61103f604080516101208101909152806000815260200160608152602001606081526020016000815260200160008152602001606081526020016000815260200160006001600160a01b03168152602001606081525090565b6000828152600c6020526040808220815161012081019092528054829060ff1660048111156110705761107061306c565b60048111156110815761108161306c565b8152602001600182018054611095906135ce565b80601f01602080910402602001604051908101604052809291908181526020018280546110c1906135ce565b801561110e5780601f106110e35761010080835404028352916020019161110e565b820191906000526020600020905b8154815290600101906020018083116110f157829003601f168201915b50505050508152602001600282018054611127906135ce565b80601f0160208091040260200160405190810160405280929190818152602001828054611153906135ce565b80156111a05780601f10611175576101008083540402835291602001916111a0565b820191906000526020600020905b81548152906001019060200180831161118357829003601f168201915b5050505050815260200160038201548152602001600482015481526020016005820180548060200260200160405190810160405280929190818152602001828054801561120c57602002820191906000526020600020905b8154815260200190600101908083116111f8575b50505091835250506006820154602082015260078201546001600160a01b03166040820152600882018054606090920191611246906135ce565b80601f0160208091040260200160405190810160405280929190818152602001828054611272906135ce565b80156112bf5780601f10611294576101008083540402835291602001916112bf565b820191906000526020600020905b8154815290600101906020018083116112a257829003601f168201915b505050505081525050905042816080015110156108eb5780608001516000036112fe576040516345e2cbed60e01b815260048101849052602401610a1e565b6003815160048111156113135761131361306c565b146108eb576004815292915050565b61132c338261272a565b6113485760405162461bcd60e51b8152600401610a1e906136b8565b610abf8383836127a9565b6000818152600960205260409020805460609190611370906135ce565b80601f016020809104026020016040519081016040528092919081815260200182805461139c906135ce565b80156113e95780601f106113be576101008083540402835291602001916113e9565b820191906000526020600020905b8154815290600101906020018083116113cc57829003601f168201915b50505050509050919050565b6113fe8261290d565b6000828152600c60205260409020600201611419828261375a565b50817ff608c377d37afaf8d19d5b32cb0cb388e64cc92b5b8e263396f34a562b99d3718260405161144a9190612f07565b60405180910390a25050565b610abf83838360405180602001604052806000815250611d72565b6000630441a3e760e41b83336114878282612193565b158061149a57506114988383611bcc565b155b156114c35760405163472511eb60e11b81526001600160a01b0382166004820152602401610a1e565b6000868152600d60205260409020548581101561150e576000878152600d60205260409081902054905163cf47918160e01b8152600481019190915260248101879052604401610a1e565b6000878152600d60205260408120805488929061152c90849061381d565b9091555050604051600090339088908381818185875af1925050503d8060008114611573576040519150601f19603f3d011682016040523d82523d6000602084013e611578565b606091505b50509050806115a45760405163cf47918160e01b81526004810183905260248101889052604401610a1e565b604051878152339089907f9da6493a92039daf47d1f2d7a782299c5994c6323eb1e972f69c432089ec52bf906020015b60405180910390a3506001979650505050505050565b6006546001600160a01b031633146116175760405163472511eb60e11b8152336004820152602401610a1e565b60405133904790600081818185875af1925050503d8060008114611657576040519150601f19603f3d011682016040523d82523d6000602084013e61165c565b606091505b50506040514781523391506000907f9da6493a92039daf47d1f2d7a782299c5994c6323eb1e972f69c432089ec52bf9060200160405180910390a3565b6116a28261290d565b6000828152600c602052604090206001016116bd828261375a565b50817f56f46d3f19f6cbee6fd2120d9a27053b85f976606730b6c2ce520d477fae42928260405161144a9190612f07565b806000036117375760405162461bcd60e51b8152602060048201526016602482015275496e76616c6964206d696e696d756d2071756f72756d60501b6044820152606401610a1e565b600b8190556040518181527ff18f88786aae85a652aadb99a82462616489a33370c9bcc7b245906812ef7cd19060200160405180910390a150565b83600003611796576040516336b242eb60e21b815260048101859052602401610a1e565b82516000036117ba5782604051637212eea760e11b8152600401610a1e9190612f07565b60008481526007602090815260408083206001600160a01b03861684528252808320805460ff1916851515179055868352600990915290206117fc848261375a565b50816001600160a01b0316847f394b55d0358e2f1133a0f0c1d37af480d46b61463faa7e9cee65134ccf5424858360405161183b911515815260200190565b60405180910390a350505050565b6118528261290d565b6000828152600c6020526040902060080161186d828261375a565b50817f459157ba24c7ab9878b165ef465fa6ae2ab42bcd8445f576be378768b0c473098260405161144a9190612f07565b816000036118c2576040516336b242eb60e21b815260048101839052602401610a1e565b6001600160e01b031983166000818152600860209081526040808320868452825291829020805460ff191685151590811790915591519182528492917ff72cf37738ab1ee401cdc8f05bc3e31194ed55e5bcfd1ad48093b595c2a621d291015b60405180910390a3505050565b6000818152600260205260408120546001600160a01b0316806108eb5760405162461bcd60e51b8152602060048201526018602482015277115490cdcc8c4e881a5b9d985b1a59081d1bdad95b88125160421b6044820152606401610a1e565b60006001600160a01b0382166119f95760405162461bcd60e51b815260206004820152602960248201527f4552433732313a2061646472657373207a65726f206973206e6f7420612076616044820152683634b21037bbb732b960b91b6064820152608401610a1e565b506001600160a01b031660009081526003602052604090205490565b611a1e8261290d565b6000828152600c6020526040908190206004018290555182907f275dd536a6956e78302b90e20bb13c379fb11632284794aa77ad452d0f472a159061144a9084815260200190565b6001600160a01b0381166000908152601060209081526040918290208054835181840281018401909452808452606093928301828280156113e957602002820191906000526020600020905b815481526020019060010190808311611ab25750505050509050919050565b606060018054610900906135ce565b606060116000838152602001908152602001600020805480602002602001604051908101604052809291908181526020016000905b82821015611bc1578382906000526020600020018054611b34906135ce565b80601f0160208091040260200160405190810160405280929190818152602001828054611b60906135ce565b8015611bad5780601f10611b8257610100808354040283529160200191611bad565b820191906000526020600020905b815481529060010190602001808311611b9057829003601f168201915b505050505081526020019060010190611b15565b505050509050919050565b600033611be16006546001600160a01b031690565b6001600160a01b031603611bf7575060016108eb565b506001600160e01b0319919091166000908152600860209081526040808320938352929052205460ff1690565b611c2f33838361299c565b5050565b6060816001600160401b03811115611c4d57611c4d6131e2565b604051908082528060200260200182016040528015611c8057816020015b6060815260200190600190039081611c6b5790505b50905060005b82811015610fdf57611cf030858584818110611ca457611ca4613645565b9050602002810190611cb6919061365b565b8080601f016020809104026020016040519081016040528093929190818152602001838380828437600092019190915250612a6292505050565b828281518110611d0257611d02613645565b60200260200101819052508080611d189061362c565b915050611c86565b6000818152600d6020908152604080832034908190559051908152339184917feaa18152488ce5959073c9c79c88ca90b3d96c00de1f118cfaad664c3dab06b9910160405180910390a3506001919050565b611d7c338361272a565b611d985760405162461bcd60e51b8152600401610a1e906136b8565b611da484848484612a87565b50505050565b600063c66e954360e01b8333611dc08282612193565b1580611dd35750611dd18383611bcc565b155b15611dfc5760405163472511eb60e11b81526001600160a01b0382166004820152602401610a1e565b6000611e0788610fe6565b60e08101519091506001600160a01b03163314611e4457868160c0015114611e445760405163472511eb60e11b8152336004820152602401610a1e565b600181516004811115611e5957611e5961306c565b03611e7c576000888152600c60205260409020805460ff19166002179055611eb2565b600281516004811115611e9157611e9161306c565b14611eb2578051604051633ba7bf8960e11b8152610a1e9190600401613608565b600088815260116020908152604082208054600181018255908352912001611eda878261375a565b50336001600160a01b0316887fa113d8544e03d8ca3bb9efae1a2a4ffedc87358f9cab0647fdcfbcac72f6ac83886040516115d49190612f07565b6060611f208261243e565b6000611f3760408051602081019091526000815290565b90506000815111611f575760405180602001604052806000815250611f82565b80611f6184612aba565b604051602001611f72929190613830565b6040516020818303038152906040525b9392505050565b600063e610a2dd60e01b60c083013533611fa38282612193565b1580611fb65750611fb48383611bcc565b155b15611fdf5760405163472511eb60e11b81526001600160a01b0382166004820152602401610a1e565b42856080013510156120105760405163a32789d960e01b815260808601356004820152426024820152604401610a1e565b600061201f602087018761386c565b60048111156120305761203061306c565b1461205c57612042602086018661386c565b604051633ba7bf8960e11b8152600401610a1e9190613608565b60c08501356000908152600d6020526040902054606086013581108061208b57506509184e72a0008660600135105b156120b65760405163cf47918160e01b81526004810182905260608701356024820152604401610a1e565b600a8054600101908190556000908152600c6020526040902086906120db8282613a7b565b5050336000908152601060209081526040808320600a805482546001810184559286528486209092019190915554835260129091529020429055612126610100870160e088016133bf565b6001600160a01b0316336001600160a01b0316600a547f487933e034710db4f40e8db61e822d2fff54215ca95e11baff632af66e1fbab689606001358a6080013560405161217e929190918252602082015260400190565b60405180910390a45050600a54949350505050565b6000336121a86006546001600160a01b031690565b6001600160a01b0316036121be575060016108eb565b5060009182526007602090815260408084206001600160a01b0393909316845291905290205460ff1690565b6000630f3ae70f60e41b82336122008282612193565b158061221357506122118383611bcc565b155b1561223c5760405163472511eb60e11b81526001600160a01b0382166004820152602401610a1e565b600061224787610fe6565b905060008151600481111561225e5761225e61306c565b1461227f578051604051633ba7bf8960e11b8152610a1e9190600401613608565b61228d8160a0015187612b4c565b6122ad576040516336b242eb60e21b815260048101879052602401610a1e565b60e08101516001600160a01b03166122e5576000878152600c6020526040902060070180546001600160a01b03191633179055612314565b60e08101516001600160a01b031633146123145760405163472511eb60e11b8152336004820152602401610a1e565b6000878152600c60209081526040808320805460ff1916600190811790915560e08501516001600160a01b031684526010835281842080549182018155845291832090910189905551339189917f51747b1d57e7c06f70f592aaaefde3fc6cd4b89a2e45b9f53126f2acf054c3d29190a35060019695505050505050565b60008281526009602052604090206060906123ad838261375a565b80546123b8906135ce565b80601f01602080910402602001604051908101604052809291908181526020018280546123e4906135ce565b80156124315780601f1061240657610100808354040283529160200191612431565b820191906000526020600020905b81548152906001019060200180831161241457829003601f168201915b5050505050905092915050565b6000818152600260205260409020546001600160a01b031661249d5760405162461bcd60e51b8152602060048201526018602482015277115490cdcc8c4e881a5b9d985b1a59081d1bdad95b88125160421b6044820152606401610a1e565b50565b600081815260046020526040902080546001600160a01b0319166001600160a01b03841690811790915581906124d58261192f565b6001600160a01b03167f8c5be1e5ebec7d5bd14f71427d1e84f3dd0314c0f7b2291e5b200ac8c7c3b92560405160405180910390a45050565b6001600160a01b0382166125645760405162461bcd60e51b815260206004820181905260248201527f4552433732313a206d696e7420746f20746865207a65726f20616464726573736044820152606401610a1e565b6000818152600260205260409020546001600160a01b0316156125c95760405162461bcd60e51b815260206004820152601c60248201527f4552433732313a20746f6b656e20616c7265616479206d696e746564000000006044820152606401610a1e565b6000818152600260205260409020546001600160a01b03161561262e5760405162461bcd60e51b815260206004820152601c60248201527f4552433732313a20746f6b656e20616c7265616479206d696e746564000000006044820152606401610a1e565b6001600160a01b038216600081815260036020908152604080832080546001019055848352600290915280822080546001600160a01b0319168417905551839291907fddf252ad1be2c89b69c2b068fc378daa952ba7f163c4a11628f55a4df523b3ef908290a45050565b60006126ab6509184e72a00084613b51565b6000858152601260205260409020546126c4904261381d565b6126ce91906139cf565b6001600160a01b0383166000908152601360205260408120805492935083929091906126fb908490613b73565b9091555050336000908152601360205260408120805483929061271f908490613b73565b909155505050505050565b6000806127368361192f565b9050806001600160a01b0316846001600160a01b0316148061277d57506001600160a01b0380821660009081526005602090815260408083209388168352929052205460ff165b806127a15750836001600160a01b031661279684610983565b6001600160a01b0316145b949350505050565b826001600160a01b03166127bc8261192f565b6001600160a01b0316146127e25760405162461bcd60e51b8152600401610a1e90613b86565b6001600160a01b0382166128445760405162461bcd60e51b8152602060048201526024808201527f4552433732313a207472616e7366657220746f20746865207a65726f206164646044820152637265737360e01b6064820152608401610a1e565b826001600160a01b03166128578261192f565b6001600160a01b03161461287d5760405162461bcd60e51b8152600401610a1e90613b86565b600081815260046020908152604080832080546001600160a01b03199081169091556001600160a01b0387811680865260038552838620805460001901905590871680865283862080546001019055868652600290945282852080549092168417909155905184937fddf252ad1be2c89b69c2b068fc378daa952ba7f163c4a11628f55a4df523b3ef91a4505050565b600061291882610fe6565b905060038151600481111561292f5761292f61306c565b148061294d575060048151600481111561294b5761294b61306c565b145b1561296f5780516040516306f4489360e11b8152610a1e918491600401613bcb565b61297d8160c0015133612193565b611c2f5760405163472511eb60e11b8152336004820152602401610a1e565b816001600160a01b0316836001600160a01b0316036129fd5760405162461bcd60e51b815260206004820152601960248201527f4552433732313a20617070726f766520746f2063616c6c6572000000000000006044820152606401610a1e565b6001600160a01b03838116600081815260056020908152604080832094871680845294825291829020805460ff191686151590811790915591519182527f17307eab39ab6107e8899845ad3d59bd9653f200f220920489ca2b5937696c319101611922565b6060611f828383604051806060016040528060278152602001613c9e60279139612b95565b612a928484846127a9565b612a9e84848484612c0d565b611da45760405162461bcd60e51b8152600401610a1e90613bdf565b60606000612ac783612d0e565b60010190506000816001600160401b03811115612ae657612ae66131e2565b6040519080825280601f01601f191660200182016040528015612b10576020820181803683370190505b5090508181016020015b600019016f181899199a1a9b1b9c1cb0b131b232b360811b600a86061a8153600a8504945084612b1a57509392505050565b6000805b8351811015612b8b5782848281518110612b6c57612b6c613645565b602002602001015103612b835760019150506108eb565b600101612b50565b5060009392505050565b6060600080856001600160a01b031685604051612bb29190613c31565b600060405180830381855af49150503d8060008114612bed576040519150601f19603f3d011682016040523d82523d6000602084013e612bf2565b606091505b5091509150612c0386838387612de6565b9695505050505050565b60006001600160a01b0384163b15612d0357604051630a85bd0160e11b81526001600160a01b0385169063150b7a0290612c51903390899088908890600401613c4d565b6020604051808303816000875af1925050508015612c8c575060408051601f3d908101601f19168201909252612c8991810190613c80565b60015b612ce9573d808015612cba576040519150601f19603f3d011682016040523d82523d6000602084013e612cbf565b606091505b508051600003612ce15760405162461bcd60e51b8152600401610a1e90613bdf565b805181602001fd5b6001600160e01b031916630a85bd0160e11b1490506127a1565b506001949350505050565b60008072184f03e93ff9f4daa797ed6e38ed64bf6a1f0160401b8310612d4d5772184f03e93ff9f4daa797ed6e38ed64bf6a1f0160401b830492506040015b6d04ee2d6d415b85acef81000000008310612d79576d04ee2d6d415b85acef8100000000830492506020015b662386f26fc100008310612d9757662386f26fc10000830492506010015b6305f5e1008310612daf576305f5e100830492506008015b6127108310612dc357612710830492506004015b60648310612dd5576064830492506002015b600a83106108eb5760010192915050565b60608315612e55578251600003612e4e576001600160a01b0385163b612e4e5760405162461bcd60e51b815260206004820152601d60248201527f416464726573733a2063616c6c20746f206e6f6e2d636f6e74726163740000006044820152606401610a1e565b50816127a1565b6127a18383815115612e6a5781518083602001fd5b8060405162461bcd60e51b8152600401610a1e9190612f07565b6001600160e01b03198116811461249d57600080fd5b600060208284031215612eac57600080fd5b8135611f8281612e84565b60005b83811015612ed2578181015183820152602001612eba565b50506000910152565b60008151808452612ef3816020860160208601612eb7565b601f01601f19169290920160200192915050565b602081526000611f826020830184612edb565b600060208284031215612f2c57600080fd5b5035919050565b6001600160a01b038116811461249d57600080fd5b60008060408385031215612f5b57600080fd5b8235612f6681612f33565b946020939093013593505050565b60008060408385031215612f8757600080fd5b50508035926020909101359150565b60008060208385031215612fa957600080fd5b82356001600160401b0380821115612fc057600080fd5b818501915085601f830112612fd457600080fd5b813581811115612fe357600080fd5b8660208260051b8501011115612ff857600080fd5b60209290920196919550909350505050565b6000602080830181845280855180835260408601915060408160051b870101925083870160005b8281101561305f57603f1988860301845261304d858351612edb565b94509285019290850190600101613031565b5092979650505050505050565b634e487b7160e01b600052602160045260246000fd5b600581106130a057634e487b7160e01b600052602160045260246000fd5b9052565b600081518084526020808501945080840160005b838110156130d4578151875295820195908201906001016130b8565b509495945050505050565b602081526130f1602082018351613082565b6000602083015161012080604085015261310f610140850183612edb565b91506040850151601f198086850301606087015261312d8483612edb565b935060608701516080870152608087015160a087015260a08701519150808685030160c087015261315e84836130a4565b935060c087015160e087015260e08701519150610100613188818801846001600160a01b03169052565b870151868503909101838701529050612c038382612edb565b6000806000606084860312156131b657600080fd5b83356131c181612f33565b925060208401356131d181612f33565b929592945050506040919091013590565b634e487b7160e01b600052604160045260246000fd5b60006001600160401b0380841115613212576132126131e2565b604051601f8501601f19908116603f0116810190828211818310171561323a5761323a6131e2565b8160405280935085815286868601111561325357600080fd5b858560208301376000602087830101525050509392505050565b600082601f83011261327e57600080fd5b611f82838335602085016131f8565b600080604083850312156132a057600080fd5b8235915060208301356001600160401b038111156132bd57600080fd5b6132c98582860161326d565b9150509250929050565b600080604083850312156132e657600080fd5b8235915060208301356132f881612f33565b809150509250929050565b8035801515811461331357600080fd5b919050565b6000806000806080858703121561332e57600080fd5b8435935060208501356001600160401b0381111561334b57600080fd5b6133578782880161326d565b935050604085013561336881612f33565b915061337660608601613303565b905092959194509250565b60008060006060848603121561339657600080fd5b83356133a181612e84565b9250602084013591506133b660408501613303565b90509250925092565b6000602082840312156133d157600080fd5b8135611f8281612f33565b602081526000611f8260208301846130a4565b6000602080830181845280855180835260408601915060408160051b870101925083870160005b8281101561305f57603f19888603018452613432858351612edb565b94509285019290850190600101613416565b6000806040838503121561345757600080fd5b8235612f6681612e84565b6000806040838503121561347557600080fd5b823561348081612f33565b915061348e60208401613303565b90509250929050565b600080600080608085870312156134ad57600080fd5b84356134b881612f33565b935060208501356134c881612f33565b92506040850135915060608501356001600160401b038111156134ea57600080fd5b8501601f810187136134fb57600080fd5b61350a878235602084016131f8565b91505092959194509250565b60008060006060848603121561352b57600080fd5b833592506020840135915060408401356001600160401b0381111561354f57600080fd5b61355b8682870161326d565b9150509250925092565b60006020828403121561357757600080fd5b81356001600160401b0381111561358d57600080fd5b82016101208185031215611f8257600080fd5b600080604083850312156135b357600080fd5b82356135be81612f33565b915060208301356132f881612f33565b600181811c908216806135e257607f821691505b60208210810361360257634e487b7160e01b600052602260045260246000fd5b50919050565b602081016108eb8284613082565b634e487b7160e01b600052601160045260246000fd5b60006001820161363e5761363e613616565b5060010190565b634e487b7160e01b600052603260045260246000fd5b6000808335601e1984360301811261367257600080fd5b8301803591506001600160401b0382111561368c57600080fd5b6020019150368190038213156136a157600080fd5b9250929050565b8183823760009101908152919050565b6020808252602d908201527f4552433732313a2063616c6c6572206973206e6f7420746f6b656e206f776e6560408201526c1c881bdc88185c1c1c9bdd9959609a1b606082015260800190565b5b81811015611c2f5760008155600101613706565b601f821115610abf57806000526020600020601f840160051c810160208510156137415750805b613753601f850160051c830182613705565b5050505050565b81516001600160401b03811115613773576137736131e2565b6137878161378184546135ce565b8461371a565b602080601f8311600181146137bc57600084156137a45750858301515b600019600386901b1c1916600185901b178555613815565b600085815260208120601f198616915b828110156137eb578886015182559484019460019091019084016137cc565b50858210156138095787850151600019600388901b60f8161c191681555b505060018460011b0185555b505050505050565b818103818111156108eb576108eb613616565b60008351613842818460208801612eb7565b835190830190613856818360208801612eb7565b01949350505050565b6005811061249d57600080fd5b60006020828403121561387e57600080fd5b8135611f828161385f565b600081356108eb8161385f565b600582106138b457634e487b7160e01b600052602160045260246000fd5b60ff1981541660ff831681178255505050565b6001600160401b038311156138de576138de6131e2565b6138f2836138ec83546135ce565b8361371a565b6000601f841160018114613926576000851561390e5750838201355b600019600387901b1c1916600186901b178355613753565b600083815260209020601f19861690835b828110156139575786850135825560209485019460019092019101613937565b50868210156139745760001960f88860031b161c19848701351681555b505060018560011b0183555050505050565b6000808335601e1984360301811261399d57600080fd5b8301803591506001600160401b038211156139b757600080fd5b6020019150600581901b36038213156136a157600080fd5b80820281158282048414176108eb576108eb613616565b6001600160401b038311156139fd576139fd6131e2565b68010000000000000000831115613a1657613a166131e2565b805483825580841015613a3c57816000526020600020613a3a828201868301613705565b505b50818160005260208060002060005b86811015613a655783358282015592820192600101613a4b565b50505050505050565b600081356108eb81612f33565b613a8d613a8783613889565b82613896565b613a9a602083018361365b565b613aa88183600186016138c7565b5050613ab7604083018361365b565b613ac58183600286016138c7565b50506060820135600382015560808201356004820155613ae860a0830183613986565b613af68183600586016139e6565b505060c08201356006820155613b35613b1160e08401613a6e565b6007830180546001600160a01b0319166001600160a01b0392909216919091179055565b613b4361010083018361365b565b611da48183600886016138c7565b600082613b6e57634e487b7160e01b600052601260045260246000fd5b500490565b808201808211156108eb576108eb613616565b60208082526025908201527f4552433732313a207472616e736665722066726f6d20696e636f72726563742060408201526437bbb732b960d91b606082015260800190565b82815260408101611f826020830184613082565b60208082526032908201527f4552433732313a207472616e7366657220746f206e6f6e20455243373231526560408201527131b2b4bb32b91034b6b83632b6b2b73a32b960711b606082015260800190565b60008251613c43818460208701612eb7565b9190910192915050565b6001600160a01b0385811682528416602082015260408101839052608060608201819052600090612c0390830184612edb565b600060208284031215613c9257600080fd5b8151611f8281612e8456fe416464726573733a206c6f772d6c6576656c2064656c65676174652063616c6c206661696c6564a2646970667358221220cb520e751433a02304661408644a6cfab86c101e1d0b8daa31bf46316cf8337364736f6c63430008140033",
  "linkReferences": {},
  "deployedLinkReferences": {}
}